{
  "_format": "hh-sol-artifact-1",
  "contractName": "DarkForestCore",
  "sourceName": "contracts/DarkForestCore.sol",
  "abi": [
    {
      "anonymous": false,
      "inputs": [
        {
          "indexed": false,
          "internalType": "uint256",
          "name": "arrivalId",
          "type": "uint256"
        }
      ],
      "name": "ArrivalQueued",
      "type": "event"
    },
    {
      "anonymous": false,
      "inputs": [
        {
          "indexed": false,
          "internalType": "uint256",
          "name": "loc",
          "type": "uint256"
        }
      ],
      "name": "BoughtHat",
      "type": "event"
    },
    {
      "anonymous": false,
      "inputs": [
        {
          "indexed": false,
          "internalType": "uint256",
          "name": "loc",
          "type": "uint256"
        },
        {
          "indexed": false,
          "internalType": "address",
          "name": "player",
          "type": "address"
        },
        {
          "indexed": false,
          "internalType": "uint256",
          "name": "artifactId",
          "type": "uint256"
        }
      ],
      "name": "DepositedArtifact",
      "type": "event"
    },
    {
      "anonymous": false,
      "inputs": [
        {
          "indexed": false,
          "internalType": "uint256",
          "name": "loc",
          "type": "uint256"
        },
        {
          "indexed": false,
          "internalType": "address",
          "name": "player",
          "type": "address"
        },
        {
          "indexed": false,
          "internalType": "uint256",
          "name": "artifactId",
          "type": "uint256"
        }
      ],
      "name": "FoundArtifact",
      "type": "event"
    },
    {
      "anonymous": false,
      "inputs": [
        {
          "indexed": false,
          "internalType": "uint256",
          "name": "loc",
          "type": "uint256"
        },
        {
          "indexed": false,
          "internalType": "address",
          "name": "player",
          "type": "address"
        }
      ],
      "name": "PlanetTransferred",
      "type": "event"
    },
    {
      "anonymous": false,
      "inputs": [
        {
          "indexed": false,
          "internalType": "uint256",
          "name": "loc",
          "type": "uint256"
        }
      ],
      "name": "PlanetUpgraded",
      "type": "event"
    },
    {
      "anonymous": false,
      "inputs": [
        {
          "indexed": false,
          "internalType": "address",
          "name": "player",
          "type": "address"
        },
        {
          "indexed": false,
          "internalType": "uint256",
          "name": "loc",
          "type": "uint256"
        }
      ],
      "name": "PlayerInitialized",
      "type": "event"
    },
    {
      "anonymous": false,
      "inputs": [
        {
          "indexed": false,
          "internalType": "uint256",
          "name": "loc",
          "type": "uint256"
        },
        {
          "indexed": false,
          "internalType": "address",
          "name": "player",
          "type": "address"
        },
        {
          "indexed": false,
          "internalType": "uint256",
          "name": "artifactId",
          "type": "uint256"
        }
      ],
      "name": "WithdrewArtifact",
      "type": "event"
    },
    {
      "inputs": [],
      "name": "ARTIFACT_LOCKUP_DURATION_SECONDS",
      "outputs": [
        {
          "internalType": "uint256",
          "name": "",
          "type": "uint256"
        }
      ],
      "stateMutability": "view",
      "type": "function"
    },
    {
      "inputs": [],
      "name": "BIOME_THRESHOLD_1",
      "outputs": [
        {
          "internalType": "uint256",
          "name": "",
          "type": "uint256"
        }
      ],
      "stateMutability": "view",
      "type": "function"
    },
    {
      "inputs": [],
      "name": "BIOME_THRESHOLD_2",
      "outputs": [
        {
          "internalType": "uint256",
          "name": "",
          "type": "uint256"
        }
      ],
      "stateMutability": "view",
      "type": "function"
    },
    {
      "inputs": [],
      "name": "DISABLE_ZK_CHECK",
      "outputs": [
        {
          "internalType": "bool",
          "name": "",
          "type": "bool"
        }
      ],
      "stateMutability": "view",
      "type": "function"
    },
    {
      "inputs": [],
      "name": "PERLIN_THRESHOLD_1",
      "outputs": [
        {
          "internalType": "uint256",
          "name": "",
          "type": "uint256"
        }
      ],
      "stateMutability": "view",
      "type": "function"
    },
    {
      "inputs": [],
      "name": "PERLIN_THRESHOLD_2",
      "outputs": [
        {
          "internalType": "uint256",
          "name": "",
          "type": "uint256"
        }
      ],
      "stateMutability": "view",
      "type": "function"
    },
    {
      "inputs": [],
      "name": "PLANET_RARITY",
      "outputs": [
        {
          "internalType": "uint256",
          "name": "",
          "type": "uint256"
        }
      ],
      "stateMutability": "view",
      "type": "function"
    },
    {
      "inputs": [],
      "name": "SILVER_RARITY_1",
      "outputs": [
        {
          "internalType": "uint256",
          "name": "",
          "type": "uint256"
        }
      ],
      "stateMutability": "view",
      "type": "function"
    },
    {
      "inputs": [],
      "name": "SILVER_RARITY_2",
      "outputs": [
        {
          "internalType": "uint256",
          "name": "",
          "type": "uint256"
        }
      ],
      "stateMutability": "view",
      "type": "function"
    },
    {
      "inputs": [],
      "name": "SILVER_RARITY_3",
      "outputs": [
        {
          "internalType": "uint256",
          "name": "",
          "type": "uint256"
        }
      ],
      "stateMutability": "view",
      "type": "function"
    },
    {
      "inputs": [],
      "name": "TIME_FACTOR_HUNDREDTHS",
      "outputs": [
        {
          "internalType": "uint256",
          "name": "",
          "type": "uint256"
        }
      ],
      "stateMutability": "view",
      "type": "function"
    },
    {
      "inputs": [
        {
          "internalType": "uint256",
          "name": "_loc",
          "type": "uint256"
        }
      ],
      "name": "_locationIdValid",
      "outputs": [
        {
          "internalType": "bool",
          "name": "",
          "type": "bool"
        }
      ],
      "stateMutability": "view",
      "type": "function"
    },
    {
      "inputs": [],
      "name": "adminAddress",
      "outputs": [
        {
          "internalType": "address",
          "name": "",
          "type": "address"
        }
      ],
      "stateMutability": "view",
      "type": "function"
    },
    {
      "inputs": [
        {
          "internalType": "uint256[]",
          "name": "ids",
          "type": "uint256[]"
        }
      ],
      "name": "bulkGetArtifactsByIds",
      "outputs": [
        {
          "components": [
            {
              "components": [
                {
                  "internalType": "uint256",
                  "name": "id",
                  "type": "uint256"
                },
                {
                  "internalType": "uint256",
                  "name": "planetDiscoveredOn",
                  "type": "uint256"
                },
                {
                  "internalType": "uint256",
                  "name": "planetLevel",
                  "type": "uint256"
                },
                {
                  "internalType": "enum DarkForestTypes.Biome",
                  "name": "planetBiome",
                  "type": "uint8"
                },
                {
                  "internalType": "uint256",
                  "name": "mintedAtTimestamp",
                  "type": "uint256"
                },
                {
                  "internalType": "address",
                  "name": "discoverer",
                  "type": "address"
                },
                {
                  "internalType": "enum DarkForestTypes.ArtifactType",
                  "name": "artifactType",
                  "type": "uint8"
                }
              ],
              "internalType": "struct DarkForestTypes.Artifact",
              "name": "artifact",
              "type": "tuple"
            },
            {
              "components": [
                {
                  "internalType": "uint256",
                  "name": "popCapMultiplier",
                  "type": "uint256"
                },
                {
                  "internalType": "uint256",
                  "name": "popGroMultiplier",
                  "type": "uint256"
                },
                {
                  "internalType": "uint256",
                  "name": "rangeMultiplier",
                  "type": "uint256"
                },
                {
                  "internalType": "uint256",
                  "name": "speedMultiplier",
                  "type": "uint256"
                },
                {
                  "internalType": "uint256",
                  "name": "defMultiplier",
                  "type": "uint256"
                }
              ],
              "internalType": "struct DarkForestTypes.Upgrade",
              "name": "upgrade",
              "type": "tuple"
            },
            {
              "internalType": "address",
              "name": "owner",
              "type": "address"
            },
            {
              "internalType": "uint256",
              "name": "locationId",
              "type": "uint256"
            }
          ],
          "internalType": "struct DarkForestTypes.ArtifactWithMetadata[]",
          "name": "ret",
          "type": "tuple[]"
        }
      ],
      "stateMutability": "view",
      "type": "function"
    },
    {
      "inputs": [
        {
          "internalType": "uint256[]",
          "name": "ids",
          "type": "uint256[]"
        }
      ],
      "name": "bulkGetCompactArrivalsByIds",
      "outputs": [
        {
          "components": [
            {
              "internalType": "uint256",
              "name": "popArriving",
              "type": "uint256"
            },
            {
              "internalType": "uint256",
              "name": "silverMoved",
              "type": "uint256"
            },
            {
              "internalType": "uint256",
              "name": "departureTime",
              "type": "uint256"
            },
            {
              "internalType": "uint256",
              "name": "arrivalTime",
              "type": "uint256"
            },
            {
              "internalType": "uint256",
              "name": "fromPlanet",
              "type": "uint256"
            },
            {
              "internalType": "address",
              "name": "fromPlanetOwner",
              "type": "address"
            },
            {
              "internalType": "uint256",
              "name": "fromPlanetPopulation",
              "type": "uint256"
            },
            {
              "internalType": "uint256",
              "name": "fromPlanetSilver",
              "type": "uint256"
            },
            {
              "internalType": "uint256",
              "name": "toPlanet",
              "type": "uint256"
            },
            {
              "internalType": "address",
              "name": "toPlanetOwner",
              "type": "address"
            },
            {
              "internalType": "uint256",
              "name": "toPlanetPopulation",
              "type": "uint256"
            },
            {
              "internalType": "uint256",
              "name": "toPlanetSilver",
              "type": "uint256"
            }
          ],
          "internalType": "struct DarkForestTypes.CompactArrival[]",
          "name": "ret",
          "type": "tuple[]"
        }
      ],
      "stateMutability": "view",
      "type": "function"
    },
    {
      "inputs": [
        {
          "internalType": "uint256",
          "name": "startIdx",
          "type": "uint256"
        },
        {
          "internalType": "uint256",
          "name": "endIdx",
          "type": "uint256"
        }
      ],
      "name": "bulkGetPlanetArrivals",
      "outputs": [
        {
          "components": [
            {
              "internalType": "uint256",
              "name": "id",
              "type": "uint256"
            },
            {
              "internalType": "address",
              "name": "player",
              "type": "address"
            },
            {
              "internalType": "uint256",
              "name": "fromPlanet",
              "type": "uint256"
            },
            {
              "internalType": "uint256",
              "name": "toPlanet",
              "type": "uint256"
            },
            {
              "internalType": "uint256",
              "name": "popArriving",
              "type": "uint256"
            },
            {
              "internalType": "uint256",
              "name": "silverMoved",
              "type": "uint256"
            },
            {
              "internalType": "uint256",
              "name": "departureTime",
              "type": "uint256"
            },
            {
              "internalType": "uint256",
              "name": "arrivalTime",
              "type": "uint256"
            }
          ],
          "internalType": "struct DarkForestTypes.ArrivalData[][]",
          "name": "",
          "type": "tuple[][]"
        }
      ],
      "stateMutability": "view",
      "type": "function"
    },
    {
      "inputs": [
        {
          "internalType": "uint256[]",
          "name": "ids",
          "type": "uint256[]"
        }
      ],
      "name": "bulkGetPlanetArrivalsByIds",
      "outputs": [
        {
          "components": [
            {
              "internalType": "uint256",
              "name": "id",
              "type": "uint256"
            },
            {
              "internalType": "address",
              "name": "player",
              "type": "address"
            },
            {
              "internalType": "uint256",
              "name": "fromPlanet",
              "type": "uint256"
            },
            {
              "internalType": "uint256",
              "name": "toPlanet",
              "type": "uint256"
            },
            {
              "internalType": "uint256",
              "name": "popArriving",
              "type": "uint256"
            },
            {
              "internalType": "uint256",
              "name": "silverMoved",
              "type": "uint256"
            },
            {
              "internalType": "uint256",
              "name": "departureTime",
              "type": "uint256"
            },
            {
              "internalType": "uint256",
              "name": "arrivalTime",
              "type": "uint256"
            }
          ],
          "internalType": "struct DarkForestTypes.ArrivalData[][]",
          "name": "",
          "type": "tuple[][]"
        }
      ],
      "stateMutability": "view",
      "type": "function"
    },
    {
      "inputs": [
        {
          "internalType": "uint256",
          "name": "startIdx",
          "type": "uint256"
        },
        {
          "internalType": "uint256",
          "name": "endIdx",
          "type": "uint256"
        }
      ],
      "name": "bulkGetPlanetIds",
      "outputs": [
        {
          "internalType": "uint256[]",
          "name": "ret",
          "type": "uint256[]"
        }
      ],
      "stateMutability": "view",
      "type": "function"
    },
    {
      "inputs": [
        {
          "internalType": "uint256",
          "name": "startIdx",
          "type": "uint256"
        },
        {
          "internalType": "uint256",
          "name": "endIdx",
          "type": "uint256"
        }
      ],
      "name": "bulkGetPlanets",
      "outputs": [
        {
          "components": [
            {
              "internalType": "address",
              "name": "owner",
              "type": "address"
            },
            {
              "internalType": "uint256",
              "name": "range",
              "type": "uint256"
            },
            {
              "internalType": "uint256",
              "name": "speed",
              "type": "uint256"
            },
            {
              "internalType": "uint256",
              "name": "defense",
              "type": "uint256"
            },
            {
              "internalType": "uint256",
              "name": "population",
              "type": "uint256"
            },
            {
              "internalType": "uint256",
              "name": "populationCap",
              "type": "uint256"
            },
            {
              "internalType": "uint256",
              "name": "populationGrowth",
              "type": "uint256"
            },
            {
              "internalType": "enum DarkForestTypes.PlanetResource",
              "name": "planetResource",
              "type": "uint8"
            },
            {
              "internalType": "uint256",
              "name": "silverCap",
              "type": "uint256"
            },
            {
              "internalType": "uint256",
              "name": "silverGrowth",
              "type": "uint256"
            },
            {
              "internalType": "uint256",
              "name": "silver",
              "type": "uint256"
            },
            {
              "internalType": "uint256",
              "name": "planetLevel",
              "type": "uint256"
            }
          ],
          "internalType": "struct DarkForestTypes.Planet[]",
          "name": "ret",
          "type": "tuple[]"
        }
      ],
      "stateMutability": "view",
      "type": "function"
    },
    {
      "inputs": [
        {
          "internalType": "uint256[]",
          "name": "ids",
          "type": "uint256[]"
        }
      ],
      "name": "bulkGetPlanetsByIds",
      "outputs": [
        {
          "components": [
            {
              "internalType": "address",
              "name": "owner",
              "type": "address"
            },
            {
              "internalType": "uint256",
              "name": "range",
              "type": "uint256"
            },
            {
              "internalType": "uint256",
              "name": "speed",
              "type": "uint256"
            },
            {
              "internalType": "uint256",
              "name": "defense",
              "type": "uint256"
            },
            {
              "internalType": "uint256",
              "name": "population",
              "type": "uint256"
            },
            {
              "internalType": "uint256",
              "name": "populationCap",
              "type": "uint256"
            },
            {
              "internalType": "uint256",
              "name": "populationGrowth",
              "type": "uint256"
            },
            {
              "internalType": "enum DarkForestTypes.PlanetResource",
              "name": "planetResource",
              "type": "uint8"
            },
            {
              "internalType": "uint256",
              "name": "silverCap",
              "type": "uint256"
            },
            {
              "internalType": "uint256",
              "name": "silverGrowth",
              "type": "uint256"
            },
            {
              "internalType": "uint256",
              "name": "silver",
              "type": "uint256"
            },
            {
              "internalType": "uint256",
              "name": "planetLevel",
              "type": "uint256"
            }
          ],
          "internalType": "struct DarkForestTypes.Planet[]",
          "name": "ret",
          "type": "tuple[]"
        }
      ],
      "stateMutability": "view",
      "type": "function"
    },
    {
      "inputs": [
        {
          "internalType": "uint256",
          "name": "startIdx",
          "type": "uint256"
        },
        {
          "internalType": "uint256",
          "name": "endIdx",
          "type": "uint256"
        }
      ],
      "name": "bulkGetPlanetsExtendedInfo",
      "outputs": [
        {
          "components": [
            {
              "internalType": "bool",
              "name": "isInitialized",
              "type": "bool"
            },
            {
              "internalType": "uint256",
              "name": "createdAt",
              "type": "uint256"
            },
            {
              "internalType": "uint256",
              "name": "lastUpdated",
              "type": "uint256"
            },
            {
              "internalType": "uint256",
              "name": "perlin",
              "type": "uint256"
            },
            {
              "internalType": "enum DarkForestTypes.SpaceType",
              "name": "spaceType",
              "type": "uint8"
            },
            {
              "internalType": "uint256",
              "name": "upgradeState0",
              "type": "uint256"
            },
            {
              "internalType": "uint256",
              "name": "upgradeState1",
              "type": "uint256"
            },
            {
              "internalType": "uint256",
              "name": "upgradeState2",
              "type": "uint256"
            },
            {
              "internalType": "uint256",
              "name": "hatLevel",
              "type": "uint256"
            },
            {
              "internalType": "bool",
              "name": "hasTriedFindingArtifact",
              "type": "bool"
            },
            {
              "internalType": "uint256",
              "name": "heldArtifactId",
              "type": "uint256"
            },
            {
              "internalType": "uint256",
              "name": "artifactLockedTimestamp",
              "type": "uint256"
            }
          ],
          "internalType": "struct DarkForestTypes.PlanetExtendedInfo[]",
          "name": "ret",
          "type": "tuple[]"
        }
      ],
      "stateMutability": "view",
      "type": "function"
    },
    {
      "inputs": [
        {
          "internalType": "uint256[]",
          "name": "ids",
          "type": "uint256[]"
        }
      ],
      "name": "bulkGetPlanetsExtendedInfoByIds",
      "outputs": [
        {
          "components": [
            {
              "internalType": "bool",
              "name": "isInitialized",
              "type": "bool"
            },
            {
              "internalType": "uint256",
              "name": "createdAt",
              "type": "uint256"
            },
            {
              "internalType": "uint256",
              "name": "lastUpdated",
              "type": "uint256"
            },
            {
              "internalType": "uint256",
              "name": "perlin",
              "type": "uint256"
            },
            {
              "internalType": "enum DarkForestTypes.SpaceType",
              "name": "spaceType",
              "type": "uint8"
            },
            {
              "internalType": "uint256",
              "name": "upgradeState0",
              "type": "uint256"
            },
            {
              "internalType": "uint256",
              "name": "upgradeState1",
              "type": "uint256"
            },
            {
              "internalType": "uint256",
              "name": "upgradeState2",
              "type": "uint256"
            },
            {
              "internalType": "uint256",
              "name": "hatLevel",
              "type": "uint256"
            },
            {
              "internalType": "bool",
              "name": "hasTriedFindingArtifact",
              "type": "bool"
            },
            {
              "internalType": "uint256",
              "name": "heldArtifactId",
              "type": "uint256"
            },
            {
              "internalType": "uint256",
              "name": "artifactLockedTimestamp",
              "type": "uint256"
            }
          ],
          "internalType": "struct DarkForestTypes.PlanetExtendedInfo[]",
          "name": "ret",
          "type": "tuple[]"
        }
      ],
      "stateMutability": "view",
      "type": "function"
    },
    {
      "inputs": [
        {
          "internalType": "uint256",
          "name": "startIdx",
          "type": "uint256"
        },
        {
          "internalType": "uint256",
          "name": "endIdx",
          "type": "uint256"
        }
      ],
      "name": "bulkGetPlayers",
      "outputs": [
        {
          "internalType": "address[]",
          "name": "ret",
          "type": "address[]"
        }
      ],
      "stateMutability": "view",
      "type": "function"
    },
    {
      "inputs": [
        {
          "internalType": "uint256",
          "name": "_location",
          "type": "uint256"
        }
      ],
      "name": "buyHat",
      "outputs": [],
      "stateMutability": "payable",
      "type": "function"
    },
    {
      "inputs": [
        {
          "internalType": "address",
          "name": "_newAdmin",
          "type": "address"
        }
      ],
      "name": "changeAdmin",
      "outputs": [],
      "stateMutability": "nonpayable",
      "type": "function"
    },
    {
      "inputs": [
        {
          "internalType": "uint256",
          "name": "_newConstant",
          "type": "uint256"
        }
      ],
      "name": "changeTarget4RadiusConstant",
      "outputs": [],
      "stateMutability": "nonpayable",
      "type": "function"
    },
    {
      "inputs": [
        {
          "internalType": "uint256",
          "name": "_newEnd",
          "type": "uint256"
        }
      ],
      "name": "changeTokenMintEndTime",
      "outputs": [],
      "stateMutability": "nonpayable",
      "type": "function"
    },
    {
      "inputs": [
        {
          "internalType": "uint256",
          "name": "",
          "type": "uint256"
        }
      ],
      "name": "contractOwnedArtifactLocations",
      "outputs": [
        {
          "internalType": "uint256",
          "name": "",
          "type": "uint256"
        }
      ],
      "stateMutability": "view",
      "type": "function"
    },
    {
      "inputs": [
        {
          "internalType": "uint256",
          "name": "",
          "type": "uint256"
        }
      ],
      "name": "cumulativeRarities",
      "outputs": [
        {
          "internalType": "uint256",
          "name": "",
          "type": "uint256"
        }
      ],
      "stateMutability": "view",
      "type": "function"
    },
    {
      "inputs": [
        {
          "internalType": "uint256",
          "name": "locationId",
          "type": "uint256"
        },
        {
          "internalType": "uint256",
          "name": "artifactId",
          "type": "uint256"
        }
      ],
      "name": "depositArtifact",
      "outputs": [],
      "stateMutability": "nonpayable",
      "type": "function"
    },
    {
      "inputs": [
        {
          "internalType": "uint256",
          "name": "tokenId",
          "type": "uint256"
        }
      ],
      "name": "doesArtifactExist",
      "outputs": [
        {
          "internalType": "bool",
          "name": "",
          "type": "bool"
        }
      ],
      "stateMutability": "view",
      "type": "function"
    },
    {
      "inputs": [
        {
          "internalType": "uint256[2]",
          "name": "_a",
          "type": "uint256[2]"
        },
        {
          "internalType": "uint256[2][2]",
          "name": "_b",
          "type": "uint256[2][2]"
        },
        {
          "internalType": "uint256[2]",
          "name": "_c",
          "type": "uint256[2]"
        },
        {
          "internalType": "uint256[2]",
          "name": "_input",
          "type": "uint256[2]"
        }
      ],
      "name": "findArtifact",
      "outputs": [],
      "stateMutability": "nonpayable",
      "type": "function"
    },
    {
      "inputs": [
        {
          "internalType": "uint256",
          "name": "artifactId",
          "type": "uint256"
        }
      ],
      "name": "getArtifactById",
      "outputs": [
        {
          "components": [
            {
              "components": [
                {
                  "internalType": "uint256",
                  "name": "id",
                  "type": "uint256"
                },
                {
                  "internalType": "uint256",
                  "name": "planetDiscoveredOn",
                  "type": "uint256"
                },
                {
                  "internalType": "uint256",
                  "name": "planetLevel",
                  "type": "uint256"
                },
                {
                  "internalType": "enum DarkForestTypes.Biome",
                  "name": "planetBiome",
                  "type": "uint8"
                },
                {
                  "internalType": "uint256",
                  "name": "mintedAtTimestamp",
                  "type": "uint256"
                },
                {
                  "internalType": "address",
                  "name": "discoverer",
                  "type": "address"
                },
                {
                  "internalType": "enum DarkForestTypes.ArtifactType",
                  "name": "artifactType",
                  "type": "uint8"
                }
              ],
              "internalType": "struct DarkForestTypes.Artifact",
              "name": "artifact",
              "type": "tuple"
            },
            {
              "components": [
                {
                  "internalType": "uint256",
                  "name": "popCapMultiplier",
                  "type": "uint256"
                },
                {
                  "internalType": "uint256",
                  "name": "popGroMultiplier",
                  "type": "uint256"
                },
                {
                  "internalType": "uint256",
                  "name": "rangeMultiplier",
                  "type": "uint256"
                },
                {
                  "internalType": "uint256",
                  "name": "speedMultiplier",
                  "type": "uint256"
                },
                {
                  "internalType": "uint256",
                  "name": "defMultiplier",
                  "type": "uint256"
                }
              ],
              "internalType": "struct DarkForestTypes.Upgrade",
              "name": "upgrade",
              "type": "tuple"
            },
            {
              "internalType": "address",
              "name": "owner",
              "type": "address"
            },
            {
              "internalType": "uint256",
              "name": "locationId",
              "type": "uint256"
            }
          ],
          "internalType": "struct DarkForestTypes.ArtifactWithMetadata",
          "name": "ret",
          "type": "tuple"
        }
      ],
      "stateMutability": "view",
      "type": "function"
    },
    {
      "inputs": [],
      "name": "getDefaultStats",
      "outputs": [
        {
          "components": [
            {
              "internalType": "string",
              "name": "label",
              "type": "string"
            },
            {
              "internalType": "uint256",
              "name": "populationCap",
              "type": "uint256"
            },
            {
              "internalType": "uint256",
              "name": "populationGrowth",
              "type": "uint256"
            },
            {
              "internalType": "uint256",
              "name": "range",
              "type": "uint256"
            },
            {
              "internalType": "uint256",
              "name": "speed",
              "type": "uint256"
            },
            {
              "internalType": "uint256",
              "name": "defense",
              "type": "uint256"
            },
            {
              "internalType": "uint256",
              "name": "silverGrowth",
              "type": "uint256"
            },
            {
              "internalType": "uint256",
              "name": "silverCap",
              "type": "uint256"
            },
            {
              "internalType": "uint256",
              "name": "barbarianPercentage",
              "type": "uint256"
            }
          ],
          "internalType": "struct DarkForestTypes.PlanetDefaultStats[]",
          "name": "",
          "type": "tuple[]"
        }
      ],
      "stateMutability": "view",
      "type": "function"
    },
    {
      "inputs": [
        {
          "internalType": "address",
          "name": "addr",
          "type": "address"
        }
      ],
      "name": "getMoveCnt",
      "outputs": [
        {
          "internalType": "uint256",
          "name": "",
          "type": "uint256"
        }
      ],
      "stateMutability": "view",
      "type": "function"
    },
    {
      "inputs": [],
      "name": "getNPlanets",
      "outputs": [
        {
          "internalType": "uint256",
          "name": "",
          "type": "uint256"
        }
      ],
      "stateMutability": "view",
      "type": "function"
    },
    {
      "inputs": [],
      "name": "getNPlayers",
      "outputs": [
        {
          "internalType": "uint256",
          "name": "",
          "type": "uint256"
        }
      ],
      "stateMutability": "view",
      "type": "function"
    },
    {
      "inputs": [
        {
          "internalType": "uint256",
          "name": "_location",
          "type": "uint256"
        }
      ],
      "name": "getPlanetArrivals",
      "outputs": [
        {
          "components": [
            {
              "internalType": "uint256",
              "name": "id",
              "type": "uint256"
            },
            {
              "internalType": "address",
              "name": "player",
              "type": "address"
            },
            {
              "internalType": "uint256",
              "name": "fromPlanet",
              "type": "uint256"
            },
            {
              "internalType": "uint256",
              "name": "toPlanet",
              "type": "uint256"
            },
            {
              "internalType": "uint256",
              "name": "popArriving",
              "type": "uint256"
            },
            {
              "internalType": "uint256",
              "name": "silverMoved",
              "type": "uint256"
            },
            {
              "internalType": "uint256",
              "name": "departureTime",
              "type": "uint256"
            },
            {
              "internalType": "uint256",
              "name": "arrivalTime",
              "type": "uint256"
            }
          ],
          "internalType": "struct DarkForestTypes.ArrivalData[]",
          "name": "ret",
          "type": "tuple[]"
        }
      ],
      "stateMutability": "view",
      "type": "function"
    },
    {
      "inputs": [],
      "name": "getPlanetCumulativeRarities",
      "outputs": [
        {
          "internalType": "uint256[]",
          "name": "",
          "type": "uint256[]"
        }
      ],
      "stateMutability": "view",
      "type": "function"
    },
    {
      "inputs": [],
      "name": "getPlanetLevelThresholds",
      "outputs": [
        {
          "internalType": "uint256[]",
          "name": "",
          "type": "uint256[]"
        }
      ],
      "stateMutability": "view",
      "type": "function"
    },
    {
      "inputs": [
        {
          "internalType": "address",
          "name": "playerId",
          "type": "address"
        }
      ],
      "name": "getPlayerArtifactIds",
      "outputs": [
        {
          "internalType": "uint256[]",
          "name": "",
          "type": "uint256[]"
        }
      ],
      "stateMutability": "view",
      "type": "function"
    },
    {
      "inputs": [],
      "name": "getUpgrades",
      "outputs": [
        {
          "components": [
            {
              "internalType": "uint256",
              "name": "popCapMultiplier",
              "type": "uint256"
            },
            {
              "internalType": "uint256",
              "name": "popGroMultiplier",
              "type": "uint256"
            },
            {
              "internalType": "uint256",
              "name": "rangeMultiplier",
              "type": "uint256"
            },
            {
              "internalType": "uint256",
              "name": "speedMultiplier",
              "type": "uint256"
            },
            {
              "internalType": "uint256",
              "name": "defMultiplier",
              "type": "uint256"
            }
          ],
          "internalType": "struct DarkForestTypes.Upgrade[4][3]",
          "name": "",
          "type": "tuple[4][3]"
        }
      ],
      "stateMutability": "view",
      "type": "function"
    },
    {
      "inputs": [
        {
          "components": [
            {
              "internalType": "address",
              "name": "adminAddress",
              "type": "address"
            },
            {
              "internalType": "bool",
              "name": "whitelistEnabled",
              "type": "bool"
            },
            {
              "internalType": "bool",
              "name": "paused",
              "type": "bool"
            },
            {
              "internalType": "bool",
              "name": "DISABLE_ZK_CHECK",
              "type": "bool"
            },
            {
              "internalType": "uint256",
              "name": "TIME_FACTOR_HUNDREDTHS",
              "type": "uint256"
            },
            {
              "internalType": "uint256",
              "name": "PERLIN_THRESHOLD_1",
              "type": "uint256"
            },
            {
              "internalType": "uint256",
              "name": "PERLIN_THRESHOLD_2",
              "type": "uint256"
            },
            {
              "internalType": "uint256",
              "name": "BIOME_THRESHOLD_1",
              "type": "uint256"
            },
            {
              "internalType": "uint256",
              "name": "BIOME_THRESHOLD_2",
              "type": "uint256"
            },
            {
              "internalType": "uint256",
              "name": "PLANET_RARITY",
              "type": "uint256"
            },
            {
              "internalType": "uint256",
              "name": "SILVER_RARITY_1",
              "type": "uint256"
            },
            {
              "internalType": "uint256",
              "name": "SILVER_RARITY_2",
              "type": "uint256"
            },
            {
              "internalType": "uint256",
              "name": "SILVER_RARITY_3",
              "type": "uint256"
            },
            {
              "internalType": "uint256[]",
              "name": "planetLevelThresholds",
              "type": "uint256[]"
            },
            {
              "internalType": "uint256",
              "name": "gameEndTimestamp",
              "type": "uint256"
            },
            {
              "internalType": "uint256",
              "name": "target4RadiusConstant",
              "type": "uint256"
            },
            {
              "internalType": "uint256",
              "name": "target5RadiusConstant",
              "type": "uint256"
            },
            {
              "internalType": "uint256",
              "name": "ARTIFACT_LOCKUP_DURATION_SECONDS",
              "type": "uint256"
            },
            {
              "internalType": "address",
              "name": "tokensAddress",
              "type": "address"
            }
          ],
          "internalType": "struct DarkForestTypes.DarkForestGameConfig",
          "name": "_gameConfig",
          "type": "tuple"
        }
      ],
      "name": "init",
      "outputs": [],
      "stateMutability": "nonpayable",
      "type": "function"
    },
    {
      "inputs": [
        {
          "internalType": "uint256[2]",
          "name": "_a",
          "type": "uint256[2]"
        },
        {
          "internalType": "uint256[2][2]",
          "name": "_b",
          "type": "uint256[2][2]"
        },
        {
          "internalType": "uint256[2]",
          "name": "_c",
          "type": "uint256[2]"
        },
        {
          "internalType": "uint256[3]",
          "name": "_input",
          "type": "uint256[3]"
        }
      ],
      "name": "initializePlayer",
      "outputs": [
        {
          "internalType": "uint256",
          "name": "",
          "type": "uint256"
        }
      ],
      "stateMutability": "nonpayable",
      "type": "function"
    },
    {
      "inputs": [
        {
          "internalType": "uint256",
          "name": "",
          "type": "uint256"
        }
      ],
      "name": "initializedPlanetCountByLevel",
      "outputs": [
        {
          "internalType": "uint256",
          "name": "",
          "type": "uint256"
        }
      ],
      "stateMutability": "view",
      "type": "function"
    },
    {
      "inputs": [
        {
          "internalType": "address",
          "name": "",
          "type": "address"
        }
      ],
      "name": "isPlayerInitialized",
      "outputs": [
        {
          "internalType": "bool",
          "name": "",
          "type": "bool"
        }
      ],
      "stateMutability": "view",
      "type": "function"
    },
    {
      "inputs": [
        {
          "internalType": "uint256[2]",
          "name": "_a",
          "type": "uint256[2]"
        },
        {
          "internalType": "uint256[2][2]",
          "name": "_b",
          "type": "uint256[2][2]"
        },
        {
          "internalType": "uint256[2]",
          "name": "_c",
          "type": "uint256[2]"
        },
        {
          "internalType": "uint256[7]",
          "name": "_input",
          "type": "uint256[7]"
        }
      ],
      "name": "move",
      "outputs": [
        {
          "internalType": "uint256",
          "name": "",
          "type": "uint256"
        }
      ],
      "stateMutability": "nonpayable",
      "type": "function"
    },
    {
      "inputs": [
        {
          "internalType": "address",
          "name": "",
          "type": "address"
        }
      ],
      "name": "moveCnt",
      "outputs": [
        {
          "internalType": "uint256",
          "name": "",
          "type": "uint256"
        }
      ],
      "stateMutability": "view",
      "type": "function"
    },
    {
      "inputs": [],
      "name": "pause",
      "outputs": [],
      "stateMutability": "nonpayable",
      "type": "function"
    },
    {
      "inputs": [],
      "name": "paused",
      "outputs": [
        {
          "internalType": "bool",
          "name": "",
          "type": "bool"
        }
      ],
      "stateMutability": "view",
      "type": "function"
    },
    {
      "inputs": [
        {
          "internalType": "uint256",
          "name": "",
          "type": "uint256"
        }
      ],
      "name": "planetArrivals",
      "outputs": [
        {
          "internalType": "uint256",
          "name": "id",
          "type": "uint256"
        },
        {
          "internalType": "address",
          "name": "player",
          "type": "address"
        },
        {
          "internalType": "uint256",
          "name": "fromPlanet",
          "type": "uint256"
        },
        {
          "internalType": "uint256",
          "name": "toPlanet",
          "type": "uint256"
        },
        {
          "internalType": "uint256",
          "name": "popArriving",
          "type": "uint256"
        },
        {
          "internalType": "uint256",
          "name": "silverMoved",
          "type": "uint256"
        },
        {
          "internalType": "uint256",
          "name": "departureTime",
          "type": "uint256"
        },
        {
          "internalType": "uint256",
          "name": "arrivalTime",
          "type": "uint256"
        }
      ],
      "stateMutability": "view",
      "type": "function"
    },
    {
      "inputs": [
        {
          "internalType": "uint256",
          "name": "",
          "type": "uint256"
        }
      ],
      "name": "planetDefaultStats",
      "outputs": [
        {
          "internalType": "string",
          "name": "label",
          "type": "string"
        },
        {
          "internalType": "uint256",
          "name": "populationCap",
          "type": "uint256"
        },
        {
          "internalType": "uint256",
          "name": "populationGrowth",
          "type": "uint256"
        },
        {
          "internalType": "uint256",
          "name": "range",
          "type": "uint256"
        },
        {
          "internalType": "uint256",
          "name": "speed",
          "type": "uint256"
        },
        {
          "internalType": "uint256",
          "name": "defense",
          "type": "uint256"
        },
        {
          "internalType": "uint256",
          "name": "silverGrowth",
          "type": "uint256"
        },
        {
          "internalType": "uint256",
          "name": "silverCap",
          "type": "uint256"
        },
        {
          "internalType": "uint256",
          "name": "barbarianPercentage",
          "type": "uint256"
        }
      ],
      "stateMutability": "view",
      "type": "function"
    },
    {
      "inputs": [
        {
          "internalType": "uint256",
          "name": "",
          "type": "uint256"
        },
        {
          "internalType": "uint256",
          "name": "",
          "type": "uint256"
        }
      ],
      "name": "planetEvents",
      "outputs": [
        {
          "internalType": "uint256",
          "name": "id",
          "type": "uint256"
        },
        {
          "internalType": "enum DarkForestTypes.PlanetEventType",
          "name": "eventType",
          "type": "uint8"
        },
        {
          "internalType": "uint256",
          "name": "timeTrigger",
          "type": "uint256"
        },
        {
          "internalType": "uint256",
          "name": "timeAdded",
          "type": "uint256"
        }
      ],
      "stateMutability": "view",
      "type": "function"
    },
    {
      "inputs": [],
      "name": "planetEventsCount",
      "outputs": [
        {
          "internalType": "uint256",
          "name": "",
          "type": "uint256"
        }
      ],
      "stateMutability": "view",
      "type": "function"
    },
    {
      "inputs": [
        {
          "internalType": "uint256",
          "name": "",
          "type": "uint256"
        }
      ],
      "name": "planetIds",
      "outputs": [
        {
          "internalType": "uint256",
          "name": "",
          "type": "uint256"
        }
      ],
      "stateMutability": "view",
      "type": "function"
    },
    {
      "inputs": [
        {
          "internalType": "uint256",
          "name": "",
          "type": "uint256"
        }
      ],
      "name": "planetLevelThresholds",
      "outputs": [
        {
          "internalType": "uint256",
          "name": "",
          "type": "uint256"
        }
      ],
      "stateMutability": "view",
      "type": "function"
    },
    {
      "inputs": [
        {
          "internalType": "uint256",
          "name": "",
          "type": "uint256"
        }
      ],
      "name": "planets",
      "outputs": [
        {
          "internalType": "address",
          "name": "owner",
          "type": "address"
        },
        {
          "internalType": "uint256",
          "name": "range",
          "type": "uint256"
        },
        {
          "internalType": "uint256",
          "name": "speed",
          "type": "uint256"
        },
        {
          "internalType": "uint256",
          "name": "defense",
          "type": "uint256"
        },
        {
          "internalType": "uint256",
          "name": "population",
          "type": "uint256"
        },
        {
          "internalType": "uint256",
          "name": "populationCap",
          "type": "uint256"
        },
        {
          "internalType": "uint256",
          "name": "populationGrowth",
          "type": "uint256"
        },
        {
          "internalType": "enum DarkForestTypes.PlanetResource",
          "name": "planetResource",
          "type": "uint8"
        },
        {
          "internalType": "uint256",
          "name": "silverCap",
          "type": "uint256"
        },
        {
          "internalType": "uint256",
          "name": "silverGrowth",
          "type": "uint256"
        },
        {
          "internalType": "uint256",
          "name": "silver",
          "type": "uint256"
        },
        {
          "internalType": "uint256",
          "name": "planetLevel",
          "type": "uint256"
        }
      ],
      "stateMutability": "view",
      "type": "function"
    },
    {
      "inputs": [
        {
          "internalType": "uint256",
          "name": "",
          "type": "uint256"
        }
      ],
      "name": "planetsExtendedInfo",
      "outputs": [
        {
          "internalType": "bool",
          "name": "isInitialized",
          "type": "bool"
        },
        {
          "internalType": "uint256",
          "name": "createdAt",
          "type": "uint256"
        },
        {
          "internalType": "uint256",
          "name": "lastUpdated",
          "type": "uint256"
        },
        {
          "internalType": "uint256",
          "name": "perlin",
          "type": "uint256"
        },
        {
          "internalType": "enum DarkForestTypes.SpaceType",
          "name": "spaceType",
          "type": "uint8"
        },
        {
          "internalType": "uint256",
          "name": "upgradeState0",
          "type": "uint256"
        },
        {
          "internalType": "uint256",
          "name": "upgradeState1",
          "type": "uint256"
        },
        {
          "internalType": "uint256",
          "name": "upgradeState2",
          "type": "uint256"
        },
        {
          "internalType": "uint256",
          "name": "hatLevel",
          "type": "uint256"
        },
        {
          "internalType": "bool",
          "name": "hasTriedFindingArtifact",
          "type": "bool"
        },
        {
          "internalType": "uint256",
          "name": "heldArtifactId",
          "type": "uint256"
        },
        {
          "internalType": "uint256",
          "name": "artifactLockedTimestamp",
          "type": "uint256"
        }
      ],
      "stateMutability": "view",
      "type": "function"
    },
    {
      "inputs": [
        {
          "internalType": "uint256",
          "name": "",
          "type": "uint256"
        }
      ],
      "name": "playerIds",
      "outputs": [
        {
          "internalType": "address",
          "name": "",
          "type": "address"
        }
      ],
      "stateMutability": "view",
      "type": "function"
    },
    {
      "inputs": [
        {
          "internalType": "uint256",
          "name": "_location",
          "type": "uint256"
        }
      ],
      "name": "refreshPlanet",
      "outputs": [],
      "stateMutability": "nonpayable",
      "type": "function"
    },
    {
      "inputs": [
        {
          "internalType": "uint256",
          "name": "_location",
          "type": "uint256"
        },
        {
          "internalType": "address",
          "name": "_player",
          "type": "address"
        }
      ],
      "name": "transferOwnership",
      "outputs": [],
      "stateMutability": "nonpayable",
      "type": "function"
    },
    {
      "inputs": [],
      "name": "unpause",
      "outputs": [],
      "stateMutability": "nonpayable",
      "type": "function"
    },
    {
      "inputs": [
        {
          "internalType": "uint256",
          "name": "_location",
          "type": "uint256"
        },
        {
          "internalType": "uint256",
          "name": "_branch",
          "type": "uint256"
        }
      ],
      "name": "upgradePlanet",
      "outputs": [
        {
          "internalType": "uint256",
          "name": "",
          "type": "uint256"
        },
        {
          "internalType": "uint256",
          "name": "",
          "type": "uint256"
        }
      ],
      "stateMutability": "nonpayable",
      "type": "function"
    },
    {
      "inputs": [
        {
          "internalType": "uint256",
          "name": "",
          "type": "uint256"
        },
        {
          "internalType": "uint256",
          "name": "",
          "type": "uint256"
        }
      ],
      "name": "upgrades",
      "outputs": [
        {
          "internalType": "uint256",
          "name": "popCapMultiplier",
          "type": "uint256"
        },
        {
          "internalType": "uint256",
          "name": "popGroMultiplier",
          "type": "uint256"
        },
        {
          "internalType": "uint256",
          "name": "rangeMultiplier",
          "type": "uint256"
        },
        {
          "internalType": "uint256",
          "name": "speedMultiplier",
          "type": "uint256"
        },
        {
          "internalType": "uint256",
          "name": "defMultiplier",
          "type": "uint256"
        }
      ],
      "stateMutability": "view",
      "type": "function"
    },
    {
      "inputs": [],
      "name": "withdraw",
      "outputs": [],
      "stateMutability": "nonpayable",
      "type": "function"
    },
    {
      "inputs": [
        {
          "internalType": "uint256",
          "name": "locationId",
          "type": "uint256"
        }
      ],
      "name": "withdrawArtifact",
      "outputs": [],
      "stateMutability": "nonpayable",
      "type": "function"
    },
    {
      "inputs": [],
      "name": "worldRadius",
      "outputs": [
        {
          "internalType": "uint256",
          "name": "",
          "type": "uint256"
        }
      ],
      "stateMutability": "view",
      "type": "function"
    }
  ],
  "bytecode": "0x60806040526064600255600e6003556011600455600f60055560116006556140006007556008805560086009556004600a5561a8c0600b5534801561004357600080fd5b50615f9180620000546000396000f3fe6080604052600436106103045760003560e01c806378d1742b1161019857806378d1742b1461075f57806378d4ce95146107745780638456cb59146107945780638a05b329146107a95780638af9d562146107be5780638f283970146107d35780639184f0b6146107f357806392d93a12146108135780639759d15f14610833578063975de6131461085357806397dbb6fa1461088057806398f94a8e146108955780639fd4d4d4146108b5578063aaca42e9146108c8578063ab230321146108e8578063ad48909114610918578063b5549e6414610938578063bb4908f21461096d578063c012b11214610982578063c4c3cfaa146109af578063c68b8126146109cf578063c8d503ea146109e4578063c935949114610a04578063ccf738e914610a35578063ce02f43b14610a6d578063d3acb0c314610a8d578063dacb613514610aa2578063de2edb9114610acf578063e654848a14610ae4578063e9fa11e114610b11578063f6e46b6014610b31578063f9231d9214610b46578063fc6f946814610b73578063fe80bb1214610b8857610304565b806304d74a391461030957806305b86be51461033f57806306fa84c6146103615780630767751a1461038357806308d2e95a146103a35780630ad98d41146103c55780630af80778146103e757806310d4abf2146104075780631e4abc3a146104275780631f2836b71461043c5780631f94f5401461045c578063221f77641461048957806326c1e750146104a957806329507f73146104e15780632f5714c714610501578063314d1ff7146105215780633ccfd60b146105415780633e35a5dd146105565780633f324cf3146105765780633f4ba83a146105965780633f9d7c49146105ab57806340a72788146105d85780634eb0e959146105f85780635c975abb1461060d5780636306a12214610622578063695bd00c1461064f5780636b2f112c146106715780636c7ffeec146106865780636df0a906146106b357806373a85381146106c857806374b99106146106f657806376af38b41461070b57806378622ae61461073f575b600080fd5b34801561031557600080fd5b50610329610324366004614b56565b610b9d565b6040516103369190615149565b60405180910390f35b34801561034b57600080fd5b50610354610d0f565b60405161033691906153b2565b34801561036d57600080fd5b5061038161037c366004614ad0565b610d68565b005b34801561038f57600080fd5b5061038161039e366004614ad0565b610eeb565b3480156103af57600080fd5b506103b8610f28565b604051610336919061508d565b3480156103d157600080fd5b506103da6110bf565b6040516103369190614d9b565b3480156103f357600080fd5b506103da6104023660046146db565b6110c5565b34801561041357600080fd5b506103da610422366004614ad0565b6114a9565b34801561043357600080fd5b506103da6114c7565b34801561044857600080fd5b506103da610457366004614ad0565b6114cd565b34801561046857600080fd5b5061047c610477366004614ad0565b6114da565b6040516103369190615405565b34801561049557600080fd5b506103da6104a4366004614ad0565b611560565b3480156104b557600080fd5b506104c96104c4366004614ad0565b61156d565b6040516103369c9b9a99989796959493929190614de7565b3480156104ed57600080fd5b506103816104fc366004614b00565b6115da565b34801561050d57600080fd5b5061038161051c366004614924565b61173c565b34801561052d57600080fd5b5061035461053c3660046145a3565b611a45565b34801561054d57600080fd5b50610381611aca565b34801561056257600080fd5b506103da6105713660046145a3565b611b26565b34801561058257600080fd5b50610381610591366004614ad0565b611b38565b3480156105a257600080fd5b50610381611bd8565b3480156105b757600080fd5b506105cb6105c636600461476d565b611c40565b6040516103369190614eab565b3480156105e457600080fd5b506105cb6105f3366004614b56565b611cdd565b34801561060457600080fd5b506103da611d7a565b34801561061957600080fd5b5061047c611d80565b34801561062e57600080fd5b5061064261063d36600461476d565b611d90565b6040516103369190614fc0565b34801561065b57600080fd5b506106646120d2565b6040516103369190614f0b565b34801561067d57600080fd5b506103da612182565b34801561069257600080fd5b506106a66106a1366004614b56565b612188565b6040516103369190614e5e565b3480156106bf57600080fd5b506103da612232565b3480156106d457600080fd5b506106e86106e3366004614b56565b612238565b604051610336929190615dff565b34801561070257600080fd5b506103da612324565b34801561071757600080fd5b5061072b610726366004614ad0565b61232a565b604051610336989796959493929190615d71565b34801561074b57600080fd5b5061032961075a36600461476d565b612377565b34801561076b57600080fd5b506103546124da565b34801561078057600080fd5b506103da61078f36600461463b565b612530565b3480156107a057600080fd5b506103816127a6565b3480156107b557600080fd5b506103da612815565b3480156107ca57600080fd5b5061047c61281b565b3480156107df57600080fd5b506103816107ee3660046145a3565b61282b565b3480156107ff57600080fd5b5061047c61080e3660046145a3565b6128ab565b34801561081f57600080fd5b5061038161082e366004614b56565b6128c0565b34801561083f57600080fd5b5061038161084e3660046145e2565b612ae3565b34801561085f57600080fd5b5061087361086e366004614b56565b612f2b565b6040516103369190615210565b34801561088c57600080fd5b506103da6130a3565b3480156108a157600080fd5b506108736108b036600461476d565b6130a9565b6103816108c3366004614ad0565b613219565b3480156108d457600080fd5b506103546108e3366004614b56565b61330f565b3480156108f457600080fd5b50610908610903366004614b56565b613399565b6040516103369493929190615db0565b34801561092457600080fd5b506103da610933366004614ad0565b6133df565b34801561094457600080fd5b50610958610953366004614ad0565b6133ec565b6040516103369998979695949392919061550c565b34801561097957600080fd5b506103da6134cc565b34801561098e57600080fd5b506109a261099d366004614ad0565b6134d2565b6040516103369190614dba565b3480156109bb57600080fd5b506103da6109ca366004614ad0565b6134f9565b3480156109db57600080fd5b506103da61350b565b3480156109f057600080fd5b5061047c6109ff366004614ad0565b613511565b348015610a1057600080fd5b50610a24610a1f366004614b56565b613547565b604051610336959493929190615ddc565b348015610a4157600080fd5b50610a55610a50366004614ad0565b613589565b6040516103369c9b9a99989796959493929190615410565b348015610a7957600080fd5b50610381610a88366004614ad0565b6135f1565b348015610a9957600080fd5b506103da613626565b348015610aae57600080fd5b50610ac2610abd366004614ad0565b61362c565b6040516103369190614f6a565b348015610adb57600080fd5b506103da613811565b348015610af057600080fd5b50610b04610aff36600461476d565b613817565b6040516103369190614f7d565b348015610b1d57600080fd5b506103da610b2c3660046145a3565b613a82565b348015610b3d57600080fd5b506103da613a9d565b348015610b5257600080fd5b50610b66610b61366004614ad0565b613aa3565b6040516103369190615c70565b348015610b7f57600080fd5b506109a2613c8d565b348015610b9457600080fd5b506103da613ca2565b60608282036001600160401b0381118015610bb757600080fd5b50604051908082528060200260200182016040528015610bf157816020015b610bde61409a565b815260200190600190039081610bd65790505b509050825b82811015610d08576055600060508381548110610c0f57fe5b90600052602060002001548152602001908152602001600020604051806101800160405290816000820160009054906101000a900460ff161515151581526020016001820154815260200160028201548152602001600382015481526020016004820160009054906101000a900460ff166002811115610c8b57fe5b6002811115610c9657fe5b815260058201546020820152600682015460408201526007820154606082015260088201546080820152600982015460ff16151560a0820152600a82015460c0820152600b9091015460e09091015282518390868403908110610cf557fe5b6020908102919091010152600101610bf6565b5092915050565b6060600c805480602002602001604051908101604052809291908181526020018280548015610d5d57602002820191906000526020600020905b815481526020019060010190808311610d49575b505050505090505b90565b600154600160a01b900460ff1615610d9b5760405162461bcd60e51b8152600401610d9290615a8c565b60405180910390fd5b610da481611b38565b60008181526054602090815260408083206055909252909120600a81015482546001600160a01b03163314610deb5760405162461bcd60e51b8152600401610d92906157ee565b80610e085760405162461bcd60e51b8152600401610d9290615a02565b600b5482600b0154014211610e2f5760405162461bcd60e51b8152600401610d92906155c7565b6001546040516291d47560e31b815273__$f91f8136ead5b3d50c91f0037df53ed68a$__9163048ea3a891610e79916001600160a01b03169030908890889060589060040161547f565b60006040518083038186803b158015610e9157600080fd5b505af4158015610ea5573d6000803e3d6000fd5b505050507fddc1c4f50c95d59676181cc235531a664d4d990a0d585408c1fb89bacca2fbc4843383604051610edc93929190615cfb565b60405180910390a15050505b50565b6000546201000090046001600160a01b03163314610f1b5760405162461bcd60e51b8152600401610d9290615c30565b604e819055610ee8613ca8565b600c5460609081906001600160401b0381118015610f4557600080fd5b50604051908082528060200260200182016040528015610f7f57816020015b610f6c61410a565b815260200190600190039081610f645790505b50905060005b600c548110156110b957600f8181548110610f9c57fe5b600091825260209182902060408051600993909302909101805460026001821615610100026000190190911604601f810185900490940283016101409081019092526101208301848152929390928492909184918401828280156110415780601f1061101657610100808354040283529160200191611041565b820191906000526020600020905b81548152906001019060200180831161102457829003601f168201915b50505050508152602001600182015481526020016002820154815260200160038201548152602001600482015481526020016005820154815260200160068201548152602001600782015481526020016008820154815250508282815181106110a657fe5b6020908102919091010152600101610f85565b50905090565b60085481565b600154600090600160a01b900460ff16156110f25760405162461bcd60e51b8152600401610d9290615a8c565b8151602083015160408401516060850151608086015160a087015160c0880151600154600160a81b900460ff166111ff5761112b614156565b6040518060a0016040528089815260200188815260200187815260200186815260200185815250905073__$6b78ae7bf09e0e72535be6401663f3a543$__63275abc628e8e8e856040518563ffffffff1660e01b81526004016111919493929190615361565b60206040518083038186803b1580156111a957600080fd5b505af41580156111bd573d6000803e3d6000fd5b505050506040513d601f19601f820116820180604052508101906111e1919061486a565b6111fd5760405162461bcd60e51b8152600401610d929061597f565b505b6052548411156112215760405162461bcd60e51b8152600401610d9290615b22565b60008681526055602052604090205460ff166112485761124386866000613d40565b6113a6565b61125186611b38565b600080805b60008981526059602052604090205460ff82161015611338576000898152605960205260408120805460ff841690811061128c57fe5b600091825260209091206001600490920201015460ff1680156112ab57fe5b1415611330576000898152605460209081526040808320546059909252822080546001600160a01b0390921692605a9290919060ff86169081106112eb57fe5b6000918252602080832060049092029091015483528201929092526040019020600101546001600160a01b0316141561132957600190920191611330565b6001909101905b600101611256565b506000888152605460205260409020546001600160a01b03163314156113805760068260ff161061137b5760405162461bcd60e51b8152600401610d92906158ab565b6113a3565b60068160ff16106113a35760405162461bcd60e51b8152600401610d92906158ab565b50505b6113af87611b38565b33600090815260576020526040908190208054600101905560535490516306e5297d60e31b815273__$f91f8136ead5b3d50c91f0037df53ed68a$__916337294be891611414918b918b91899189918991605490605590605990605a90600401615e65565b60006040518083038186803b15801561142c57600080fd5b505af4158015611440573d6000803e3d6000fd5b5050605380546001019055506114569050613ca8565b7f73589d8f04c4286010ba8cbf687f804de4f668cb96b2d8c73f310ceb90a48fc060016053540360405161148a9190614d9b565b60405180910390a15050605354600019019a9950505050505050505050565b600d81815481106114b657fe5b600091825260209091200154905081565b60095481565b600e81815481106114b657fe5b600154604051627e53d560e61b81526000916001600160a01b031690631f94f5409061150a908590600401614d9b565b60206040518083038186803b15801561152257600080fd5b505afa158015611536573d6000803e3d6000fd5b505050506040513d601f19601f8201168201806040525081019061155a919061486a565b92915050565b600c81815481106114b657fe5b605460205260009081526040902080546001820154600283015460038401546004850154600586015460068701546007880154600889015460098a0154600a8b0154600b909b01546001600160a01b03909a169a98999798969795969495939460ff90931693919290918c565b600154600160a01b900460ff16156116045760405162461bcd60e51b8152600401610d9290615a8c565b60008281526055602052604090205460ff1615156001146116375760405162461bcd60e51b8152600401610d92906158d1565b61164082611b38565b6000828152605460205260409020546001600160a01b031633146116765760405162461bcd60e51b8152600401610d929061576e565b6001600160a01b03811633141561169f5760405162461bcd60e51b8152600401610d9290615948565b6001600160a01b03811660009081526056602052604090205460ff166116d75760405162461bcd60e51b8152600401610d92906159b0565b6000828152605460205260409081902080546001600160a01b0319166001600160a01b038416179055517f0d6a4b16d4e1aee360d85f68ad11dd1fce957650322a72303f9d3f709aedc65f906117309084908490615ce4565b60405180910390a15050565b600054610100900460ff16806117555750611755613f49565b80611763575060005460ff16155b61177f5760405162461bcd60e51b8152600401610d92906158fa565b600054610100900460ff161580156117aa576000805460ff1961ff0019909116610100171660011790555b8151600080546001600160a01b03909216620100000262010000600160b01b031990921691909117905560408201516001805460608501511515600160a81b0260ff60a81b19931515600160a01b0260ff60a01b199092169190911792909216919091179055608082015160025560a082015160035560c0820151600455610120820151600755610140820151600855610160820151600955610180820151600a556101a0820151805161186691600c91602090910190614174565b506101c0820151604d819055604c556101e0820151604e55610200820151604f55610240820151600180546001600160a01b0319166001600160a01b03909216919091179055604051635dfd086d60e01b815273__$5ae0c2211b657f8a7ca51e0b14f2a8333d$__90635dfd086d906118e490600f90600401614d9b565b60006040518083038186803b1580156118fc57600080fd5b505af4158015611910573d6000803e3d6000fd5b505060405163e771ed6b60e01b815273__$5ae0c2211b657f8a7ca51e0b14f2a8333d$__925063e771ed6b915061194c90601090600401614d9b565b60006040518083038186803b15801561196457600080fd5b505af4158015611978573d6000803e3d6000fd5b50506040805161010081018252600080825260208201819052918101829052606081018290526080810182905260a0810182905260c0810182905260e08101919091526119cb9250600e915060086141bf565b5060005b600c54811015611a2657600d600754600c83815481106119eb57fe5b9060005260206000200154630100000081611a0257fe5b835460018181018655600095865260209095209290910492909202910155016119cf565b50611a2f613ca8565b8015611a41576000805461ff00191690555b5050565b60015460405163314d1ff760e01b81526060916001600160a01b03169063314d1ff790611a76908590600401614dba565b60006040518083038186803b158015611a8e57600080fd5b505afa158015611aa2573d6000803e3d6000fd5b505050506040513d6000823e601f3d908101601f1916820160405261155a91908101906147d8565b6000546201000090046001600160a01b03163314611afa5760405162461bcd60e51b8152600401610d9290615c30565b60405133904780156108fc02916000818181858888f19350505050158015610ee8573d6000803e3d6000fd5b60576020526000908152604090205481565b600154600160a01b900460ff1615611b625760405162461bcd60e51b8152600401610d9290615a8c565b60405163180287b760e01b815273__$f91f8136ead5b3d50c91f0037df53ed68a$__9063180287b790611ba5908490605490605590605990605a90600401615ddc565b60006040518083038186803b158015611bbd57600080fd5b505af4158015611bd1573d6000803e3d6000fd5b5050505050565b6000546201000090046001600160a01b03163314611c085760405162461bcd60e51b8152600401610d9290615c30565b600154600160a01b900460ff16611c315760405162461bcd60e51b8152600401610d9290615b7b565b6001805460ff60a01b19169055565b606080826001600160401b0381118015611c5957600080fd5b50604051908082528060200260200182016040528015611c8d57816020015b6060815260200190600190039081611c785790505b50905060005b83811015611cd557611cb6858583818110611caa57fe5b9050602002013561362c565b828281518110611cc257fe5b6020908102919091010152600101611c93565b509392505050565b6060808383036001600160401b0381118015611cf857600080fd5b50604051908082528060200260200182016040528015611d2c57816020015b6060815260200190600190039081611d175790505b509050835b83811015611cd557611d5960508281548110611d4957fe5b906000526020600020015461362c565b8286830381518110611d6757fe5b6020908102919091010152600101611d31565b60525481565b600154600160a01b900460ff1681565b6060816001600160401b0381118015611da857600080fd5b50604051908082528060200260200182016040528015611de257816020015b611dcf6141ff565b815260200190600190039081611dc75790505b50905060005b82811015610d0857611df8614272565b605a6000868685818110611e0857fe5b602090810292909201358352508181019290925260409081016000208151610100810183528154815260018201546001600160a01b0316938101939093526002810154918301919091526003810154606083015260048101546080830152600581015460a0830152600681015460c08301526007015460e08201529050611e8d6142c0565b6040808301516000908152605460209081529082902082516101808101845281546001600160a01b03168152600180830154938201939093526002820154938101939093526003810154606084015260048101546080840152600581015460a0840152600681015460c08401526007810154909160e084019160ff1690811115611f1357fe5b6001811115611f1e57fe5b81526020016008820154815260200160098201548152602001600a8201548152602001600b820154815250509050611f546142c0565b60608084015160009081526054602090815260409182902082516101808101845281546001600160a01b031681526001808301549382019390935260028201549381019390935260038101549383019390935260048301546080830152600583015460a0830152600683015460c0830152600783015491929160e084019160ff90911690811115611fe157fe5b6001811115611fec57fe5b81526020016008820154815260200160098201548152602001600a8201548152602001600b820154815250509050604051806101800160405280846080015181526020018460a0015181526020018460c0015181526020018460e0015181526020018460400151815260200183600001516001600160a01b031681526020018360800151815260200183610140015181526020018460600151815260200182600001516001600160a01b03168152602001826080015181526020018261014001518152508585815181106120bc57fe5b6020908102919091010152505050600101611de8565b6120da614335565b6040805160608101909152601060036000835b8282101561217957604080516080810190915260148302850160046000835b82821015612166578382600502016040518060a0016040529081600082015481526020016001820154815260200160028201548152602001600382015481526020016004820154815250508152602001906001019061210c565b50505050815260200190600101906120ed565b50505050905090565b600b5481565b60608282036001600160401b03811180156121a257600080fd5b506040519080825280602002602001820160405280156121cc578160200160208202803683370190505b509050825b82811015610d0857605181815481106121e657fe5b9060005260206000200160009054906101000a90046001600160a01b0316828583038151811061221257fe5b6001600160a01b03909216602092830291909101909101526001016121d1565b60045481565b6001546000908190600160a01b900460ff16156122675760405162461bcd60e51b8152600401610d9290615a8c565b61227084611b38565b604051633097022560e21b815273__$f91f8136ead5b3d50c91f0037df53ed68a$__9063c25c0894906122b59087908790605490605590600f90601090600401615e0d565b60006040518083038186803b1580156122cd57600080fd5b505af41580156122e1573d6000803e3d6000fd5b505050507f1c3559377dd1e586346f593aa9785e8eea8298f2d2ce1c2ef50428563d8ba84c846040516123149190614d9b565b60405180910390a1509192909150565b600a5481565b605a602052600090815260409020805460018201546002830154600384015460048501546005860154600687015460079097015495966001600160a01b0390951695939492939192909188565b6060816001600160401b038111801561238f57600080fd5b506040519080825280602002602001820160405280156123c957816020015b6123b661409a565b8152602001906001900390816123ae5790505b50905060005b82811015610d0857605560008585848181106123e757fe5b905060200201358152602001908152602001600020604051806101800160405290816000820160009054906101000a900460ff161515151581526020016001820154815260200160028201548152602001600382015481526020016004820160009054906101000a900460ff16600281111561245f57fe5b600281111561246a57fe5b815260058201546020820152600682015460408201526007820154606082015260088201546080820152600982015460ff16151560a0820152600a82015460c0820152600b9091015460e09091015282518390839081106124c757fe5b60209081029190910101526001016123cf565b6060600d805480602002602001604051908101604052809291908181526020018280548015610d5d5760200282019190600052602060002090815481526020019060010190808311610d49575050505050905090565b600154600090600160a01b900460ff161561255d5760405162461bcd60e51b8152600401610d9290615a8c565b600154600160a81b900460ff16612617576040516323bfe25560e21b815273__$6b78ae7bf09e0e72535be6401663f3a543$__90638eff8954906125ab908890889088908890600401615304565b60206040518083038186803b1580156125c357600080fd5b505af41580156125d7573d6000803e3d6000fd5b505050506040513d601f19601f820116820180604052508101906125fb919061486a565b6126175760405162461bcd60e51b8152600401610d929061587a565b81516020830151604080850151605254600354925163c519ebff60e01b8152919273__$f91f8136ead5b3d50c91f0037df53ed68a$__9263c519ebff9261266e928892889288926056926055929190600401615e35565b60206040518083038186803b15801561268657600080fd5b505af415801561269a573d6000803e3d6000fd5b505050506040513d601f19601f820116820180604052508101906126be919061486a565b6126c757600080fd5b336000818152605660205260408120805460ff1916600190811790915560518054808301825592527f994a4b4eddb300691ee19901712848b1114bad8a1a4ae195e5abe0ec38021b9490910180546001600160a01b0319169092179091556127329084908490613d40565b600083815260546020526040902080546001600160a01b0319163317815561c350600490910155612761613ca8565b7f5765df5ce7cf4175ef997923b4936159dcf3cea059434dab4643214d690a2b953384604051612792929190614dce565b60405180910390a150909695505050505050565b6000546201000090046001600160a01b031633146127d65760405162461bcd60e51b8152600401610d9290615c30565b600154600160a01b900460ff16156128005760405162461bcd60e51b8152600401610d9290615bad565b6001805460ff60a01b1916600160a01b179055565b60515490565b600154600160a81b900460ff1681565b6000546201000090046001600160a01b0316331461285b5760405162461bcd60e51b8152600401610d9290615c30565b6001600160a01b0381166128815760405162461bcd60e51b8152600401610d9290615597565b600080546001600160a01b03909216620100000262010000600160b01b0319909216919091179055565b60566020526000908152604090205460ff1681565b600154600160a01b900460ff16156128ea5760405162461bcd60e51b8152600401610d9290615a8c565b6128f382611b38565b600082815260546020908152604080832060559092529182902060015492516331a9108f60e11b81529192909133916001600160a01b031690636352211e90612940908790600401614d9b565b60206040518083038186803b15801561295857600080fd5b505afa15801561296c573d6000803e3d6000fd5b505050506040513d601f19601f8201168201806040525081019061299091906145c6565b6001600160a01b0316146129b65760405162461bcd60e51b8152600401610d929061569d565b81546001600160a01b031633146129df5760405162461bcd60e51b8152600401610d9290615a44565b600a81015415612a015760405162461bcd60e51b8152600401610d9290615560565b6000600783015460ff166001811115612a1657fe5b14612a335760405162461bcd60e51b8152600401610d9290615729565b60015460405163911617cf60e01b815273__$f91f8136ead5b3d50c91f0037df53ed68a$__9163911617cf91612a80916001600160a01b03169087908990889088906058906004016154b0565b60006040518083038186803b158015612a9857600080fd5b505af4158015612aac573d6000803e3d6000fd5b505050507ff508c790301e4d7e4823721c6d7ad5d6cdfd3f3e84d27ad5c2793ec9fe4951e3843385604051610edc93929190615cfb565b600154600160a01b900460ff1615612b0d5760405162461bcd60e51b8152600401610d9290615a8c565b604c544210612b2e5760405162461bcd60e51b8152600401610d9290615bdd565b80516020820151612b3e82611b38565b60008281526054602090815260408083206055909252808320600480820154600554600654945163953e393760e01b815295969395939473__$773590d194ef7af6149f5cd9ccb8db3ce0$__9463953e393794612ba59460ff16938b9390929091016154e3565b60206040518083038186803b158015612bbd57600080fd5b505af4158015612bd1573d6000803e3d6000fd5b505050506040513d601f19601f82011682018060405250810190612bf59190614886565b600154909150600160a81b900460ff16612cb257604051631b210ed160e31b815273__$6b78ae7bf09e0e72535be6401663f3a543$__9063d908768890612c46908c908c908c908c906004016152cd565b60206040518083038186803b158015612c5e57600080fd5b505af4158015612c72573d6000803e3d6000fd5b505050506040513d601f19601f82011682018060405250810190612c96919061486a565b612cb25760405162461bcd60e51b8152600401610d92906156e3565b612cc08584600b0154613f5a565b612cdc5760405162461bcd60e51b8152600401610d92906157a5565b600982015460ff1615612d015760405162461bcd60e51b8152600401610d9290615b49565b82546001600160a01b03163314612d2a5760405162461bcd60e51b8152600401610d929061560c565b605f8360050154846004015460640281612d4057fe5b0411612d5e5760405162461bcd60e51b8152600401610d929061565a565b6000600784015460ff166001811115612d7357fe5b14612d905760405162461bcd60e51b8152600401610d9290615ab4565b60098201805460ff19166001179055605354600090612db190879042613faa565b9050600080612dbf83613fe1565b91509150612dcb614362565b600154600b880154604051631401ad8960e01b81526001600160a01b0390921691631401ad8991612e0b91889133918f919089908d908c90600401615d1a565b60e060405180830381600087803b158015612e2557600080fd5b505af1158015612e39573d6000803e3d6000fd5b505050506040513d601f19601f82011682018060405250810190612e5d91906148a5565b600154815160405163911617cf60e01b815292935073__$f91f8136ead5b3d50c91f0037df53ed68a$__9263911617cf92612eaf926001600160a01b03909116918e908d908d906058906004016154b0565b60006040518083038186803b158015612ec757600080fd5b505af4158015612edb573d6000803e3d6000fd5b505082516040517fb882fef472efbe5eeca4c6dd514ead8a562083960308e38711de10161c66cad49350612f1392508c913391615cfb565b60405180910390a15050505050505050505b50505050565b60608282036001600160401b0381118015612f4557600080fd5b50604051908082528060200260200182016040528015612f7f57816020015b612f6c6142c0565b815260200190600190039081612f645790505b509050825b82811015610d08576054600060508381548110612f9d57fe5b90600052602060002001548152602001908152602001600020604051806101800160405290816000820160009054906101000a90046001600160a01b03166001600160a01b03166001600160a01b031681526020016001820154815260200160028201548152602001600382015481526020016004820154815260200160058201548152602001600682015481526020016007820160009054906101000a900460ff16600181111561304b57fe5b600181111561305657fe5b81526020016008820154815260200160098201548152602001600a8201548152602001600b82015481525050828583038151811061309057fe5b6020908102919091010152600101612f84565b60065481565b6060816001600160401b03811180156130c157600080fd5b506040519080825280602002602001820160405280156130fb57816020015b6130e86142c0565b8152602001906001900390816130e05790505b50905060005b82811015610d08576054600085858481811061311957fe5b905060200201358152602001908152602001600020604051806101800160405290816000820160009054906101000a90046001600160a01b03166001600160a01b03166001600160a01b031681526020016001820154815260200160028201548152602001600382015481526020016004820154815260200160058201548152602001600682015481526020016007820160009054906101000a900460ff1660018111156131c357fe5b60018111156131ce57fe5b81526020016008820154815260200160098201548152602001600a8201548152602001600b8201548152505082828151811061320657fe5b6020908102919091010152600101613101565b60008181526055602052604090205460ff16151560011461324c5760405162461bcd60e51b8152600401610d92906158d1565b61325581611b38565b6000818152605460205260409020546001600160a01b0316331461328b5760405162461bcd60e51b8152600401610d9290615839565b60008181526055602052604090206008015466038d7ea4c68000901b348111156132c75760405162461bcd60e51b8152600401610d9290615af6565b6000828152605560205260409081902060080180546001019055517f444d0a208ac492e147b2e0e5ffeeb6e6be2c122d95f3da8f45e26868785c84eb90611730908490614d9b565b60608282036001600160401b038111801561332957600080fd5b50604051908082528060200260200182016040528015613353578160200160208202803683370190505b509050825b82811015610d08576050818154811061336d57fe5b9060005260206000200154828583038151811061338657fe5b6020908102919091010152600101613358565b605960205281600052604060002081815481106133b257fe5b6000918252602090912060049091020180546001820154600283015460039093015491945060ff16925084565b605081815481106114b657fe5b600f81815481106133f957fe5b60009182526020918290206009919091020180546040805160026001841615610100026000190190931692909204601f8101859004850283018501909152808252919350918391908301828280156134925780601f1061346757610100808354040283529160200191613492565b820191906000526020600020905b81548152906001019060200180831161347557829003601f168201915b5050505050908060010154908060020154908060030154908060040154908060050154908060060154908060070154908060080154905089565b60535481565b605181815481106134df57fe5b6000918252602090912001546001600160a01b0316905081565b60586020526000908152604090205481565b60505490565b60006007547f30644e72e131a029b85045b68181585d2833e84879b9709143e1f593f00000018161353e57fe5b04909110919050565b6010826003811061355457fe5b60140201816004811061356357fe5b600502018054600182015460028301546003840154600490940154929550909350919085565b605560205260009081526040902080546001820154600283015460038401546004850154600586015460068701546007880154600889015460098a0154600a8b0154600b909b015460ff9a8b169b999a9899979896871697959694959394929391909216918c565b6000546201000090046001600160a01b031633146136215760405162461bcd60e51b8152600401610d9290615c30565b604c55565b60055481565b60606000805b60008481526059602052604090205481101561369657600084815260596020526040812080548390811061366257fe5b600091825260209091206001600490920201015460ff16801561368157fe5b141561368e576001820191505b600101613632565b50806001600160401b03811180156136ad57600080fd5b506040519080825280602002602001820160405280156136e757816020015b6136d4614272565b8152602001906001900390816136cc5790505b5091506000805b60008581526059602052604090205481101561380957600085815260596020526040812080548390811061371e57fe5b600091825260209091206001600490920201015460ff16801561373d57fe5b14156138015760008581526059602052604081208054605a9291908490811061376257fe5b600091825260208083206004928302015484528381019490945260409283019091208251610100810184528154815260018201546001600160a01b031694810194909452600281015492840192909252600382015460608401528101546080830152600581015460a0830152600681015460c08301526007015460e082015284518590849081106137ef57fe5b60209081029190910101526001909101905b6001016136ee565b505050919050565b60075481565b6060816001600160401b038111801561382f57600080fd5b5060405190808252806020026020018201604052801561386957816020015b6138566143aa565b81526020019060019003908161384e5790505b50905060005b82811015610d085761387f614362565b6001546001600160a01b0316638465ad4486868581811061389c57fe5b905060200201356040518263ffffffff1660e01b81526004016138bf9190614d9b565b60e06040518083038186803b1580156138d757600080fd5b505afa1580156138eb573d6000803e3d6000fd5b505050506040513d601f19601f8201168201806040525081019061390f91906148a5565b90506139196143de565b604051632e3b657160e21b815273__$773590d194ef7af6149f5cd9ccb8db3ce0$__9063b8ed95c490613950908590600401615c7f565b60a06040518083038186803b15801561396857600080fd5b505af415801561397c573d6000803e3d6000fd5b505050506040513d601f19601f820116820180604052508101906139a09190614a7f565b6040805160808101825284815260208101839052600154855183516331a9108f60e11b81529495509193928401926001600160a01b0390911691636352211e916139ed9190600401614d9b565b60206040518083038186803b158015613a0557600080fd5b505afa158015613a19573d6000803e3d6000fd5b505050506040513d601f19601f82011682018060405250810190613a3d91906145c6565b6001600160a01b0316815283516000908152605860209081526040909120549101528451859085908110613a6d57fe5b6020908102919091010152505060010161386f565b6001600160a01b031660009081526057602052604090205490565b60025481565b613aab6143aa565b613ab3614362565b6001546040516321196b5160e21b81526001600160a01b0390911690638465ad4490613ae3908690600401614d9b565b60e06040518083038186803b158015613afb57600080fd5b505afa158015613b0f573d6000803e3d6000fd5b505050506040513d601f19601f82011682018060405250810190613b3391906148a5565b9050613b3d6143de565b604051632e3b657160e21b815273__$773590d194ef7af6149f5cd9ccb8db3ce0$__9063b8ed95c490613b74908590600401615c7f565b60a06040518083038186803b158015613b8c57600080fd5b505af4158015613ba0573d6000803e3d6000fd5b505050506040513d601f19601f82011682018060405250810190613bc49190614a7f565b6040805160808101825284815260208101839052600154855183516331a9108f60e11b81529495509193928401926001600160a01b0390911691636352211e91613c119190600401614d9b565b60206040518083038186803b158015613c2957600080fd5b505afa158015613c3d573d6000803e3d6000fd5b505050506040513d601f19601f82011682018060405250810190613c6191906145c6565b6001600160a01b0316815292516000908152605860209081526040909120549301929092525092915050565b6000546201000090046001600160a01b031681565b60035481565b605154604e5460405163044424cf60e41b815273__$773590d194ef7af6149f5cd9ccb8db3ce0$__926344424cf092613ceb92600e92600d9290916004016153ea565b60206040518083038186803b158015613d0357600080fd5b505af4158015613d17573d6000803e3d6000fd5b505050506040513d601f19601f82011682018060405250810190613d3b9190614ae8565b605255565b613d4983613511565b613d655760405162461bcd60e51b8152600401610d9290615c4f565b60008073__$773590d194ef7af6149f5cd9ccb8db3ce0$__6339818ecc8686600354600454600854600954600a54600c600f6040518a63ffffffff1660e01b8152600401613dbb99989796959493929190615eaa565b604080518083038186803b158015613dd257600080fd5b505af4158015613de6573d6000803e3d6000fd5b505050506040513d601f19601f82011682018060405250810190613e0a9190614b2f565b915091508215613e32578115613e325760405162461bcd60e51b8152600401610d9290615c0c565b60008581526054602090815260408083206055909252909120600f805473__$f91f8136ead5b3d50c91f0037df53ed68a$__93639414ee04939092909187908110613e7957fe5b906000526020600020906009020188600254600354600454898b8f6040518b63ffffffff1660e01b8152600401613eb99a99989796959493929190615c8d565b60006040518083038186803b158015613ed157600080fd5b505af4158015613ee5573d6000803e3d6000fd5b505060508054600181810183556000929092527f5529612556959ef813dbe8d0ed29336ab75e80a9b7855030760b2917b01e568a01889055600e8054919350915084908110613f3057fe5b6000918252602090912001805490910190555050505050565b6000613f5430614060565b15905090565b6000606083604051602001613f6f9190614d9b565b60405160208183030381529060405290506000613f8e82600e80614066565b9050601081108015613fa1575060018410155b95945050505050565b6000838284604051602001613fc193929190614da4565b60408051601f198184030181529190528051602090910120949350505050565b60008060ff8084069061010082860304066004604083101561400557506001614023565b608083101561401657506002614023565b60c0831015614023575060035b6000600483101561403657506003614054565b601083101561404757506002614054565b6040831015614054575060015b90945092505050915091565b3b151590565b6000825b828111611cd5578083036101000a85828151811061408457fe5b016020015160f81c02919091019060010161406a565b604051806101800160405280600015158152602001600081526020016000815260200160008152602001600060028111156140d157fe5b81526020016000815260200160008152602001600081526020016000815260200160001515815260200160008152602001600081525090565b6040518061012001604052806060815260200160008152602001600081526020016000815260200160008152602001600081526020016000815260200160008152602001600081525090565b6040518060a001604052806005906020820280368337509192915050565b8280548282559060005260206000209081019282156141af579160200282015b828111156141af578251825591602001919060010190614194565b506141bb92915061440d565b5090565b8280548282559060005260206000209081019282156141af579160200282015b828111156141af578251829060ff169055916020019190600101906141df565b604051806101800160405280600081526020016000815260200160008152602001600081526020016000815260200160006001600160a01b0316815260200160008152602001600081526020016000815260200160006001600160a01b0316815260200160008152602001600081525090565b6040518061010001604052806000815260200160006001600160a01b031681526020016000815260200160008152602001600081526020016000815260200160008152602001600081525090565b60405180610180016040528060006001600160a01b031681526020016000815260200160008152602001600081526020016000815260200160008152602001600081526020016000600181111561431357fe5b8152602001600081526020016000815260200160008152602001600081525090565b60405180606001604052806003905b61434c614427565b8152602001906001900390816143445790505090565b6040518060e001604052806000815260200160008152602001600081526020016000600981111561438f57fe5b81526000602082018190526040820181905260609091015290565b60405180608001604052806143bd614362565b81526020016143ca6143de565b815260006020820181905260409091015290565b6040518060a0016040528060008152602001600081526020016000815260200160008152602001600081525090565b610d6591905b808211156141bb5760008155600101614413565b60405180608001604052806004905b61443e6143de565b8152602001906001900390816144365790505090565b803561155a81615f38565b600082601f83011261446f578081fd5b604061447a81615ee9565b915081838560808601111561448e57600080fd5b60005b60028110156144b8576144a487836144c2565b835260209092019190830190600101614491565b5050505092915050565b600082601f8301126144d2578081fd5b6144dc6040615ee9565b90508082846040850111156144f057600080fd5b60005b60028110156145125781358352602092830192909101906001016144f3565b50505092915050565b600082601f83011261452b578081fd5b813561453e61453982615f0f565b615ee9565b81815291506020808301908481018184028601820187101561455f57600080fd5b60005b8481101561457e57813584529282019290820190600101614562565b505050505092915050565b803561155a81615f4d565b80516005811061155a57600080fd5b6000602082840312156145b4578081fd5b81356145bf81615f38565b9392505050565b6000602082840312156145d7578081fd5b81516145bf81615f38565b60008060008061014085870312156145f8578283fd5b61460286866144c2565b9350614611866040870161445f565b92506146208660c087016144c2565b91506146308661010087016144c2565b905092959194509250565b600080600080610160808688031215614652578283fd5b61465c87876144c2565b945061466b876040880161445f565b935061467a8760c088016144c2565b92508661011f87011261468b578182fd5b6146956060615ee9565b80610100880189848a0111156146a9578485fd5b8493505b60038410156146cd578035835260019390930192602092830192016146ad565b509598949750929550505050565b6000806000806101e08086880312156146f2578283fd5b6146fc87876144c2565b945061470b876040880161445f565b935061471a8760c088016144c2565b92508661011f87011261472b578182fd5b61473560e0615ee9565b80610100880189848a011115614749578485fd5b8493505b60078410156146cd5780358352600193909301926020928301920161474d565b6000806020838503121561477f578182fd5b82356001600160401b0380821115614795578384fd5b81850186601f8201126147a6578485fd5b80359250818311156147b6578485fd5b86602080850283010111156147c9578485fd5b60200196919550909350505050565b600060208083850312156147ea578182fd5b82516001600160401b038111156147ff578283fd5b80840185601f820112614810578384fd5b8051915061482061453983615f0f565b828152838101908285018585028401860189101561483c578687fd5b8693505b8484101561485e578051835260019390930192918501918501614840565b50979650505050505050565b60006020828403121561487b578081fd5b81516145bf81615f4d565b600060208284031215614897578081fd5b8151600a81106145bf578182fd5b600060e082840312156148b6578081fd5b6148c060e0615ee9565b8251815260208301516020820152604083015160408201526060830151600a81106148e9578283fd5b60608201526080838101519082015260a083015161490681615f38565b60a08201526149188460c08501614594565b60c08201529392505050565b600060208284031215614935578081fd5b81356001600160401b038082111561494b578283fd5b61026091840180860383131561495f578384fd5b61496883615ee9565b6149728783614454565b81526149818760208401614589565b60208201526149938760408401614589565b60408201526149a58760608401614589565b60608201526080828101359082015260a0808301359082015260c0808301359082015260e08083013590820152610100808301359082015261012080830135908201526101408083013590820152610160808301359082015261018080830135908201526101a093508382013583811115614a1e578586fd5b614a2a8882850161451b565b948201949094526101c082810135908201526101e08083013590820152610200808301359082015261022080830135908201526102409350614a6e87858401614454565b848201528094505050505092915050565b600060a08284031215614a90578081fd5b614a9a60a0615ee9565b82518152602083015160208201526040830151604082015260608301516060820152608083015160808201528091505092915050565b600060208284031215614ae1578081fd5b5035919050565b600060208284031215614af9578081fd5b5051919050565b60008060408385031215614b12578182fd5b823591506020830135614b2481615f38565b809150509250929050565b60008060408385031215614b41578182fd5b82519150602083015160028110614b24578182fd5b60008060408385031215614b68578182fd5b50508035926020909101359150565b6001600160a01b03169052565b8060005b6002811015612f2557614b9c848351614c3e565b6040939093019260209190910190600101614b88565b6000815180845260208085019450808401835b83811015614c3357815180518852838101516001600160a01b03168489015260408082015190890152606080820151908901526080808201519089015260a0808201519089015260c0808201519089015260e090810151908801526101009096019590820190600101614bc5565b509495945050505050565b8060005b6002811015612f25578151845260209384019390910190600101614c42565b15159052565b60028110614c7157fe5b9052565b614c7181615f2e565b60008151808452815b81811015614ca357602081850181015186830182015201614c87565b81811115614cb45782602083870101525b50601f01601f19169290920160200192915050565b614cd4828251614d08565b6020810151614ce660e0840182614d6b565b5060408101516001600160a01b0316610180830152606001516101a090910152565b8051825260208101516020830152604081015160408301526060810151600a8110614d2f57fe5b60608301526080818101519083015260a0808201516001600160a01b03169083015260c081015160058110614d6057fe5b8060c0840152505050565b80518252602081015160208301526040810151604083015260608101516060830152608081015160808301525050565b90815260200190565b9283526020830191909152604082015260600190565b6001600160a01b0391909116815260200190565b6001600160a01b03929092168252602082015260400190565b6001600160a01b038d168152602081018c9052604081018b9052606081018a90526080810189905260a0810188905260c08101879052610180810160028710614e2c57fe5b60e082019690965261010081019490945261012084019290925261014083015261016090910152979650505050505050565b6020808252825182820181905260009190848201906040850190845b81811015614e9f5783516001600160a01b031683529284019291840191600101614e7a565b50909695505050505050565b6000602080830181845280855180835260408601915060408482028701019250838701855b82811015614efe57603f19888603018452614eec858351614bb2565b94509285019290850190600101614ed0565b5092979650505050505050565b610780810181836000805b60038110156144b8578251829085905b6004831015614f5057614f3a828251614d6b565b6001929092019160a09190910190602001614f26565b505050610280939093019260209290920191600101614f16565b6000602082526145bf6020830184614bb2565b6020808252825182820181905260009190848201906040850190845b81811015614e9f57614fac838551614cc9565b928401926101c09290920191600101614f99565b602080825282518282018190526000919060409081850190868401855b828110156150805781518051855286810151878601528581015186860152606080820151908601526080808201519086015260a08082015161502182880182614b77565b505060c0818101519086015260e0808201519086015261010080820151908601526101208082015161505582880182614b77565b5050610140818101519086015261016090810151908501526101809093019290850190600101614fdd565b5091979650505050505050565b60208082528251828201819052600091906040908185019080840286018301878501865b8381101561513b57603f19898403018552815161012081518186526150d882870182614c7e565b838b0151878c0152898401518a880152606080850151908801526080808501519088015260a0808501519088015260c0808501519088015260e08085015190880152610100938401519390960192909252505093860193908601906001016150b1565b509098975050505050505050565b602080825282518282018190526000919060409081850190868401855b8281101561508057815161517b858251614c61565b80870151858801528581015186860152606080820151908601526080808201516151a782880182614c75565b505060a0818101519086015260c0808201519086015260e080820151908601526101008082015190860152610120808201516151e582880182614c61565b5050610140818101519086015261016090810151908501526101809093019290850190600101615166565b602080825282518282018190526000919060409081850190868401855b82811015615080578151615242858251614b77565b80870151858801528581015186860152606080820151908601526080808201519086015260a0808201519086015260c0808201519086015260e08082015161528c82880182614c67565b50506101008181015190860152610120808201519086015261014080820151908601526101609081015190850152610180909301929085019060010161522d565b61014081016152dc8287614c3e565b6152e96040830186614b84565b6152f660c0830185614c3e565b613fa1610100830184614c3e565b61016081016153138287614c3e565b6153206040830186614b84565b61532d60c0830185614c3e565b61010082018360005b6003811015615355578151835260209283019290910190600101615336565b50505095945050505050565b6101a081016153708287614c3e565b61537d6040830186614b84565b61538a60c0830185614c3e565b61010082018360005b6005811015615355578151835260209283019290910190600101615393565b6020808252825182820181905260009190848201906040850190845b81811015614e9f578351835292840192918401916001016153ce565b93845260208401929092526040830152606082015260800190565b901515815260200190565b6000610180820190508d151582528c60208301528b60408301528a60608301526154398a615f2e565b608082019990995260a081019790975260c087019590955260e0860193909352610100850191909152151561012084015261014083015261016090910152949350505050565b6001600160a01b03958616815293909416602084015260408301919091526060820152608081019190915260a00190565b6001600160a01b03969096168652602086019490945260408501929092526060840152608083015260a082015260c00190565b608081016154f086615f2e565b9481526020810193909352604083019190915260609091015290565b60006101208083526155208184018d614c7e565b602084019b909b52505060408101979097526060870195909552608086019390935260a085019190915260c084015260e083015261010090910152919050565b6020808252601e908201527f706c616e657420616c72656164792068617320616e2061727469666163740000604082015260600190565b60208082526016908201527506e65774f776e65722063616e6e6f74206265203078360541b604082015260600190565b60208082526025908201527f706c616e6574277320617274696661637420697320696e206c6f636b75702070604082015264195c9a5bd960da1b606082015260800190565b6020808252602e908201527f796f752063616e206f6e6c792066696e6420617274696661637473206f6e207060408201526d3630b732ba39903cb7ba9037bbb760911b606082015260800190565b60208082526023908201527f796f75206d757374206861766520393525206f6620746865206d617820656e6560408201526272677960e81b606082015260800190565b60208082526026908201527f796f752063616e206f6e6c79206465706f73697420617274696661637473207960408201526537ba9037bbb760d11b606082015260800190565b60208082526026908201527f62696f6d65207a6b534e41524b206661696c656420646f65736e27742063686560408201526518dac81bdd5d60d21b606082015260800190565b60208082526025908201527f63616e2774206465706f736974206172746966616374206f6e2073696c766572604082015264206d696e6560d81b606082015260800190565b6020808252601e908201527f4f6e6c79206f776e65722063616e207472616e7366657220706c616e65740000604082015260600190565b60208082526029908201527f796f752063616e27742066696e6420616e206172746966616374206f6e2074686040820152681a5cc81c1b185b995d60ba1b606082015260800190565b6020808252602b908201527f796f752063616e206f6e6c792077697468647261772066726f6d206120706c6160408201526a3732ba103cb7ba9037bbb760a91b606082015260800190565b60208082526021908201527f4f6e6c79206f776e65722063616e206275792068617420666f7220706c616e656040820152601d60fa1b606082015260800190565b6020808252601790820152764661696c656420696e69742070726f6f6620636865636b60481b604082015260600190565b6020808252600c908201526b14985d194b5b1a5b5a5d195960a21b604082015260600190565b6020808252600f908201526e139bdd081a5b9a5d1a585b1a5e9959608a1b604082015260600190565b6020808252602e908201527f496e697469616c697a61626c653a20636f6e747261637420697320616c72656160408201526d191e481a5b9a5d1a585b1a5e995960921b606082015260800190565b6020808252601e908201527f43616e6e6f74207472616e7366657220706c616e657420746f2073656c660000604082015260600190565b6020808252601790820152764661696c6564206d6f76652070726f6f6620636865636b60481b604082015260600190565b60208082526032908201527f43616e206f6e6c79207472616e73666572206f776e65727368697020746f20696040820152716e697469616c697a656420706c617965727360701b606082015260800190565b60208082526022908201527f706c616e657420686173206e6f20617274696661637420746f20776974686472604082015261617760f01b606082015260800190565b60208082526028908201527f796f752063616e206f6e6c79206465706f736974206f6e206120706c616e6574604082015267103cb7ba9037bbb760c11b606082015260800190565b6020808252600e908201526d11d85b59481a5cc81c185d5cd95960921b604082015260600190565b60208082526022908201527f63616e2774206d696e74206172746966616374206f6e2073696c766572206d696040820152616e6560f01b606082015260800190565b602080825260129082015271496e73756666696369656e742076616c756560701b604082015260600190565b6020808252600d908201526c4f7574206f6620626f756e647360981b604082015260600190565b6020808252601890820152771c1b185b995d08185b1c9958591e481c1b1d5b99195c995960421b604082015260600190565b60208082526018908201527711d85b59481a5cc8185b1c9958591e481d5b9c185d5cd95960421b604082015260600190565b60208082526016908201527511d85b59481a5cc8185b1c9958591e481c185d5cd95960521b604082015260600190565b602080825260159082015274135a5b9d081c195c9a5bd9081a185cc8195b991959605a1b604082015260600190565b6020808252600a908201526906f6e6c79206c766c20360b41b604082015260600190565b60208082526005908201526430b236b4b760d91b604082015260600190565b6020808252600790820152661a5b9d985b1a5960ca1b604082015260600190565b6101c0810161155a8284614cc9565b60e0810161155a8284614d08565b6000610140820190508b82528a60208301528960408301528860608301528760808301528660a08301528560c0830152615cca60e0830186614c67565b610100820193909352610120015298975050505050505050565b9182526001600160a01b0316602082015260400190565b9283526001600160a01b03919091166020830152604082015260600190565b8781526001600160a01b038716602082015260408101869052606081018590526080810184905260e08101600a8410615d4f57fe5b8360a083015260058310615d5f57fe5b8260c083015298975050505050505050565b9788526001600160a01b0396909616602088015260408701949094526060860192909252608085015260a084015260c083015260e08201526101000190565b8481526080810160018510615dc157fe5b84602083015283604083015282606083015295945050505050565b948552602085019390935260408401919091526060830152608082015260a00190565b918252602082015260400190565b958652602086019490945260408501929092526060840152608083015260a082015260c00190565b968752602087019590955260408601939093526060850191909152608084015260a083015260c082015260e00190565b998a5260208a019890985260408901969096526060880194909452608087019290925260a086015260c085015260e08401526101008301526101208201526101400190565b988952602089019790975260408801959095526060870193909352608086019190915260a085015260c084015260e08301526101008201526101200190565b6040518181016001600160401b0381118282101715615f0757600080fd5b604052919050565b60006001600160401b03821115615f24578081fd5b5060209081020190565b60038110610ee857fe5b6001600160a01b0381168114610ee857600080fd5b8015158114610ee857600080fdfea2646970667358221220c5fce55cad7f7a0b9422ff7468a5cc9e8f590230a921bd8dbf2bb98462b8c29b64736f6c63430006090033",
  "linkReferences": {
    "contracts/DarkForestInitialize.sol": {
      "DarkForestInitialize": [
        {
          "length": 20,
          "start": 6415
        },
        {
          "length": 20,
          "start": 6517
        }
      ]
    },
    "contracts/DarkForestPlanet.sol": {
      "DarkForestPlanet": [
        {
          "length": 20,
          "start": 3732
        },
        {
          "length": 20,
          "start": 5164
        },
        {
          "length": 20,
          "start": 7109
        },
        {
          "length": 20,
          "start": 8915
        },
        {
          "length": 20,
          "start": 9870
        },
        {
          "length": 20,
          "start": 10905
        },
        {
          "length": 20,
          "start": 11976
        },
        {
          "length": 20,
          "start": 16037
        }
      ]
    },
    "contracts/DarkForestUtils.sol": {
      "DarkForestUtils": [
        {
          "length": 20,
          "start": 11211
        },
        {
          "length": 20,
          "start": 14716
        },
        {
          "length": 20,
          "start": 15264
        },
        {
          "length": 20,
          "start": 15633
        },
        {
          "length": 20,
          "start": 15806
        }
      ]
    },
    "contracts/Verifier.sol": {
      "Verifier": [
        {
          "length": 20,
          "start": 4522
        },
        {
          "length": 20,
          "start": 9681
        },
        {
          "length": 20,
          "start": 11372
        }
      ]
    }
  },
  "deployedLinkReferences": {
    "contracts/DarkForestInitialize.sol": {
      "DarkForestInitialize": [
        {
          "length": 20,
          "start": 6331
        },
        {
          "length": 20,
          "start": 6433
        }
      ]
    },
    "contracts/DarkForestPlanet.sol": {
      "DarkForestPlanet": [
        {
          "length": 20,
          "start": 3648
        },
        {
          "length": 20,
          "start": 5080
        },
        {
          "length": 20,
          "start": 7025
        },
        {
          "length": 20,
          "start": 8831
        },
        {
          "length": 20,
          "start": 9786
        },
        {
          "length": 20,
          "start": 10821
        },
        {
          "length": 20,
          "start": 11892
        },
        {
          "length": 20,
          "start": 15953
        }
      ]
    },
    "contracts/DarkForestUtils.sol": {
      "DarkForestUtils": [
        {
          "length": 20,
          "start": 11127
        },
        {
          "length": 20,
          "start": 14632
        },
        {
          "length": 20,
          "start": 15180
        },
        {
          "length": 20,
          "start": 15549
        },
        {
          "length": 20,
          "start": 15722
        }
      ]
    },
    "contracts/Verifier.sol": {
      "Verifier": [
        {
          "length": 20,
          "start": 4438
        },
        {
          "length": 20,
          "start": 9597
        },
        {
          "length": 20,
          "start": 11288
        }
      ]
    }
  }
}