{
  "_format": "hh-sol-artifact-1",
  "contractName": "DarkForestTokens",
  "sourceName": "contracts/DarkForestTokens.sol",
  "abi": [
    {
      "anonymous": false,
      "inputs": [
        {
          "indexed": true,
          "internalType": "address",
          "name": "owner",
          "type": "address"
        },
        {
          "indexed": true,
          "internalType": "address",
          "name": "approved",
          "type": "address"
        },
        {
          "indexed": true,
          "internalType": "uint256",
          "name": "tokenId",
          "type": "uint256"
        }
      ],
      "name": "Approval",
      "type": "event"
    },
    {
      "anonymous": false,
      "inputs": [
        {
          "indexed": true,
          "internalType": "address",
          "name": "owner",
          "type": "address"
        },
        {
          "indexed": true,
          "internalType": "address",
          "name": "operator",
          "type": "address"
        },
        {
          "indexed": false,
          "internalType": "bool",
          "name": "approved",
          "type": "bool"
        }
      ],
      "name": "ApprovalForAll",
      "type": "event"
    },
    {
      "anonymous": false,
      "inputs": [
        {
          "indexed": true,
          "internalType": "address",
          "name": "from",
          "type": "address"
        },
        {
          "indexed": true,
          "internalType": "address",
          "name": "to",
          "type": "address"
        },
        {
          "indexed": true,
          "internalType": "uint256",
          "name": "tokenId",
          "type": "uint256"
        }
      ],
      "name": "Transfer",
      "type": "event"
    },
    {
      "inputs": [
        {
          "internalType": "address",
          "name": "to",
          "type": "address"
        },
        {
          "internalType": "uint256",
          "name": "tokenId",
          "type": "uint256"
        }
      ],
      "name": "approve",
      "outputs": [],
      "stateMutability": "nonpayable",
      "type": "function"
    },
    {
      "inputs": [
        {
          "internalType": "address",
          "name": "owner",
          "type": "address"
        }
      ],
      "name": "balanceOf",
      "outputs": [
        {
          "internalType": "uint256",
          "name": "",
          "type": "uint256"
        }
      ],
      "stateMutability": "view",
      "type": "function"
    },
    {
      "inputs": [],
      "name": "baseURI",
      "outputs": [
        {
          "internalType": "string",
          "name": "",
          "type": "string"
        }
      ],
      "stateMutability": "view",
      "type": "function"
    },
    {
      "inputs": [
        {
          "internalType": "uint256",
          "name": "tokenId",
          "type": "uint256"
        },
        {
          "internalType": "address",
          "name": "discoverer",
          "type": "address"
        },
        {
          "internalType": "uint256",
          "name": "planetId",
          "type": "uint256"
        },
        {
          "internalType": "uint256",
          "name": "planetLevel",
          "type": "uint256"
        },
        {
          "internalType": "uint256",
          "name": "levelBonus",
          "type": "uint256"
        },
        {
          "internalType": "enum DarkForestTypes.Biome",
          "name": "planetBiome",
          "type": "uint8"
        },
        {
          "internalType": "enum DarkForestTypes.ArtifactType",
          "name": "artifactType",
          "type": "uint8"
        }
      ],
      "name": "createArtifact",
      "outputs": [
        {
          "components": [
            {
              "internalType": "uint256",
              "name": "id",
              "type": "uint256"
            },
            {
              "internalType": "uint256",
              "name": "planetDiscoveredOn",
              "type": "uint256"
            },
            {
              "internalType": "uint256",
              "name": "planetLevel",
              "type": "uint256"
            },
            {
              "internalType": "enum DarkForestTypes.Biome",
              "name": "planetBiome",
              "type": "uint8"
            },
            {
              "internalType": "uint256",
              "name": "mintedAtTimestamp",
              "type": "uint256"
            },
            {
              "internalType": "address",
              "name": "discoverer",
              "type": "address"
            },
            {
              "internalType": "enum DarkForestTypes.ArtifactType",
              "name": "artifactType",
              "type": "uint8"
            }
          ],
          "internalType": "struct DarkForestTypes.Artifact",
          "name": "",
          "type": "tuple"
        }
      ],
      "stateMutability": "nonpayable",
      "type": "function"
    },
    {
      "inputs": [
        {
          "internalType": "uint256",
          "name": "tokenId",
          "type": "uint256"
        },
        {
          "internalType": "address",
          "name": "to",
          "type": "address"
        },
        {
          "internalType": "enum DarkForestTypes.Biome",
          "name": "planetBiome",
          "type": "uint8"
        },
        {
          "internalType": "enum DarkForestTypes.ArtifactType",
          "name": "artifactType",
          "type": "uint8"
        }
      ],
      "name": "createMythicArtifact",
      "outputs": [],
      "stateMutability": "nonpayable",
      "type": "function"
    },
    {
      "inputs": [
        {
          "internalType": "uint256",
          "name": "tokenId",
          "type": "uint256"
        }
      ],
      "name": "doesArtifactExist",
      "outputs": [
        {
          "internalType": "bool",
          "name": "",
          "type": "bool"
        }
      ],
      "stateMutability": "view",
      "type": "function"
    },
    {
      "inputs": [
        {
          "internalType": "uint256",
          "name": "tokenId",
          "type": "uint256"
        }
      ],
      "name": "getApproved",
      "outputs": [
        {
          "internalType": "address",
          "name": "",
          "type": "address"
        }
      ],
      "stateMutability": "view",
      "type": "function"
    },
    {
      "inputs": [
        {
          "internalType": "uint256",
          "name": "tokenId",
          "type": "uint256"
        }
      ],
      "name": "getArtifact",
      "outputs": [
        {
          "components": [
            {
              "internalType": "uint256",
              "name": "id",
              "type": "uint256"
            },
            {
              "internalType": "uint256",
              "name": "planetDiscoveredOn",
              "type": "uint256"
            },
            {
              "internalType": "uint256",
              "name": "planetLevel",
              "type": "uint256"
            },
            {
              "internalType": "enum DarkForestTypes.Biome",
              "name": "planetBiome",
              "type": "uint8"
            },
            {
              "internalType": "uint256",
              "name": "mintedAtTimestamp",
              "type": "uint256"
            },
            {
              "internalType": "address",
              "name": "discoverer",
              "type": "address"
            },
            {
              "internalType": "enum DarkForestTypes.ArtifactType",
              "name": "artifactType",
              "type": "uint8"
            }
          ],
          "internalType": "struct DarkForestTypes.Artifact",
          "name": "",
          "type": "tuple"
        }
      ],
      "stateMutability": "view",
      "type": "function"
    },
    {
      "inputs": [
        {
          "internalType": "address",
          "name": "playerId",
          "type": "address"
        }
      ],
      "name": "getPlayerArtifactIds",
      "outputs": [
        {
          "internalType": "uint256[]",
          "name": "",
          "type": "uint256[]"
        }
      ],
      "stateMutability": "view",
      "type": "function"
    },
    {
      "inputs": [
        {
          "internalType": "uint256",
          "name": "tokenId",
          "type": "uint256"
        },
        {
          "internalType": "address",
          "name": "discoverer",
          "type": "address"
        },
        {
          "internalType": "uint256",
          "name": "planetId",
          "type": "uint256"
        },
        {
          "internalType": "uint256",
          "name": "artifactLevel",
          "type": "uint256"
        },
        {
          "internalType": "enum DarkForestTypes.Biome",
          "name": "planetBiome",
          "type": "uint8"
        },
        {
          "internalType": "enum DarkForestTypes.ArtifactType",
          "name": "artifactType",
          "type": "uint8"
        }
      ],
      "name": "giveArtifactToPlayer",
      "outputs": [
        {
          "components": [
            {
              "internalType": "uint256",
              "name": "id",
              "type": "uint256"
            },
            {
              "internalType": "uint256",
              "name": "planetDiscoveredOn",
              "type": "uint256"
            },
            {
              "internalType": "uint256",
              "name": "planetLevel",
              "type": "uint256"
            },
            {
              "internalType": "enum DarkForestTypes.Biome",
              "name": "planetBiome",
              "type": "uint8"
            },
            {
              "internalType": "uint256",
              "name": "mintedAtTimestamp",
              "type": "uint256"
            },
            {
              "internalType": "address",
              "name": "discoverer",
              "type": "address"
            },
            {
              "internalType": "enum DarkForestTypes.ArtifactType",
              "name": "artifactType",
              "type": "uint8"
            }
          ],
          "internalType": "struct DarkForestTypes.Artifact",
          "name": "",
          "type": "tuple"
        }
      ],
      "stateMutability": "nonpayable",
      "type": "function"
    },
    {
      "inputs": [
        {
          "internalType": "address",
          "name": "_coreAddress",
          "type": "address"
        },
        {
          "internalType": "address",
          "name": "_adminAddress",
          "type": "address"
        }
      ],
      "name": "initialize",
      "outputs": [],
      "stateMutability": "nonpayable",
      "type": "function"
    },
    {
      "inputs": [
        {
          "internalType": "address",
          "name": "owner",
          "type": "address"
        },
        {
          "internalType": "address",
          "name": "operator",
          "type": "address"
        }
      ],
      "name": "isApprovedForAll",
      "outputs": [
        {
          "internalType": "bool",
          "name": "",
          "type": "bool"
        }
      ],
      "stateMutability": "view",
      "type": "function"
    },
    {
      "inputs": [],
      "name": "name",
      "outputs": [
        {
          "internalType": "string",
          "name": "",
          "type": "string"
        }
      ],
      "stateMutability": "view",
      "type": "function"
    },
    {
      "inputs": [
        {
          "internalType": "uint256",
          "name": "tokenId",
          "type": "uint256"
        }
      ],
      "name": "ownerOf",
      "outputs": [
        {
          "internalType": "address",
          "name": "",
          "type": "address"
        }
      ],
      "stateMutability": "view",
      "type": "function"
    },
    {
      "inputs": [
        {
          "internalType": "address",
          "name": "from",
          "type": "address"
        },
        {
          "internalType": "address",
          "name": "to",
          "type": "address"
        },
        {
          "internalType": "uint256",
          "name": "tokenId",
          "type": "uint256"
        }
      ],
      "name": "safeTransferFrom",
      "outputs": [],
      "stateMutability": "nonpayable",
      "type": "function"
    },
    {
      "inputs": [
        {
          "internalType": "address",
          "name": "from",
          "type": "address"
        },
        {
          "internalType": "address",
          "name": "to",
          "type": "address"
        },
        {
          "internalType": "uint256",
          "name": "tokenId",
          "type": "uint256"
        },
        {
          "internalType": "bytes",
          "name": "_data",
          "type": "bytes"
        }
      ],
      "name": "safeTransferFrom",
      "outputs": [],
      "stateMutability": "nonpayable",
      "type": "function"
    },
    {
      "inputs": [
        {
          "internalType": "address",
          "name": "operator",
          "type": "address"
        },
        {
          "internalType": "bool",
          "name": "approved",
          "type": "bool"
        }
      ],
      "name": "setApprovalForAll",
      "outputs": [],
      "stateMutability": "nonpayable",
      "type": "function"
    },
    {
      "inputs": [],
      "name": "setBaseUri",
      "outputs": [],
      "stateMutability": "nonpayable",
      "type": "function"
    },
    {
      "inputs": [
        {
          "internalType": "bytes4",
          "name": "interfaceId",
          "type": "bytes4"
        }
      ],
      "name": "supportsInterface",
      "outputs": [
        {
          "internalType": "bool",
          "name": "",
          "type": "bool"
        }
      ],
      "stateMutability": "view",
      "type": "function"
    },
    {
      "inputs": [],
      "name": "symbol",
      "outputs": [
        {
          "internalType": "string",
          "name": "",
          "type": "string"
        }
      ],
      "stateMutability": "view",
      "type": "function"
    },
    {
      "inputs": [
        {
          "internalType": "uint256",
          "name": "index",
          "type": "uint256"
        }
      ],
      "name": "tokenByIndex",
      "outputs": [
        {
          "internalType": "uint256",
          "name": "",
          "type": "uint256"
        }
      ],
      "stateMutability": "view",
      "type": "function"
    },
    {
      "inputs": [
        {
          "internalType": "address",
          "name": "owner",
          "type": "address"
        },
        {
          "internalType": "uint256",
          "name": "index",
          "type": "uint256"
        }
      ],
      "name": "tokenOfOwnerByIndex",
      "outputs": [
        {
          "internalType": "uint256",
          "name": "",
          "type": "uint256"
        }
      ],
      "stateMutability": "view",
      "type": "function"
    },
    {
      "inputs": [
        {
          "internalType": "uint256",
          "name": "tokenId",
          "type": "uint256"
        }
      ],
      "name": "tokenURI",
      "outputs": [
        {
          "internalType": "string",
          "name": "",
          "type": "string"
        }
      ],
      "stateMutability": "view",
      "type": "function"
    },
    {
      "inputs": [],
      "name": "totalSupply",
      "outputs": [
        {
          "internalType": "uint256",
          "name": "",
          "type": "uint256"
        }
      ],
      "stateMutability": "view",
      "type": "function"
    },
    {
      "inputs": [
        {
          "internalType": "address",
          "name": "from",
          "type": "address"
        },
        {
          "internalType": "address",
          "name": "to",
          "type": "address"
        },
        {
          "internalType": "uint256",
          "name": "tokenId",
          "type": "uint256"
        }
      ],
      "name": "transferFrom",
      "outputs": [],
      "stateMutability": "nonpayable",
      "type": "function"
    },
    {
      "inputs": [
        {
          "internalType": "uint256",
          "name": "tokenId",
          "type": "uint256"
        }
      ],
      "name": "transferToCoreContract",
      "outputs": [],
      "stateMutability": "nonpayable",
      "type": "function"
    }
  ],
  "bytecode": "0x6080604052609780546001600160a01b031990811690915560998054909116905534801561002c57600080fd5b506125f68061003c6000396000f3fe608060405234801561001057600080fd5b506004361061013e5760003560e01c806301ffc9a71461014357806306fdde031461016c578063081812fc14610181578063095ea7b3146101a15780631401ad89146101b657806318160ddd146101d65780631f94f540146101eb57806323b872dd146101fe578063277f8c8a146102115780632d132791146102245780632f745c5914610237578063314d1ff71461024a57806342842e0e1461026a578063485cc9551461027d5780634f6ccce7146102905780636352211e146102a35780636c0360eb146102b657806370a08231146102be5780638465ad44146102d157806395d89b41146102e4578063a22cb465146102ec578063b88d4fde146102ff578063c87b56dd14610312578063e6a9616b14610325578063e985e9c51461032d578063f167ee0c14610340575b600080fd5b610156610151366004611c19565b610353565b6040516101639190611e94565b60405180910390f35b610174610376565b6040516101639190611e9f565b61019461018f366004611c51565b61040d565b6040516101639190611dff565b6101b46101af366004611bef565b610459565b005b6101c96101c4366004611d1c565b6104f1565b6040516101639190612448565b6101de610680565b60405161016391906124b5565b6101566101f9366004611c51565b610691565b6101b461020c366004611aaf565b6106a2565b6101c961021f366004611cba565b6106da565b6101b4610232366004611c51565b61084b565b6101de610245366004611bef565b610896565b61025d610258366004611a60565b6108c5565b6040516101639190611e50565b6101b4610278366004611aaf565b610955565b6101b461028b366004611a7b565b610970565b6101de61029e366004611c51565b610a46565b6101946102b1366004611c51565b610a5a565b610174610a88565b6101de6102cc366004611a60565b610ae9565b6101c96102df366004611c51565b610b32565b610174610bee565b6101b46102fa366004611bb4565b610c4f565b6101b461030d366004611aef565b610d1d565b610174610320366004611c51565b610d5c565b6101b4610ea2565b61015661033b366004611a7b565b610ec5565b6101b461034e366004611c69565b610ef3565b6001600160e01b0319811660009081526033602052604090205460ff165b919050565b606a8054604080516020601f60026000196101006001881615020190951694909404938401819004810282018101909252828152606093909290918301828280156104025780601f106103d757610100808354040283529160200191610402565b820191906000526020600020905b8154815290600101906020018083116103e557829003601f168201915b505050505090505b90565b600061041882611044565b61043d5760405162461bcd60e51b815260040161043490612251565b60405180910390fd5b506000908152606860205260409020546001600160a01b031690565b600061046482610a5a565b9050806001600160a01b0316836001600160a01b031614156104985760405162461bcd60e51b815260040161043490612335565b806001600160a01b03166104aa611057565b6001600160a01b031614806104c657506104c68161033b611057565b6104e25760405162461bcd60e51b8152600401610434906120ea565b6104ec838361105b565b505050565b6104f961195a565b6097546001600160a01b031633148061051c57506099546001600160a01b031633145b6105385760405162461bcd60e51b81526004016104349061204a565b60975461054e906001600160a01b0316896110c9565b848401600781111561055e575060075b61056661195a565b6040518060e001604052808b815260200189815260200183815260200186600981111561058f57fe5b81526020014281526020018a6001600160a01b031681526020018560048111156105b557fe5b815250905080609860008c815260200190815260200160002060008201518160000155602082015181600101556040820151816002015560608201518160030160006101000a81548160ff0219169083600981111561061057fe5b0217905550608082015160048281019190915560a08301516005830180546001600160a01b0319166001600160a01b039092169190911780825560c08501519260ff60a01b1990911690600160a01b90849081111561066b57fe5b0217905550919b9a5050505050505050505050565b600061068c6066611187565b905090565b600061069c82611044565b92915050565b6106b36106ad611057565b82611192565b6106cf5760405162461bcd60e51b815260040161043490612376565b6104ec838383611217565b6106e261195a565b6097546001600160a01b031633148061070557506099546001600160a01b031633145b6107215760405162461bcd60e51b81526004016104349061204a565b61072b86886110c9565b61073361195a565b6040518060e0016040528089815260200187815260200186815260200185600981111561075c57fe5b8152602001428152602001886001600160a01b0316815260200184600481111561078257fe5b815250905080609860008a815260200190815260200160002060008201518160000155602082015181600101556040820151816002015560608201518160030160006101000a81548160ff021916908360098111156107dd57fe5b0217905550608082015160048281019190915560a08301516005830180546001600160a01b0319166001600160a01b039092169190911780825560c08501519260ff60a01b1990911690600160a01b90849081111561083857fe5b0217905550919998505050505050505050565b6097546001600160a01b031633146108755760405162461bcd60e51b815260040161043490611f7c565b61089361088182610a5a565b6097546001600160a01b031683611217565b50565b6001600160a01b03821660009081526065602052604081206108be908363ffffffff61132516565b9392505050565b606060006108d283610ae9565b90506060816001600160401b03811180156108ec57600080fd5b50604051908082528060200260200182016040528015610916578160200160208202803683370190505b50905060005b8281101561094d5761092e8582610896565b82828151811061093a57fe5b602090810291909101015260010161091c565b509392505050565b6104ec83838360405180602001604052806000815250610d1d565b600054610100900460ff16806109895750610989611331565b80610997575060005460ff16155b6109b35760405162461bcd60e51b81526004016104349061218c565b600054610100900460ff161580156109de576000805460ff1961ff0019909116610100171660011790555b609780546001600160a01b038086166001600160a01b031992831617909255609980549285169290911691909117905560408051606081019091526023808252610a3091906125556020830139611342565b80156104ec576000805461ff0019169055505050565b60008061094d60668463ffffffff61135916565b600061069c82604051806060016040528060298152602001612578602991396066919063ffffffff61137516565b606d8054604080516020601f60026000196101006001881615020190951694909404938401819004810282018101909252828152606093909290918301828280156104025780601f106103d757610100808354040283529160200191610402565b60006001600160a01b038216610b115760405162461bcd60e51b815260040161043490612142565b6001600160a01b038216600090815260656020526040902061069c90611187565b610b3a61195a565b609860008381526020019081526020016000206040518060e00160405290816000820154815260200160018201548152602001600282015481526020016003820160009054906101000a900460ff166009811115610b9457fe5b6009811115610b9f57fe5b8152600482810154602083015260058301546001600160a01b0381166040840152606090920191600160a01b900460ff1690811115610bda57fe5b6004811115610be557fe5b90525092915050565b606b8054604080516020601f60026000196101006001881615020190951694909404938401819004810282018101909252828152606093909290918301828280156104025780601f106103d757610100808354040283529160200191610402565b610c57611057565b6001600160a01b0316826001600160a01b03161415610c885760405162461bcd60e51b815260040161043490612017565b8060696000610c95611057565b6001600160a01b03908116825260208083019390935260409182016000908120918716808252919093529120805460ff191692151592909217909155610cd9611057565b6001600160a01b03167f17307eab39ab6107e8899845ad3d59bd9653f200f220920489ca2b5937696c3183604051610d119190611e94565b60405180910390a35050565b610d2e610d28611057565b83611192565b610d4a5760405162461bcd60e51b815260040161043490612376565b610d5684848484611382565b50505050565b6060610d6782611044565b610d835760405162461bcd60e51b8152600401610434906122e6565b6000828152606c602090815260409182902080548351601f6002600019610100600186161502019093169290920491820184900484028101840190945280845260609392830182828015610e185780601f10610ded57610100808354040283529160200191610e18565b820191906000526020600020905b815481529060010190602001808311610dfb57829003601f168201915b505050505090506060610e29610a88565b9050805160001415610e3d57509050610371565b815115610e6f578082604051602001610e57929190611dd1565b60405160208183030381529060405292505050610371565b80610e79856113b5565b604051602001610e8a929190611dd1565b60405160208183030381529060405292505050919050565b610ec360405180606001604052806023815260200161255560239139611342565b565b6001600160a01b03918216600090815260696020908152604080832093909416825291909152205460ff1690565b6099546001600160a01b03163314610f1d5760405162461bcd60e51b8152600401610434906123fe565b610f2783856110c9565b610f2f61195a565b6040518060e001604052808681526020016000815260200160088152602001846009811115610f5a57fe5b8152602001428152602001856001600160a01b03168152602001836004811115610f8057fe5b8152509050806098600087815260200190815260200160002060008201518160000155602082015181600101556040820151816002015560608201518160030160006101000a81548160ff02191690836009811115610fdb57fe5b0217905550608082015160048281019190915560a08301516005830180546001600160a01b0319166001600160a01b039092169190911780825560c08501519260ff60a01b1990911690600160a01b90849081111561103657fe5b021790555050505050505050565b600061069c60668363ffffffff61148f16565b3390565b600081815260686020526040902080546001600160a01b0319166001600160a01b038416908117909155819061109082610a5a565b6001600160a01b03167f8c5be1e5ebec7d5bd14f71427d1e84f3dd0314c0f7b2291e5b200ac8c7c3b92560405160405180910390a45050565b6001600160a01b0382166110ef5760405162461bcd60e51b81526004016104349061221c565b6110f881611044565b156111155760405162461bcd60e51b815260040161043490611f46565b611121600083836104ec565b6001600160a01b0382166000908152606560205260409020611149908263ffffffff61149b16565b5061115c6066828463ffffffff6114a716565b5060405181906001600160a01b038416906000906000805160206125a1833981519152908290a45050565b600061069c826114bd565b600061119d82611044565b6111b95760405162461bcd60e51b81526004016104349061209e565b60006111c483610a5a565b9050806001600160a01b0316846001600160a01b031614806111ff5750836001600160a01b03166111f48461040d565b6001600160a01b0316145b8061120f575061120f8185610ec5565b949350505050565b826001600160a01b031661122a82610a5a565b6001600160a01b0316146112505760405162461bcd60e51b81526004016104349061229d565b6001600160a01b0382166112765760405162461bcd60e51b815260040161043490611fd3565b6112818383836104ec565b61128c60008261105b565b6001600160a01b03831660009081526065602052604090206112b4908263ffffffff6114c116565b506001600160a01b03821660009081526065602052604090206112dd908263ffffffff61149b16565b506112f06066828463ffffffff6114a716565b5080826001600160a01b0316846001600160a01b03166000805160206125a183398151915260405160405180910390a4505050565b60006108be83836114cd565b600061133c30611512565b15905090565b805161135590606d9060208401906119a2565b5050565b60008080806113688686611518565b9097909650945050505050565b600061120f848484611574565b61138d848484611217565b611399848484846115d3565b610d565760405162461bcd60e51b815260040161043490611ef4565b6060816113da57506040805180820190915260018152600360fc1b6020820152610371565b8160005b81156113f257600101600a820491506113de565b6060816001600160401b038111801561140a57600080fd5b506040519080825280601f01601f191660200182016040528015611435576020820181803683370190505b50859350905060001982015b831561148657600a840660300160f81b8282806001900393508151811061146457fe5b60200101906001600160f81b031916908160001a905350600a84049350611441565b50949350505050565b60006108be83836116b8565b60006108be83836116d0565b600061120f84846001600160a01b03851661171a565b5490565b60006108be83836117b1565b815460009082106114f05760405162461bcd60e51b815260040161043490611eb2565b8260000182815481106114ff57fe5b9060005260206000200154905092915050565b3b151590565b81546000908190831061153d5760405162461bcd60e51b8152600401610434906121da565b600084600001848154811061154e57fe5b906000526020600020906002020190508060000154816001015492509250509250929050565b600082815260018401602052604081205482816115a45760405162461bcd60e51b81526004016104349190611e9f565b508460000160018203815481106115b757fe5b9060005260206000209060020201600101549150509392505050565b60006115e7846001600160a01b0316611512565b6115f35750600161120f565b6060611681630a85bd0160e11b611608611057565b88878760405160240161161e9493929190611e13565b604051602081830303815290604052906001600160e01b0319166020820180516001600160e01b038381831617835250505050604051806060016040528060328152602001612523603291396001600160a01b038816919063ffffffff61187716565b90506000818060200190518101906116999190611c35565b6001600160e01b031916630a85bd0160e11b1492505050949350505050565b60009081526001919091016020526040902054151590565b60006116dc83836116b8565b6117125750815460018181018455600084815260208082209093018490558454848252828601909352604090209190915561069c565b50600061069c565b60008281526001840160205260408120548061177f5750506040805180820182528381526020808201848152865460018181018955600089815284812095516002909302909501918255915190820155865486845281880190925292909120556108be565b8285600001600183038154811061179257fe5b90600052602060002090600202016001018190555060009150506108be565b6000818152600183016020526040812054801561186d57835460001980830191908101906000908790839081106117e457fe5b906000526020600020015490508087600001848154811061180157fe5b60009182526020808320909101929092558281526001898101909252604090209084019055865487908061183157fe5b6001900381819060005260206000200160009055905586600101600087815260200190815260200160002060009055600194505050505061069c565b600091505061069c565b606061120f84846000858561188b85611512565b6118a75760405162461bcd60e51b8152600401610434906123c7565b60006060866001600160a01b031685876040516118c49190611db5565b60006040518083038185875af1925050503d8060008114611901576040519150601f19603f3d011682016040523d82523d6000602084013e611906565b606091505b5091509150611916828286611921565b979650505050505050565b606083156119305750816108be565b8251156119405782518084602001fd5b8160405162461bcd60e51b81526004016104349190611e9f565b6040518060e001604052806000815260200160008152602001600081526020016000600981111561198757fe5b81526000602082018190526040820181905260609091015290565b828054600181600116156101000203166002900490600052602060002090601f016020900481019282601f106119e357805160ff1916838001178555611a10565b82800160010185558215611a10579182015b82811115611a105782518255916020019190600101906119f5565b50611a1c929150611a20565b5090565b61040a91905b80821115611a1c5760008155600101611a26565b80356001600160a01b038116811461069c57600080fd5b80356005811061069c57600080fd5b600060208284031215611a71578081fd5b6108be8383611a3a565b60008060408385031215611a8d578081fd5b611a978484611a3a565b9150611aa68460208501611a3a565b90509250929050565b600080600060608486031215611ac3578081fd5b8335611ace816124ea565b92506020840135611ade816124ea565b929592945050506040919091013590565b60008060008060808587031215611b04578081fd5b611b0e8686611a3a565b93506020611b1e87828801611a3a565b93506040860135925060608601356001600160401b0380821115611b40578384fd5b81880189601f820112611b51578485fd5b8035925081831115611b61578485fd5b604051601f8401601f1916810185018381118282101715611b80578687fd5b60405283815281840185018b1015611b96578586fd5b83858301868301379283019093019390935294979396509194505050565b60008060408385031215611bc6578182fd5b611bd08484611a3a565b915060208301358015158114611be4578182fd5b809150509250929050565b60008060408385031215611c01578182fd5b611c0b8484611a3a565b946020939093013593505050565b600060208284031215611c2a578081fd5b81356108be816124ff565b600060208284031215611c46578081fd5b81516108be816124ff565b600060208284031215611c62578081fd5b5035919050565b60008060008060808587031215611c7e578384fd5b843593506020850135611c90816124ea565b92506040850135611ca081612515565b9150611caf8660608701611a51565b905092959194509250565b60008060008060008060c08789031215611cd2578182fd5b86359550611ce38860208901611a3a565b945060408701359350606087013592506080870135611d0181612515565b9150611d108860a08901611a51565b90509295509295509295565b600080600080600080600060e0888a031215611d36578081fd5b87359650611d478960208a01611a3a565b955060408801359450606088013593506080880135925060a0880135611d6c81612515565b9150611d7b8960c08a01611a51565b905092959891949750929550565b60008151808452611da18160208601602086016124be565b601f01601f19169290920160200192915050565b60008251611dc78184602087016124be565b9190910192915050565b60008351611de38184602088016124be565b8351908301611df68282602088016124be565b01949350505050565b6001600160a01b0391909116815260200190565b6001600160a01b0385811682528416602082015260408101839052608060608201819052600090611e4690830184611d89565b9695505050505050565b6020808252825182820181905260009190848201906040850190845b81811015611e8857835183529284019291840191600101611e6c565b50909695505050505050565b901515815260200190565b6000602082526108be6020830184611d89565b60208082526022908201527f456e756d657261626c655365743a20696e646578206f7574206f6620626f756e604082015261647360f01b606082015260800190565b60208082526032908201527f4552433732313a207472616e7366657220746f206e6f6e20455243373231526560408201527131b2b4bb32b91034b6b83632b6b2b73a32b960711b606082015260800190565b6020808252601c908201527b115490cdcc8c4e881d1bdad95b88185b1c9958591e481b5a5b9d195960221b604082015260600190565b60208082526037908201527f4f6e6c792074686520436f726520416464726573732063616e20696e697469616040820152763a329030903a3930b739b332b9103a379034ba39b2b63360491b606082015260800190565b60208082526024908201527f4552433732313a207472616e7366657220746f20746865207a65726f206164646040820152637265737360e01b606082015260800190565b60208082526019908201527822a9219b99189d1030b8383937bb32903a379031b0b63632b960391b604082015260600190565b60208082526034908201527f4f6e6c792074686520436f7265206f722041646d696e206164647265737365736040820152732063616e20737061776e2061727469666163747360601b606082015260800190565b6020808252602c908201527f4552433732313a206f70657261746f7220717565727920666f72206e6f6e657860408201526b34b9ba32b73a103a37b5b2b760a11b606082015260800190565b60208082526038908201527f4552433732313a20617070726f76652063616c6c6572206973206e6f74206f776040820152771b995c881b9bdc88185c1c1c9bdd995908199bdc88185b1b60421b606082015260800190565b6020808252602a908201527f4552433732313a2062616c616e636520717565727920666f7220746865207a65604082015269726f206164647265737360b01b606082015260800190565b6020808252602e908201527f496e697469616c697a61626c653a20636f6e747261637420697320616c72656160408201526d191e481a5b9a5d1a585b1a5e995960921b606082015260800190565b60208082526022908201527f456e756d657261626c654d61703a20696e646578206f7574206f6620626f756e604082015261647360f01b606082015260800190565b6020808252818101527f4552433732313a206d696e7420746f20746865207a65726f2061646472657373604082015260600190565b6020808252602c908201527f4552433732313a20617070726f76656420717565727920666f72206e6f6e657860408201526b34b9ba32b73a103a37b5b2b760a11b606082015260800190565b60208082526029908201527f4552433732313a207472616e73666572206f6620746f6b656e2074686174206960408201526839903737ba1037bbb760b91b606082015260800190565b6020808252602f908201527f4552433732314d657461646174613a2055524920717565727920666f72206e6f60408201526e3732bc34b9ba32b73a103a37b5b2b760891b606082015260800190565b60208082526021908201527f4552433732313a20617070726f76616c20746f2063757272656e74206f776e656040820152603960f91b606082015260800190565b60208082526031908201527f4552433732313a207472616e736665722063616c6c6572206973206e6f74206f6040820152701ddb995c881b9bdc88185c1c1c9bdd9959607a1b606082015260800190565b6020808252601d908201527f416464726573733a2063616c6c20746f206e6f6e2d636f6e7472616374000000604082015260600190565b6020808252602a908201527f4f6e6c79207468652041646d696e20416464726573732063616e20737061776e6040820152692061727469666163747360b01b606082015260800190565b600060e0820190508251825260208301516020830152604083015160408301526060830151600a811061247757fe5b60608301526080838101519083015260a0808401516001600160a01b03169083015260c0830151600581106124a857fe5b8060c08401525092915050565b90815260200190565b60005b838110156124d95781810151838201526020016124c1565b83811115610d565750506000910152565b6001600160a01b038116811461089357600080fd5b6001600160e01b03198116811461089357600080fd5b600a811061089357600080fdfe4552433732313a207472616e7366657220746f206e6f6e20455243373231526563656976657220696d706c656d656e74657268747470733a2f2f7a6b67612e6d652f746f6b656e2d7572692f61727469666163742f4552433732313a206f776e657220717565727920666f72206e6f6e6578697374656e7420746f6b656eddf252ad1be2c89b69c2b068fc378daa952ba7f163c4a11628f55a4df523b3efa2646970667358221220c94288e0d0344bd57055a63aa2c6eaa4ca42fc82f39b957cafba75ae3572998964736f6c63430006090033",
  "linkReferences": {},
  "deployedLinkReferences": {}
}