{
  "_format": "hh-sol-artifact-1",
  "contractName": "DarkForestCore",
  "sourceName": "contracts/DarkForestCore.sol",
  "abi": [
    {
      "anonymous": false,
      "inputs": [
        {
          "indexed": false,
          "internalType": "uint256",
          "name": "arrivalId",
          "type": "uint256"
        }
      ],
      "name": "ArrivalQueued",
      "type": "event"
    },
    {
      "anonymous": false,
      "inputs": [
        {
          "indexed": false,
          "internalType": "uint256",
          "name": "loc",
          "type": "uint256"
        }
      ],
      "name": "BoughtHat",
      "type": "event"
    },
    {
      "anonymous": false,
      "inputs": [
        {
          "indexed": false,
          "internalType": "uint256",
          "name": "loc",
          "type": "uint256"
        },
        {
          "indexed": false,
          "internalType": "address",
          "name": "player",
          "type": "address"
        },
        {
          "indexed": false,
          "internalType": "uint256",
          "name": "artifactId",
          "type": "uint256"
        }
      ],
      "name": "DepositedArtifact",
      "type": "event"
    },
    {
      "anonymous": false,
      "inputs": [
        {
          "indexed": false,
          "internalType": "uint256",
          "name": "loc",
          "type": "uint256"
        },
        {
          "indexed": false,
          "internalType": "address",
          "name": "player",
          "type": "address"
        },
        {
          "indexed": false,
          "internalType": "uint256",
          "name": "artifactId",
          "type": "uint256"
        }
      ],
      "name": "FoundArtifact",
      "type": "event"
    },
    {
      "anonymous": false,
      "inputs": [
        {
          "indexed": false,
          "internalType": "bytes32",
          "name": "keyHash",
          "type": "bytes32"
        }
      ],
      "name": "KeyAdded",
      "type": "event"
    },
    {
      "anonymous": false,
      "inputs": [
        {
          "indexed": false,
          "internalType": "bytes32",
          "name": "keyHash",
          "type": "bytes32"
        },
        {
          "indexed": false,
          "internalType": "address",
          "name": "owner",
          "type": "address"
        }
      ],
      "name": "KeyUsed",
      "type": "event"
    },
    {
      "anonymous": false,
      "inputs": [
        {
          "indexed": false,
          "internalType": "uint256",
          "name": "loc",
          "type": "uint256"
        },
        {
          "indexed": false,
          "internalType": "address",
          "name": "player",
          "type": "address"
        }
      ],
      "name": "PlanetTransferred",
      "type": "event"
    },
    {
      "anonymous": false,
      "inputs": [
        {
          "indexed": false,
          "internalType": "uint256",
          "name": "loc",
          "type": "uint256"
        }
      ],
      "name": "PlanetUpgraded",
      "type": "event"
    },
    {
      "anonymous": false,
      "inputs": [
        {
          "indexed": false,
          "internalType": "address",
          "name": "player",
          "type": "address"
        },
        {
          "indexed": false,
          "internalType": "uint256",
          "name": "loc",
          "type": "uint256"
        }
      ],
      "name": "PlayerInitialized",
      "type": "event"
    },
    {
      "anonymous": false,
      "inputs": [
        {
          "indexed": false,
          "internalType": "address",
          "name": "player",
          "type": "address"
        }
      ],
      "name": "PlayerRemovedFromWhitelist",
      "type": "event"
    },
    {
      "anonymous": false,
      "inputs": [
        {
          "indexed": false,
          "internalType": "address",
          "name": "player",
          "type": "address"
        }
      ],
      "name": "PlayerWhitelisted",
      "type": "event"
    },
    {
      "anonymous": false,
      "inputs": [
        {
          "indexed": false,
          "internalType": "bool",
          "name": "enabled",
          "type": "bool"
        }
      ],
      "name": "WhitelistStatusChanged",
      "type": "event"
    },
    {
      "anonymous": false,
      "inputs": [
        {
          "indexed": false,
          "internalType": "uint256",
          "name": "loc",
          "type": "uint256"
        },
        {
          "indexed": false,
          "internalType": "address",
          "name": "player",
          "type": "address"
        },
        {
          "indexed": false,
          "internalType": "uint256",
          "name": "artifactId",
          "type": "uint256"
        }
      ],
      "name": "WithdrewArtifact",
      "type": "event"
    },
    {
      "inputs": [],
      "name": "ARTIFACT_LOCKUP_DURATION_SECONDS",
      "outputs": [
        {
          "internalType": "uint256",
          "name": "",
          "type": "uint256"
        }
      ],
      "stateMutability": "view",
      "type": "function"
    },
    {
      "inputs": [],
      "name": "BIOME_THRESHOLD_1",
      "outputs": [
        {
          "internalType": "uint256",
          "name": "",
          "type": "uint256"
        }
      ],
      "stateMutability": "view",
      "type": "function"
    },
    {
      "inputs": [],
      "name": "BIOME_THRESHOLD_2",
      "outputs": [
        {
          "internalType": "uint256",
          "name": "",
          "type": "uint256"
        }
      ],
      "stateMutability": "view",
      "type": "function"
    },
    {
      "inputs": [],
      "name": "DISABLE_ZK_CHECK",
      "outputs": [
        {
          "internalType": "bool",
          "name": "",
          "type": "bool"
        }
      ],
      "stateMutability": "view",
      "type": "function"
    },
    {
      "inputs": [],
      "name": "PERLIN_THRESHOLD_1",
      "outputs": [
        {
          "internalType": "uint256",
          "name": "",
          "type": "uint256"
        }
      ],
      "stateMutability": "view",
      "type": "function"
    },
    {
      "inputs": [],
      "name": "PERLIN_THRESHOLD_2",
      "outputs": [
        {
          "internalType": "uint256",
          "name": "",
          "type": "uint256"
        }
      ],
      "stateMutability": "view",
      "type": "function"
    },
    {
      "inputs": [],
      "name": "PLANET_RARITY",
      "outputs": [
        {
          "internalType": "uint256",
          "name": "",
          "type": "uint256"
        }
      ],
      "stateMutability": "view",
      "type": "function"
    },
    {
      "inputs": [],
      "name": "SILVER_RARITY_1",
      "outputs": [
        {
          "internalType": "uint256",
          "name": "",
          "type": "uint256"
        }
      ],
      "stateMutability": "view",
      "type": "function"
    },
    {
      "inputs": [],
      "name": "SILVER_RARITY_2",
      "outputs": [
        {
          "internalType": "uint256",
          "name": "",
          "type": "uint256"
        }
      ],
      "stateMutability": "view",
      "type": "function"
    },
    {
      "inputs": [],
      "name": "SILVER_RARITY_3",
      "outputs": [
        {
          "internalType": "uint256",
          "name": "",
          "type": "uint256"
        }
      ],
      "stateMutability": "view",
      "type": "function"
    },
    {
      "inputs": [],
      "name": "TIME_FACTOR_HUNDREDTHS",
      "outputs": [
        {
          "internalType": "uint256",
          "name": "",
          "type": "uint256"
        }
      ],
      "stateMutability": "view",
      "type": "function"
    },
    {
      "inputs": [
        {
          "internalType": "uint256",
          "name": "_loc",
          "type": "uint256"
        }
      ],
      "name": "_locationIdValid",
      "outputs": [
        {
          "internalType": "bool",
          "name": "",
          "type": "bool"
        }
      ],
      "stateMutability": "view",
      "type": "function"
    },
    {
      "inputs": [],
      "name": "adminAddress",
      "outputs": [
        {
          "internalType": "address",
          "name": "",
          "type": "address"
        }
      ],
      "stateMutability": "view",
      "type": "function"
    },
    {
      "inputs": [
        {
          "internalType": "uint256[]",
          "name": "ids",
          "type": "uint256[]"
        }
      ],
      "name": "bulkGetArtifactsByIds",
      "outputs": [
        {
          "components": [
            {
              "components": [
                {
                  "internalType": "uint256",
                  "name": "id",
                  "type": "uint256"
                },
                {
                  "internalType": "uint256",
                  "name": "planetDiscoveredOn",
                  "type": "uint256"
                },
                {
                  "internalType": "uint256",
                  "name": "planetLevel",
                  "type": "uint256"
                },
                {
                  "internalType": "enum DarkForestTypes.Biome",
                  "name": "planetBiome",
                  "type": "uint8"
                },
                {
                  "internalType": "uint256",
                  "name": "mintedAtTimestamp",
                  "type": "uint256"
                },
                {
                  "internalType": "address",
                  "name": "discoverer",
                  "type": "address"
                },
                {
                  "internalType": "enum DarkForestTypes.ArtifactType",
                  "name": "artifactType",
                  "type": "uint8"
                }
              ],
              "internalType": "struct DarkForestTypes.Artifact",
              "name": "artifact",
              "type": "tuple"
            },
            {
              "components": [
                {
                  "internalType": "uint256",
                  "name": "popCapMultiplier",
                  "type": "uint256"
                },
                {
                  "internalType": "uint256",
                  "name": "popGroMultiplier",
                  "type": "uint256"
                },
                {
                  "internalType": "uint256",
                  "name": "rangeMultiplier",
                  "type": "uint256"
                },
                {
                  "internalType": "uint256",
                  "name": "speedMultiplier",
                  "type": "uint256"
                },
                {
                  "internalType": "uint256",
                  "name": "defMultiplier",
                  "type": "uint256"
                }
              ],
              "internalType": "struct DarkForestTypes.Upgrade",
              "name": "upgrade",
              "type": "tuple"
            },
            {
              "internalType": "address",
              "name": "owner",
              "type": "address"
            },
            {
              "internalType": "uint256",
              "name": "locationId",
              "type": "uint256"
            }
          ],
          "internalType": "struct DarkForestTypes.ArtifactWithMetadata[]",
          "name": "ret",
          "type": "tuple[]"
        }
      ],
      "stateMutability": "view",
      "type": "function"
    },
    {
      "inputs": [
        {
          "internalType": "uint256[]",
          "name": "ids",
          "type": "uint256[]"
        }
      ],
      "name": "bulkGetCompactArrivalsByIds",
      "outputs": [
        {
          "components": [
            {
              "internalType": "uint256",
              "name": "popArriving",
              "type": "uint256"
            },
            {
              "internalType": "uint256",
              "name": "silverMoved",
              "type": "uint256"
            },
            {
              "internalType": "uint256",
              "name": "departureTime",
              "type": "uint256"
            },
            {
              "internalType": "uint256",
              "name": "arrivalTime",
              "type": "uint256"
            },
            {
              "internalType": "uint256",
              "name": "fromPlanet",
              "type": "uint256"
            },
            {
              "internalType": "address",
              "name": "fromPlanetOwner",
              "type": "address"
            },
            {
              "internalType": "uint256",
              "name": "fromPlanetPopulation",
              "type": "uint256"
            },
            {
              "internalType": "uint256",
              "name": "fromPlanetSilver",
              "type": "uint256"
            },
            {
              "internalType": "uint256",
              "name": "toPlanet",
              "type": "uint256"
            },
            {
              "internalType": "address",
              "name": "toPlanetOwner",
              "type": "address"
            },
            {
              "internalType": "uint256",
              "name": "toPlanetPopulation",
              "type": "uint256"
            },
            {
              "internalType": "uint256",
              "name": "toPlanetSilver",
              "type": "uint256"
            }
          ],
          "internalType": "struct DarkForestTypes.CompactArrival[]",
          "name": "ret",
          "type": "tuple[]"
        }
      ],
      "stateMutability": "view",
      "type": "function"
    },
    {
      "inputs": [
        {
          "internalType": "uint256",
          "name": "startIdx",
          "type": "uint256"
        },
        {
          "internalType": "uint256",
          "name": "endIdx",
          "type": "uint256"
        }
      ],
      "name": "bulkGetPlanetArrivals",
      "outputs": [
        {
          "components": [
            {
              "internalType": "uint256",
              "name": "id",
              "type": "uint256"
            },
            {
              "internalType": "address",
              "name": "player",
              "type": "address"
            },
            {
              "internalType": "uint256",
              "name": "fromPlanet",
              "type": "uint256"
            },
            {
              "internalType": "uint256",
              "name": "toPlanet",
              "type": "uint256"
            },
            {
              "internalType": "uint256",
              "name": "popArriving",
              "type": "uint256"
            },
            {
              "internalType": "uint256",
              "name": "silverMoved",
              "type": "uint256"
            },
            {
              "internalType": "uint256",
              "name": "departureTime",
              "type": "uint256"
            },
            {
              "internalType": "uint256",
              "name": "arrivalTime",
              "type": "uint256"
            }
          ],
          "internalType": "struct DarkForestTypes.ArrivalData[][]",
          "name": "",
          "type": "tuple[][]"
        }
      ],
      "stateMutability": "view",
      "type": "function"
    },
    {
      "inputs": [
        {
          "internalType": "uint256[]",
          "name": "ids",
          "type": "uint256[]"
        }
      ],
      "name": "bulkGetPlanetArrivalsByIds",
      "outputs": [
        {
          "components": [
            {
              "internalType": "uint256",
              "name": "id",
              "type": "uint256"
            },
            {
              "internalType": "address",
              "name": "player",
              "type": "address"
            },
            {
              "internalType": "uint256",
              "name": "fromPlanet",
              "type": "uint256"
            },
            {
              "internalType": "uint256",
              "name": "toPlanet",
              "type": "uint256"
            },
            {
              "internalType": "uint256",
              "name": "popArriving",
              "type": "uint256"
            },
            {
              "internalType": "uint256",
              "name": "silverMoved",
              "type": "uint256"
            },
            {
              "internalType": "uint256",
              "name": "departureTime",
              "type": "uint256"
            },
            {
              "internalType": "uint256",
              "name": "arrivalTime",
              "type": "uint256"
            }
          ],
          "internalType": "struct DarkForestTypes.ArrivalData[][]",
          "name": "",
          "type": "tuple[][]"
        }
      ],
      "stateMutability": "view",
      "type": "function"
    },
    {
      "inputs": [
        {
          "internalType": "uint256",
          "name": "startIdx",
          "type": "uint256"
        },
        {
          "internalType": "uint256",
          "name": "endIdx",
          "type": "uint256"
        }
      ],
      "name": "bulkGetPlanetIds",
      "outputs": [
        {
          "internalType": "uint256[]",
          "name": "ret",
          "type": "uint256[]"
        }
      ],
      "stateMutability": "view",
      "type": "function"
    },
    {
      "inputs": [
        {
          "internalType": "uint256",
          "name": "startIdx",
          "type": "uint256"
        },
        {
          "internalType": "uint256",
          "name": "endIdx",
          "type": "uint256"
        }
      ],
      "name": "bulkGetPlanets",
      "outputs": [
        {
          "components": [
            {
              "internalType": "address",
              "name": "owner",
              "type": "address"
            },
            {
              "internalType": "uint256",
              "name": "range",
              "type": "uint256"
            },
            {
              "internalType": "uint256",
              "name": "speed",
              "type": "uint256"
            },
            {
              "internalType": "uint256",
              "name": "defense",
              "type": "uint256"
            },
            {
              "internalType": "uint256",
              "name": "population",
              "type": "uint256"
            },
            {
              "internalType": "uint256",
              "name": "populationCap",
              "type": "uint256"
            },
            {
              "internalType": "uint256",
              "name": "populationGrowth",
              "type": "uint256"
            },
            {
              "internalType": "enum DarkForestTypes.PlanetResource",
              "name": "planetResource",
              "type": "uint8"
            },
            {
              "internalType": "uint256",
              "name": "silverCap",
              "type": "uint256"
            },
            {
              "internalType": "uint256",
              "name": "silverGrowth",
              "type": "uint256"
            },
            {
              "internalType": "uint256",
              "name": "silver",
              "type": "uint256"
            },
            {
              "internalType": "uint256",
              "name": "planetLevel",
              "type": "uint256"
            }
          ],
          "internalType": "struct DarkForestTypes.Planet[]",
          "name": "ret",
          "type": "tuple[]"
        }
      ],
      "stateMutability": "view",
      "type": "function"
    },
    {
      "inputs": [
        {
          "internalType": "uint256[]",
          "name": "ids",
          "type": "uint256[]"
        }
      ],
      "name": "bulkGetPlanetsByIds",
      "outputs": [
        {
          "components": [
            {
              "internalType": "address",
              "name": "owner",
              "type": "address"
            },
            {
              "internalType": "uint256",
              "name": "range",
              "type": "uint256"
            },
            {
              "internalType": "uint256",
              "name": "speed",
              "type": "uint256"
            },
            {
              "internalType": "uint256",
              "name": "defense",
              "type": "uint256"
            },
            {
              "internalType": "uint256",
              "name": "population",
              "type": "uint256"
            },
            {
              "internalType": "uint256",
              "name": "populationCap",
              "type": "uint256"
            },
            {
              "internalType": "uint256",
              "name": "populationGrowth",
              "type": "uint256"
            },
            {
              "internalType": "enum DarkForestTypes.PlanetResource",
              "name": "planetResource",
              "type": "uint8"
            },
            {
              "internalType": "uint256",
              "name": "silverCap",
              "type": "uint256"
            },
            {
              "internalType": "uint256",
              "name": "silverGrowth",
              "type": "uint256"
            },
            {
              "internalType": "uint256",
              "name": "silver",
              "type": "uint256"
            },
            {
              "internalType": "uint256",
              "name": "planetLevel",
              "type": "uint256"
            }
          ],
          "internalType": "struct DarkForestTypes.Planet[]",
          "name": "ret",
          "type": "tuple[]"
        }
      ],
      "stateMutability": "view",
      "type": "function"
    },
    {
      "inputs": [
        {
          "internalType": "uint256",
          "name": "startIdx",
          "type": "uint256"
        },
        {
          "internalType": "uint256",
          "name": "endIdx",
          "type": "uint256"
        }
      ],
      "name": "bulkGetPlanetsExtendedInfo",
      "outputs": [
        {
          "components": [
            {
              "internalType": "bool",
              "name": "isInitialized",
              "type": "bool"
            },
            {
              "internalType": "uint256",
              "name": "createdAt",
              "type": "uint256"
            },
            {
              "internalType": "uint256",
              "name": "lastUpdated",
              "type": "uint256"
            },
            {
              "internalType": "uint256",
              "name": "perlin",
              "type": "uint256"
            },
            {
              "internalType": "enum DarkForestTypes.SpaceType",
              "name": "spaceType",
              "type": "uint8"
            },
            {
              "internalType": "uint256",
              "name": "upgradeState0",
              "type": "uint256"
            },
            {
              "internalType": "uint256",
              "name": "upgradeState1",
              "type": "uint256"
            },
            {
              "internalType": "uint256",
              "name": "upgradeState2",
              "type": "uint256"
            },
            {
              "internalType": "uint256",
              "name": "hatLevel",
              "type": "uint256"
            },
            {
              "internalType": "bool",
              "name": "hasTriedFindingArtifact",
              "type": "bool"
            },
            {
              "internalType": "uint256",
              "name": "heldArtifactId",
              "type": "uint256"
            },
            {
              "internalType": "uint256",
              "name": "artifactLockedTimestamp",
              "type": "uint256"
            }
          ],
          "internalType": "struct DarkForestTypes.PlanetExtendedInfo[]",
          "name": "ret",
          "type": "tuple[]"
        }
      ],
      "stateMutability": "view",
      "type": "function"
    },
    {
      "inputs": [
        {
          "internalType": "uint256[]",
          "name": "ids",
          "type": "uint256[]"
        }
      ],
      "name": "bulkGetPlanetsExtendedInfoByIds",
      "outputs": [
        {
          "components": [
            {
              "internalType": "bool",
              "name": "isInitialized",
              "type": "bool"
            },
            {
              "internalType": "uint256",
              "name": "createdAt",
              "type": "uint256"
            },
            {
              "internalType": "uint256",
              "name": "lastUpdated",
              "type": "uint256"
            },
            {
              "internalType": "uint256",
              "name": "perlin",
              "type": "uint256"
            },
            {
              "internalType": "enum DarkForestTypes.SpaceType",
              "name": "spaceType",
              "type": "uint8"
            },
            {
              "internalType": "uint256",
              "name": "upgradeState0",
              "type": "uint256"
            },
            {
              "internalType": "uint256",
              "name": "upgradeState1",
              "type": "uint256"
            },
            {
              "internalType": "uint256",
              "name": "upgradeState2",
              "type": "uint256"
            },
            {
              "internalType": "uint256",
              "name": "hatLevel",
              "type": "uint256"
            },
            {
              "internalType": "bool",
              "name": "hasTriedFindingArtifact",
              "type": "bool"
            },
            {
              "internalType": "uint256",
              "name": "heldArtifactId",
              "type": "uint256"
            },
            {
              "internalType": "uint256",
              "name": "artifactLockedTimestamp",
              "type": "uint256"
            }
          ],
          "internalType": "struct DarkForestTypes.PlanetExtendedInfo[]",
          "name": "ret",
          "type": "tuple[]"
        }
      ],
      "stateMutability": "view",
      "type": "function"
    },
    {
      "inputs": [
        {
          "internalType": "uint256",
          "name": "startIdx",
          "type": "uint256"
        },
        {
          "internalType": "uint256",
          "name": "endIdx",
          "type": "uint256"
        }
      ],
      "name": "bulkGetPlayers",
      "outputs": [
        {
          "internalType": "address[]",
          "name": "ret",
          "type": "address[]"
        }
      ],
      "stateMutability": "view",
      "type": "function"
    },
    {
      "inputs": [
        {
          "internalType": "uint256",
          "name": "_location",
          "type": "uint256"
        }
      ],
      "name": "buyHat",
      "outputs": [],
      "stateMutability": "payable",
      "type": "function"
    },
    {
      "inputs": [
        {
          "internalType": "address",
          "name": "_newAdmin",
          "type": "address"
        }
      ],
      "name": "changeAdmin",
      "outputs": [],
      "stateMutability": "nonpayable",
      "type": "function"
    },
    {
      "inputs": [
        {
          "internalType": "uint256",
          "name": "_newConstant",
          "type": "uint256"
        }
      ],
      "name": "changeTarget4RadiusConstant",
      "outputs": [],
      "stateMutability": "nonpayable",
      "type": "function"
    },
    {
      "inputs": [
        {
          "internalType": "uint256",
          "name": "_newEnd",
          "type": "uint256"
        }
      ],
      "name": "changeTokenMintEndTime",
      "outputs": [],
      "stateMutability": "nonpayable",
      "type": "function"
    },
    {
      "inputs": [
        {
          "internalType": "uint256",
          "name": "",
          "type": "uint256"
        }
      ],
      "name": "contractOwnedArtifactLocations",
      "outputs": [
        {
          "internalType": "uint256",
          "name": "",
          "type": "uint256"
        }
      ],
      "stateMutability": "view",
      "type": "function"
    },
    {
      "inputs": [
        {
          "internalType": "uint256",
          "name": "",
          "type": "uint256"
        }
      ],
      "name": "cumulativeRarities",
      "outputs": [
        {
          "internalType": "uint256",
          "name": "",
          "type": "uint256"
        }
      ],
      "stateMutability": "view",
      "type": "function"
    },
    {
      "inputs": [
        {
          "internalType": "uint256",
          "name": "locationId",
          "type": "uint256"
        },
        {
          "internalType": "uint256",
          "name": "artifactId",
          "type": "uint256"
        }
      ],
      "name": "depositArtifact",
      "outputs": [],
      "stateMutability": "nonpayable",
      "type": "function"
    },
    {
      "inputs": [
        {
          "internalType": "uint256",
          "name": "tokenId",
          "type": "uint256"
        }
      ],
      "name": "doesArtifactExist",
      "outputs": [
        {
          "internalType": "bool",
          "name": "",
          "type": "bool"
        }
      ],
      "stateMutability": "view",
      "type": "function"
    },
    {
      "inputs": [
        {
          "internalType": "uint256[2]",
          "name": "_a",
          "type": "uint256[2]"
        },
        {
          "internalType": "uint256[2][2]",
          "name": "_b",
          "type": "uint256[2][2]"
        },
        {
          "internalType": "uint256[2]",
          "name": "_c",
          "type": "uint256[2]"
        },
        {
          "internalType": "uint256[2]",
          "name": "_input",
          "type": "uint256[2]"
        }
      ],
      "name": "findArtifact",
      "outputs": [],
      "stateMutability": "nonpayable",
      "type": "function"
    },
    {
      "inputs": [
        {
          "internalType": "uint256",
          "name": "artifactId",
          "type": "uint256"
        }
      ],
      "name": "getArtifactById",
      "outputs": [
        {
          "components": [
            {
              "components": [
                {
                  "internalType": "uint256",
                  "name": "id",
                  "type": "uint256"
                },
                {
                  "internalType": "uint256",
                  "name": "planetDiscoveredOn",
                  "type": "uint256"
                },
                {
                  "internalType": "uint256",
                  "name": "planetLevel",
                  "type": "uint256"
                },
                {
                  "internalType": "enum DarkForestTypes.Biome",
                  "name": "planetBiome",
                  "type": "uint8"
                },
                {
                  "internalType": "uint256",
                  "name": "mintedAtTimestamp",
                  "type": "uint256"
                },
                {
                  "internalType": "address",
                  "name": "discoverer",
                  "type": "address"
                },
                {
                  "internalType": "enum DarkForestTypes.ArtifactType",
                  "name": "artifactType",
                  "type": "uint8"
                }
              ],
              "internalType": "struct DarkForestTypes.Artifact",
              "name": "artifact",
              "type": "tuple"
            },
            {
              "components": [
                {
                  "internalType": "uint256",
                  "name": "popCapMultiplier",
                  "type": "uint256"
                },
                {
                  "internalType": "uint256",
                  "name": "popGroMultiplier",
                  "type": "uint256"
                },
                {
                  "internalType": "uint256",
                  "name": "rangeMultiplier",
                  "type": "uint256"
                },
                {
                  "internalType": "uint256",
                  "name": "speedMultiplier",
                  "type": "uint256"
                },
                {
                  "internalType": "uint256",
                  "name": "defMultiplier",
                  "type": "uint256"
                }
              ],
              "internalType": "struct DarkForestTypes.Upgrade",
              "name": "upgrade",
              "type": "tuple"
            },
            {
              "internalType": "address",
              "name": "owner",
              "type": "address"
            },
            {
              "internalType": "uint256",
              "name": "locationId",
              "type": "uint256"
            }
          ],
          "internalType": "struct DarkForestTypes.ArtifactWithMetadata",
          "name": "ret",
          "type": "tuple"
        }
      ],
      "stateMutability": "view",
      "type": "function"
    },
    {
      "inputs": [],
      "name": "getDefaultStats",
      "outputs": [
        {
          "components": [
            {
              "internalType": "string",
              "name": "label",
              "type": "string"
            },
            {
              "internalType": "uint256",
              "name": "populationCap",
              "type": "uint256"
            },
            {
              "internalType": "uint256",
              "name": "populationGrowth",
              "type": "uint256"
            },
            {
              "internalType": "uint256",
              "name": "range",
              "type": "uint256"
            },
            {
              "internalType": "uint256",
              "name": "speed",
              "type": "uint256"
            },
            {
              "internalType": "uint256",
              "name": "defense",
              "type": "uint256"
            },
            {
              "internalType": "uint256",
              "name": "silverGrowth",
              "type": "uint256"
            },
            {
              "internalType": "uint256",
              "name": "silverCap",
              "type": "uint256"
            },
            {
              "internalType": "uint256",
              "name": "barbarianPercentage",
              "type": "uint256"
            }
          ],
          "internalType": "struct DarkForestTypes.PlanetDefaultStats[]",
          "name": "",
          "type": "tuple[]"
        }
      ],
      "stateMutability": "view",
      "type": "function"
    },
    {
      "inputs": [],
      "name": "getNPlanets",
      "outputs": [
        {
          "internalType": "uint256",
          "name": "",
          "type": "uint256"
        }
      ],
      "stateMutability": "view",
      "type": "function"
    },
    {
      "inputs": [],
      "name": "getNPlayers",
      "outputs": [
        {
          "internalType": "uint256",
          "name": "",
          "type": "uint256"
        }
      ],
      "stateMutability": "view",
      "type": "function"
    },
    {
      "inputs": [
        {
          "internalType": "uint256",
          "name": "_location",
          "type": "uint256"
        }
      ],
      "name": "getPlanetArrivals",
      "outputs": [
        {
          "components": [
            {
              "internalType": "uint256",
              "name": "id",
              "type": "uint256"
            },
            {
              "internalType": "address",
              "name": "player",
              "type": "address"
            },
            {
              "internalType": "uint256",
              "name": "fromPlanet",
              "type": "uint256"
            },
            {
              "internalType": "uint256",
              "name": "toPlanet",
              "type": "uint256"
            },
            {
              "internalType": "uint256",
              "name": "popArriving",
              "type": "uint256"
            },
            {
              "internalType": "uint256",
              "name": "silverMoved",
              "type": "uint256"
            },
            {
              "internalType": "uint256",
              "name": "departureTime",
              "type": "uint256"
            },
            {
              "internalType": "uint256",
              "name": "arrivalTime",
              "type": "uint256"
            }
          ],
          "internalType": "struct DarkForestTypes.ArrivalData[]",
          "name": "ret",
          "type": "tuple[]"
        }
      ],
      "stateMutability": "view",
      "type": "function"
    },
    {
      "inputs": [],
      "name": "getPlanetCumulativeRarities",
      "outputs": [
        {
          "internalType": "uint256[]",
          "name": "",
          "type": "uint256[]"
        }
      ],
      "stateMutability": "view",
      "type": "function"
    },
    {
      "inputs": [],
      "name": "getPlanetLevelThresholds",
      "outputs": [
        {
          "internalType": "uint256[]",
          "name": "",
          "type": "uint256[]"
        }
      ],
      "stateMutability": "view",
      "type": "function"
    },
    {
      "inputs": [
        {
          "internalType": "address",
          "name": "playerId",
          "type": "address"
        }
      ],
      "name": "getPlayerArtifactIds",
      "outputs": [
        {
          "internalType": "uint256[]",
          "name": "",
          "type": "uint256[]"
        }
      ],
      "stateMutability": "view",
      "type": "function"
    },
    {
      "inputs": [],
      "name": "getUpgrades",
      "outputs": [
        {
          "components": [
            {
              "internalType": "uint256",
              "name": "popCapMultiplier",
              "type": "uint256"
            },
            {
              "internalType": "uint256",
              "name": "popGroMultiplier",
              "type": "uint256"
            },
            {
              "internalType": "uint256",
              "name": "rangeMultiplier",
              "type": "uint256"
            },
            {
              "internalType": "uint256",
              "name": "speedMultiplier",
              "type": "uint256"
            },
            {
              "internalType": "uint256",
              "name": "defMultiplier",
              "type": "uint256"
            }
          ],
          "internalType": "struct DarkForestTypes.Upgrade[4][3]",
          "name": "",
          "type": "tuple[4][3]"
        }
      ],
      "stateMutability": "view",
      "type": "function"
    },
    {
      "inputs": [
        {
          "components": [
            {
              "internalType": "address",
              "name": "adminAddress",
              "type": "address"
            },
            {
              "internalType": "bool",
              "name": "whitelistEnabled",
              "type": "bool"
            },
            {
              "internalType": "bool",
              "name": "paused",
              "type": "bool"
            },
            {
              "internalType": "bool",
              "name": "DISABLE_ZK_CHECK",
              "type": "bool"
            },
            {
              "internalType": "uint256",
              "name": "TIME_FACTOR_HUNDREDTHS",
              "type": "uint256"
            },
            {
              "internalType": "uint256",
              "name": "PERLIN_THRESHOLD_1",
              "type": "uint256"
            },
            {
              "internalType": "uint256",
              "name": "PERLIN_THRESHOLD_2",
              "type": "uint256"
            },
            {
              "internalType": "uint256",
              "name": "BIOME_THRESHOLD_1",
              "type": "uint256"
            },
            {
              "internalType": "uint256",
              "name": "BIOME_THRESHOLD_2",
              "type": "uint256"
            },
            {
              "internalType": "uint256",
              "name": "PLANET_RARITY",
              "type": "uint256"
            },
            {
              "internalType": "uint256",
              "name": "SILVER_RARITY_1",
              "type": "uint256"
            },
            {
              "internalType": "uint256",
              "name": "SILVER_RARITY_2",
              "type": "uint256"
            },
            {
              "internalType": "uint256",
              "name": "SILVER_RARITY_3",
              "type": "uint256"
            },
            {
              "internalType": "uint256[]",
              "name": "planetLevelThresholds",
              "type": "uint256[]"
            },
            {
              "internalType": "uint256",
              "name": "gameEndTimestamp",
              "type": "uint256"
            },
            {
              "internalType": "uint256",
              "name": "target4RadiusConstant",
              "type": "uint256"
            },
            {
              "internalType": "uint256",
              "name": "target5RadiusConstant",
              "type": "uint256"
            },
            {
              "internalType": "uint256",
              "name": "ARTIFACT_LOCKUP_DURATION_SECONDS",
              "type": "uint256"
            },
            {
              "internalType": "address",
              "name": "tokensAddress",
              "type": "address"
            }
          ],
          "internalType": "struct DarkForestTypes.DarkForestGameConfig",
          "name": "_gameConfig",
          "type": "tuple"
        }
      ],
      "name": "init",
      "outputs": [],
      "stateMutability": "nonpayable",
      "type": "function"
    },
    {
      "inputs": [
        {
          "internalType": "uint256[2]",
          "name": "_a",
          "type": "uint256[2]"
        },
        {
          "internalType": "uint256[2][2]",
          "name": "_b",
          "type": "uint256[2][2]"
        },
        {
          "internalType": "uint256[2]",
          "name": "_c",
          "type": "uint256[2]"
        },
        {
          "internalType": "uint256[3]",
          "name": "_input",
          "type": "uint256[3]"
        }
      ],
      "name": "initializePlayer",
      "outputs": [
        {
          "internalType": "uint256",
          "name": "",
          "type": "uint256"
        }
      ],
      "stateMutability": "nonpayable",
      "type": "function"
    },
    {
      "inputs": [
        {
          "internalType": "uint256",
          "name": "",
          "type": "uint256"
        }
      ],
      "name": "initializedPlanetCountByLevel",
      "outputs": [
        {
          "internalType": "uint256",
          "name": "",
          "type": "uint256"
        }
      ],
      "stateMutability": "view",
      "type": "function"
    },
    {
      "inputs": [
        {
          "internalType": "address",
          "name": "",
          "type": "address"
        }
      ],
      "name": "isPlayerInitialized",
      "outputs": [
        {
          "internalType": "bool",
          "name": "",
          "type": "bool"
        }
      ],
      "stateMutability": "view",
      "type": "function"
    },
    {
      "inputs": [
        {
          "internalType": "uint256[2]",
          "name": "_a",
          "type": "uint256[2]"
        },
        {
          "internalType": "uint256[2][2]",
          "name": "_b",
          "type": "uint256[2][2]"
        },
        {
          "internalType": "uint256[2]",
          "name": "_c",
          "type": "uint256[2]"
        },
        {
          "internalType": "uint256[7]",
          "name": "_input",
          "type": "uint256[7]"
        }
      ],
      "name": "move",
      "outputs": [
        {
          "internalType": "uint256",
          "name": "",
          "type": "uint256"
        }
      ],
      "stateMutability": "nonpayable",
      "type": "function"
    },
    {
      "inputs": [],
      "name": "pause",
      "outputs": [],
      "stateMutability": "nonpayable",
      "type": "function"
    },
    {
      "inputs": [],
      "name": "paused",
      "outputs": [
        {
          "internalType": "bool",
          "name": "",
          "type": "bool"
        }
      ],
      "stateMutability": "view",
      "type": "function"
    },
    {
      "inputs": [
        {
          "internalType": "uint256",
          "name": "",
          "type": "uint256"
        }
      ],
      "name": "planetArrivals",
      "outputs": [
        {
          "internalType": "uint256",
          "name": "id",
          "type": "uint256"
        },
        {
          "internalType": "address",
          "name": "player",
          "type": "address"
        },
        {
          "internalType": "uint256",
          "name": "fromPlanet",
          "type": "uint256"
        },
        {
          "internalType": "uint256",
          "name": "toPlanet",
          "type": "uint256"
        },
        {
          "internalType": "uint256",
          "name": "popArriving",
          "type": "uint256"
        },
        {
          "internalType": "uint256",
          "name": "silverMoved",
          "type": "uint256"
        },
        {
          "internalType": "uint256",
          "name": "departureTime",
          "type": "uint256"
        },
        {
          "internalType": "uint256",
          "name": "arrivalTime",
          "type": "uint256"
        }
      ],
      "stateMutability": "view",
      "type": "function"
    },
    {
      "inputs": [
        {
          "internalType": "uint256",
          "name": "",
          "type": "uint256"
        }
      ],
      "name": "planetDefaultStats",
      "outputs": [
        {
          "internalType": "string",
          "name": "label",
          "type": "string"
        },
        {
          "internalType": "uint256",
          "name": "populationCap",
          "type": "uint256"
        },
        {
          "internalType": "uint256",
          "name": "populationGrowth",
          "type": "uint256"
        },
        {
          "internalType": "uint256",
          "name": "range",
          "type": "uint256"
        },
        {
          "internalType": "uint256",
          "name": "speed",
          "type": "uint256"
        },
        {
          "internalType": "uint256",
          "name": "defense",
          "type": "uint256"
        },
        {
          "internalType": "uint256",
          "name": "silverGrowth",
          "type": "uint256"
        },
        {
          "internalType": "uint256",
          "name": "silverCap",
          "type": "uint256"
        },
        {
          "internalType": "uint256",
          "name": "barbarianPercentage",
          "type": "uint256"
        }
      ],
      "stateMutability": "view",
      "type": "function"
    },
    {
      "inputs": [
        {
          "internalType": "uint256",
          "name": "",
          "type": "uint256"
        },
        {
          "internalType": "uint256",
          "name": "",
          "type": "uint256"
        }
      ],
      "name": "planetEvents",
      "outputs": [
        {
          "internalType": "uint256",
          "name": "id",
          "type": "uint256"
        },
        {
          "internalType": "enum DarkForestTypes.PlanetEventType",
          "name": "eventType",
          "type": "uint8"
        },
        {
          "internalType": "uint256",
          "name": "timeTrigger",
          "type": "uint256"
        },
        {
          "internalType": "uint256",
          "name": "timeAdded",
          "type": "uint256"
        }
      ],
      "stateMutability": "view",
      "type": "function"
    },
    {
      "inputs": [],
      "name": "planetEventsCount",
      "outputs": [
        {
          "internalType": "uint256",
          "name": "",
          "type": "uint256"
        }
      ],
      "stateMutability": "view",
      "type": "function"
    },
    {
      "inputs": [
        {
          "internalType": "uint256",
          "name": "",
          "type": "uint256"
        }
      ],
      "name": "planetIds",
      "outputs": [
        {
          "internalType": "uint256",
          "name": "",
          "type": "uint256"
        }
      ],
      "stateMutability": "view",
      "type": "function"
    },
    {
      "inputs": [
        {
          "internalType": "uint256",
          "name": "",
          "type": "uint256"
        }
      ],
      "name": "planetLevelThresholds",
      "outputs": [
        {
          "internalType": "uint256",
          "name": "",
          "type": "uint256"
        }
      ],
      "stateMutability": "view",
      "type": "function"
    },
    {
      "inputs": [
        {
          "internalType": "uint256",
          "name": "",
          "type": "uint256"
        }
      ],
      "name": "planets",
      "outputs": [
        {
          "internalType": "address",
          "name": "owner",
          "type": "address"
        },
        {
          "internalType": "uint256",
          "name": "range",
          "type": "uint256"
        },
        {
          "internalType": "uint256",
          "name": "speed",
          "type": "uint256"
        },
        {
          "internalType": "uint256",
          "name": "defense",
          "type": "uint256"
        },
        {
          "internalType": "uint256",
          "name": "population",
          "type": "uint256"
        },
        {
          "internalType": "uint256",
          "name": "populationCap",
          "type": "uint256"
        },
        {
          "internalType": "uint256",
          "name": "populationGrowth",
          "type": "uint256"
        },
        {
          "internalType": "enum DarkForestTypes.PlanetResource",
          "name": "planetResource",
          "type": "uint8"
        },
        {
          "internalType": "uint256",
          "name": "silverCap",
          "type": "uint256"
        },
        {
          "internalType": "uint256",
          "name": "silverGrowth",
          "type": "uint256"
        },
        {
          "internalType": "uint256",
          "name": "silver",
          "type": "uint256"
        },
        {
          "internalType": "uint256",
          "name": "planetLevel",
          "type": "uint256"
        }
      ],
      "stateMutability": "view",
      "type": "function"
    },
    {
      "inputs": [
        {
          "internalType": "uint256",
          "name": "",
          "type": "uint256"
        }
      ],
      "name": "planetsExtendedInfo",
      "outputs": [
        {
          "internalType": "bool",
          "name": "isInitialized",
          "type": "bool"
        },
        {
          "internalType": "uint256",
          "name": "createdAt",
          "type": "uint256"
        },
        {
          "internalType": "uint256",
          "name": "lastUpdated",
          "type": "uint256"
        },
        {
          "internalType": "uint256",
          "name": "perlin",
          "type": "uint256"
        },
        {
          "internalType": "enum DarkForestTypes.SpaceType",
          "name": "spaceType",
          "type": "uint8"
        },
        {
          "internalType": "uint256",
          "name": "upgradeState0",
          "type": "uint256"
        },
        {
          "internalType": "uint256",
          "name": "upgradeState1",
          "type": "uint256"
        },
        {
          "internalType": "uint256",
          "name": "upgradeState2",
          "type": "uint256"
        },
        {
          "internalType": "uint256",
          "name": "hatLevel",
          "type": "uint256"
        },
        {
          "internalType": "bool",
          "name": "hasTriedFindingArtifact",
          "type": "bool"
        },
        {
          "internalType": "uint256",
          "name": "heldArtifactId",
          "type": "uint256"
        },
        {
          "internalType": "uint256",
          "name": "artifactLockedTimestamp",
          "type": "uint256"
        }
      ],
      "stateMutability": "view",
      "type": "function"
    },
    {
      "inputs": [
        {
          "internalType": "uint256",
          "name": "",
          "type": "uint256"
        }
      ],
      "name": "playerIds",
      "outputs": [
        {
          "internalType": "address",
          "name": "",
          "type": "address"
        }
      ],
      "stateMutability": "view",
      "type": "function"
    },
    {
      "inputs": [
        {
          "internalType": "uint256",
          "name": "_location",
          "type": "uint256"
        }
      ],
      "name": "refreshPlanet",
      "outputs": [],
      "stateMutability": "nonpayable",
      "type": "function"
    },
    {
      "inputs": [
        {
          "internalType": "uint256",
          "name": "_location",
          "type": "uint256"
        },
        {
          "internalType": "address",
          "name": "_player",
          "type": "address"
        }
      ],
      "name": "transferOwnership",
      "outputs": [],
      "stateMutability": "nonpayable",
      "type": "function"
    },
    {
      "inputs": [],
      "name": "unpause",
      "outputs": [],
      "stateMutability": "nonpayable",
      "type": "function"
    },
    {
      "inputs": [
        {
          "internalType": "uint256",
          "name": "_location",
          "type": "uint256"
        },
        {
          "internalType": "uint256",
          "name": "_branch",
          "type": "uint256"
        }
      ],
      "name": "upgradePlanet",
      "outputs": [
        {
          "internalType": "uint256",
          "name": "",
          "type": "uint256"
        },
        {
          "internalType": "uint256",
          "name": "",
          "type": "uint256"
        }
      ],
      "stateMutability": "nonpayable",
      "type": "function"
    },
    {
      "inputs": [
        {
          "internalType": "uint256",
          "name": "",
          "type": "uint256"
        },
        {
          "internalType": "uint256",
          "name": "",
          "type": "uint256"
        }
      ],
      "name": "upgrades",
      "outputs": [
        {
          "internalType": "uint256",
          "name": "popCapMultiplier",
          "type": "uint256"
        },
        {
          "internalType": "uint256",
          "name": "popGroMultiplier",
          "type": "uint256"
        },
        {
          "internalType": "uint256",
          "name": "rangeMultiplier",
          "type": "uint256"
        },
        {
          "internalType": "uint256",
          "name": "speedMultiplier",
          "type": "uint256"
        },
        {
          "internalType": "uint256",
          "name": "defMultiplier",
          "type": "uint256"
        }
      ],
      "stateMutability": "view",
      "type": "function"
    },
    {
      "inputs": [],
      "name": "withdraw",
      "outputs": [],
      "stateMutability": "nonpayable",
      "type": "function"
    },
    {
      "inputs": [
        {
          "internalType": "uint256",
          "name": "locationId",
          "type": "uint256"
        }
      ],
      "name": "withdrawArtifact",
      "outputs": [],
      "stateMutability": "nonpayable",
      "type": "function"
    },
    {
      "inputs": [],
      "name": "worldRadius",
      "outputs": [
        {
          "internalType": "uint256",
          "name": "",
          "type": "uint256"
        }
      ],
      "stateMutability": "view",
      "type": "function"
    }
  ],
  "bytecode": "0x60806040526064600255600e6003556011600455600f60055560116006556140006007556008805560086009556004600a5561a8c0600b5534801561004357600080fd5b50615f6b80620000546000396000f3fe6080604052600436106102ee5760003560e01c806378d1742b1161018d57806378d1742b1461072957806378d4ce951461073e5780638456cb591461075e5780638a05b329146107735780638af9d562146107885780638f2839701461079d5780639184f0b6146107bd57806392d93a12146107dd5780639759d15f146107fd578063975de6131461081d57806397dbb6fa1461084a57806398f94a8e1461085f5780639fd4d4d41461087f578063aaca42e914610892578063ab230321146108b2578063ad489091146108e2578063b5549e6414610902578063bb4908f214610937578063c012b1121461094c578063c4c3cfaa14610979578063c68b812614610999578063c8d503ea146109ae578063c9359491146109ce578063ccf738e9146109ff578063ce02f43b14610a37578063d3acb0c314610a57578063dacb613514610a6c578063de2edb9114610a99578063e654848a14610aae578063f6e46b6014610adb578063f9231d9214610af0578063fc6f946814610b1d578063fe80bb1214610b32576102ee565b806304d74a39146102f357806305b86be51461032957806306fa84c61461034b5780630767751a1461036d57806308d2e95a1461038d5780630ad98d41146103af5780630af80778146103d157806310d4abf2146103f15780631e4abc3a146104115780631f2836b7146104265780631f94f54014610446578063221f77641461047357806326c1e7501461049357806329507f73146104cb5780632f5714c7146104eb578063314d1ff71461050b5780633ccfd60b1461052b5780633f324cf3146105405780633f4ba83a146105605780633f9d7c491461057557806340a72788146105a25780634eb0e959146105c25780635c975abb146105d75780636306a122146105ec578063695bd00c146106195780636b2f112c1461063b5780636c7ffeec146106505780636df0a9061461067d57806373a853811461069257806374b99106146106c057806376af38b4146106d557806378622ae614610709575b600080fd5b3480156102ff57600080fd5b5061031361030e366004614ab4565b610b47565b60405161032091906150ae565b60405180910390f35b34801561033557600080fd5b5061033e610cb9565b6040516103209190615317565b34801561035757600080fd5b5061036b610366366004614a2e565b610d12565b005b34801561037957600080fd5b5061036b610388366004614a2e565b610e95565b34801561039957600080fd5b506103a2610ed2565b6040516103209190614ff2565b3480156103bb57600080fd5b506103c4611069565b6040516103209190614d02565b3480156103dd57600080fd5b506103c46103ec36600461463d565b61106f565b3480156103fd57600080fd5b506103c461040c366004614a2e565b61143c565b34801561041d57600080fd5b506103c461145a565b34801561043257600080fd5b506103c4610441366004614a2e565b611460565b34801561045257600080fd5b50610466610461366004614a2e565b61146d565b604051610320919061536a565b34801561047f57600080fd5b506103c461048e366004614a2e565b6114f3565b34801561049f57600080fd5b506104b36104ae366004614a2e565b611500565b6040516103209c9b9a99989796959493929190614d4e565b3480156104d757600080fd5b5061036b6104e6366004614a5e565b61156d565b3480156104f757600080fd5b5061036b610506366004614882565b6116cf565b34801561051757600080fd5b5061033e610526366004614505565b6119d3565b34801561053757600080fd5b5061036b611a58565b34801561054c57600080fd5b5061036b61055b366004614a2e565b611ab4565b34801561056c57600080fd5b5061036b611b54565b34801561058157600080fd5b506105956105903660046146cf565b611bbc565b6040516103209190614e10565b3480156105ae57600080fd5b506105956105bd366004614ab4565b611c59565b3480156105ce57600080fd5b506103c4611cf6565b3480156105e357600080fd5b50610466611cfc565b3480156105f857600080fd5b5061060c6106073660046146cf565b611d0c565b6040516103209190614f25565b34801561062557600080fd5b5061062e61204e565b6040516103209190614e70565b34801561064757600080fd5b506103c46120fe565b34801561065c57600080fd5b5061067061066b366004614ab4565b612104565b6040516103209190614dc3565b34801561068957600080fd5b506103c46121ae565b34801561069e57600080fd5b506106b26106ad366004614ab4565b6121b4565b604051610320929190615dd9565b3480156106cc57600080fd5b506103c46122a0565b3480156106e157600080fd5b506106f56106f0366004614a2e565b6122a6565b604051610320989796959493929190615d4b565b34801561071557600080fd5b506103136107243660046146cf565b6122f3565b34801561073557600080fd5b5061033e612456565b34801561074a57600080fd5b506103c461075936600461459d565b6124ac565b34801561076a57600080fd5b5061036b612722565b34801561077f57600080fd5b506103c4612791565b34801561079457600080fd5b50610466612797565b3480156107a957600080fd5b5061036b6107b8366004614505565b6127a7565b3480156107c957600080fd5b506104666107d8366004614505565b612827565b3480156107e957600080fd5b5061036b6107f8366004614ab4565b61283c565b34801561080957600080fd5b5061036b610818366004614544565b612a5f565b34801561082957600080fd5b5061083d610838366004614ab4565b612ea7565b6040516103209190615175565b34801561085657600080fd5b506103c461301f565b34801561086b57600080fd5b5061083d61087a3660046146cf565b613025565b61036b61088d366004614a2e565b613195565b34801561089e57600080fd5b5061033e6108ad366004614ab4565b61328c565b3480156108be57600080fd5b506108d26108cd366004614ab4565b613316565b6040516103209493929190615d8a565b3480156108ee57600080fd5b506103c46108fd366004614a2e565b61335c565b34801561090e57600080fd5b5061092261091d366004614a2e565b613369565b60405161032099989796959493929190615471565b34801561094357600080fd5b506103c4613449565b34801561095857600080fd5b5061096c610967366004614a2e565b61344f565b6040516103209190614d21565b34801561098557600080fd5b506103c4610994366004614a2e565b613476565b3480156109a557600080fd5b506103c4613488565b3480156109ba57600080fd5b506104666109c9366004614a2e565b61348e565b3480156109da57600080fd5b506109ee6109e9366004614ab4565b6134c4565b604051610320959493929190615db6565b348015610a0b57600080fd5b50610a1f610a1a366004614a2e565b613506565b6040516103209c9b9a99989796959493929190615375565b348015610a4357600080fd5b5061036b610a52366004614a2e565b61356e565b348015610a6357600080fd5b506103c46135a3565b348015610a7857600080fd5b50610a8c610a87366004614a2e565b6135a9565b6040516103209190614ecf565b348015610aa557600080fd5b506103c461378e565b348015610aba57600080fd5b50610ace610ac93660046146cf565b613794565b6040516103209190614ee2565b348015610ae757600080fd5b506103c46139ff565b348015610afc57600080fd5b50610b10610b0b366004614a2e565b613a05565b6040516103209190615c4d565b348015610b2957600080fd5b5061096c613bef565b348015610b3e57600080fd5b506103c4613c04565b60608282036001600160401b0381118015610b6157600080fd5b50604051908082528060200260200182016040528015610b9b57816020015b610b88613ffc565b815260200190600190039081610b805790505b509050825b82811015610cb2576055600060508381548110610bb957fe5b90600052602060002001548152602001908152602001600020604051806101800160405290816000820160009054906101000a900460ff161515151581526020016001820154815260200160028201548152602001600382015481526020016004820160009054906101000a900460ff166002811115610c3557fe5b6002811115610c4057fe5b815260058201546020820152600682015460408201526007820154606082015260088201546080820152600982015460ff16151560a0820152600a82015460c0820152600b9091015460e09091015282518390868403908110610c9f57fe5b6020908102919091010152600101610ba0565b5092915050565b6060600c805480602002602001604051908101604052809291908181526020018280548015610d0757602002820191906000526020600020905b815481526020019060010190808311610cf3575b505050505090505b90565b600154600160a01b900460ff1615610d455760405162461bcd60e51b8152600401610d3c90615ae9565b60405180910390fd5b610d4e81611ab4565b60008181526054602090815260408083206055909252909120600a81015482546001600160a01b03163314610d955760405162461bcd60e51b8152600401610d3c906157eb565b80610db25760405162461bcd60e51b8152600401610d3c90615a2a565b600b5482600b0154014211610dd95760405162461bcd60e51b8152600401610d3c9061552c565b6001546040516291d47560e31b815273__$f91f8136ead5b3d50c91f0037df53ed68a$__9163048ea3a891610e23916001600160a01b0316903090889088906057906004016153e4565b60006040518083038186803b158015610e3b57600080fd5b505af4158015610e4f573d6000803e3d6000fd5b505050507fddc1c4f50c95d59676181cc235531a664d4d990a0d585408c1fb89bacca2fbc4843383604051610e8693929190615cd8565b60405180910390a15050505b50565b6000546201000090046001600160a01b03163314610ec55760405162461bcd60e51b8152600401610d3c906157b6565b604e819055610e92613c0a565b600c5460609081906001600160401b0381118015610eef57600080fd5b50604051908082528060200260200182016040528015610f2957816020015b610f1661406c565b815260200190600190039081610f0e5790505b50905060005b600c5481101561106357600f8181548110610f4657fe5b600091825260209182902060408051600993909302909101805460026001821615610100026000190190911604601f81018590049094028301610140908101909252610120830184815292939092849290918491840182828015610feb5780601f10610fc057610100808354040283529160200191610feb565b820191906000526020600020905b815481529060010190602001808311610fce57829003601f168201915b505050505081526020016001820154815260200160028201548152602001600382015481526020016004820154815260200160058201548152602001600682015481526020016007820154815260200160088201548152505082828151811061105057fe5b6020908102919091010152600101610f2f565b50905090565b60085481565b600154600090600160a01b900460ff161561109c5760405162461bcd60e51b8152600401610d3c90615ae9565b8151602083015160408401516060850151608086015160a087015160c0880151600154600160a81b900460ff166111a9576110d56140b8565b6040518060a0016040528089815260200188815260200187815260200186815260200185815250905073__$6b78ae7bf09e0e72535be6401663f3a543$__63275abc628e8e8e856040518563ffffffff1660e01b815260040161113b94939291906152c6565b60206040518083038186803b15801561115357600080fd5b505af4158015611167573d6000803e3d6000fd5b505050506040513d601f19601f8201168201806040525081019061118b91906147cc565b6111a75760405162461bcd60e51b8152600401610d3c90615972565b505b6052548411156111cb5760405162461bcd60e51b8152600401610d3c90615be8565b60008681526055602052604090205460ff166111f2576111ed86866000613ca2565b611350565b6111fb86611ab4565b600080805b60008981526058602052604090205460ff821610156112e2576000898152605860205260408120805460ff841690811061123657fe5b600091825260209091206001600490920201015460ff16801561125557fe5b14156112da576000898152605460209081526040808320546058909252822080546001600160a01b039092169260599290919060ff861690811061129557fe5b6000918252602080832060049092029091015483528201929092526040019020600101546001600160a01b031614156112d3576001909201916112da565b6001909101905b600101611200565b506000888152605460205260409020546001600160a01b031633141561132a5760068260ff16106113255760405162461bcd60e51b8152600401610d3c906155bf565b61134d565b60068160ff161061134d5760405162461bcd60e51b8152600401610d3c906155bf565b50505b61135987611ab4565b6053546040516306e5297d60e31b815273__$f91f8136ead5b3d50c91f0037df53ed68a$__916337294be8916113a7918b918b91899189918991605490605590605890605990600401615e3f565b60006040518083038186803b1580156113bf57600080fd5b505af41580156113d3573d6000803e3d6000fd5b5050605380546001019055506113e99050613c0a565b7f73589d8f04c4286010ba8cbf687f804de4f668cb96b2d8c73f310ceb90a48fc060016053540360405161141d9190614d02565b60405180910390a15050605354600019019a9950505050505050505050565b600d818154811061144957fe5b600091825260209091200154905081565b60095481565b600e818154811061144957fe5b600154604051627e53d560e61b81526000916001600160a01b031690631f94f5409061149d908590600401614d02565b60206040518083038186803b1580156114b557600080fd5b505afa1580156114c9573d6000803e3d6000fd5b505050506040513d601f19601f820116820180604052508101906114ed91906147cc565b92915050565b600c818154811061144957fe5b605460205260009081526040902080546001820154600283015460038401546004850154600586015460068701546007880154600889015460098a0154600a8b0154600b909b01546001600160a01b03909a169a98999798969795969495939460ff90931693919290918c565b600154600160a01b900460ff16156115975760405162461bcd60e51b8152600401610d3c90615ae9565b60008281526055602052604090205460ff1615156001146115ca5760405162461bcd60e51b8152600401610d3c90615783565b6115d382611ab4565b6000828152605460205260409020546001600160a01b031633146116095760405162461bcd60e51b8152600401610d3c90615703565b6001600160a01b0381163314156116325760405162461bcd60e51b8152600401610d3c9061593b565b6001600160a01b03811660009081526056602052604090205460ff1661166a5760405162461bcd60e51b8152600401610d3c906159a3565b6000828152605460205260409081902080546001600160a01b0319166001600160a01b038416179055517f0d6a4b16d4e1aee360d85f68ad11dd1fce957650322a72303f9d3f709aedc65f906116c39084908490615cc1565b60405180910390a15050565b600054610100900460ff16806116e857506116e8613eab565b806116f6575060005460ff16155b6117125760405162461bcd60e51b8152600401610d3c906158a8565b600054610100900460ff1615801561173d576000805460ff1961ff0019909116610100171660011790555b8151600080546001600160a01b03909216620100000262010000600160b01b031990921691909117905560408201516001805460608501511515600160a81b0260ff60a81b19931515600160a01b0260ff60a01b199092169190911792909216919091179055608082015160025560a082015160035560c0820151600455610120820151600755610140820151600855610160820151600955610180820151600a556101a082015180516117f991600c916020909101906140d6565b506101c0820151604d556101e0820151604e55610200820151604f55610240820151600180546001600160a01b0319166001600160a01b03909216919091179055604051635dfd086d60e01b815273__$5ae0c2211b657f8a7ca51e0b14f2a8333d$__90635dfd086d9061187290600f90600401614d02565b60006040518083038186803b15801561188a57600080fd5b505af415801561189e573d6000803e3d6000fd5b505060405163e771ed6b60e01b815273__$5ae0c2211b657f8a7ca51e0b14f2a8333d$__925063e771ed6b91506118da90601090600401614d02565b60006040518083038186803b1580156118f257600080fd5b505af4158015611906573d6000803e3d6000fd5b50506040805161010081018252600080825260208201819052918101829052606081018290526080810182905260a0810182905260c0810182905260e08101919091526119599250600e91506008614121565b5060005b600c548110156119b457600d600754600c838154811061197957fe5b906000526020600020015463010000008161199057fe5b8354600181810186556000958652602090952092909104929092029101550161195d565b506119bd613c0a565b80156119cf576000805461ff00191690555b5050565b60015460405163314d1ff760e01b81526060916001600160a01b03169063314d1ff790611a04908590600401614d21565b60006040518083038186803b158015611a1c57600080fd5b505afa158015611a30573d6000803e3d6000fd5b505050506040513d6000823e601f3d908101601f191682016040526114ed919081019061473a565b6000546201000090046001600160a01b03163314611a885760405162461bcd60e51b8152600401610d3c906157b6565b60405133904780156108fc02916000818181858888f19350505050158015610e92573d6000803e3d6000fd5b600154600160a01b900460ff1615611ade5760405162461bcd60e51b8152600401610d3c90615ae9565b60405163180287b760e01b815273__$f91f8136ead5b3d50c91f0037df53ed68a$__9063180287b790611b21908490605490605590605890605990600401615db6565b60006040518083038186803b158015611b3957600080fd5b505af4158015611b4d573d6000803e3d6000fd5b5050505050565b6000546201000090046001600160a01b03163314611b845760405162461bcd60e51b8152600401610d3c906157b6565b600154600160a01b900460ff16611bad5760405162461bcd60e51b8152600401610d3c90615bb6565b6001805460ff60a01b19169055565b606080826001600160401b0381118015611bd557600080fd5b50604051908082528060200260200182016040528015611c0957816020015b6060815260200190600190039081611bf45790505b50905060005b83811015611c5157611c32858583818110611c2657fe5b905060200201356135a9565b828281518110611c3e57fe5b6020908102919091010152600101611c0f565b509392505050565b6060808383036001600160401b0381118015611c7457600080fd5b50604051908082528060200260200182016040528015611ca857816020015b6060815260200190600190039081611c935790505b509050835b83811015611c5157611cd560508281548110611cc557fe5b90600052602060002001546135a9565b8286830381518110611ce357fe5b6020908102919091010152600101611cad565b60525481565b600154600160a01b900460ff1681565b6060816001600160401b0381118015611d2457600080fd5b50604051908082528060200260200182016040528015611d5e57816020015b611d4b614161565b815260200190600190039081611d435790505b50905060005b82811015610cb257611d746141d4565b60596000868685818110611d8457fe5b602090810292909201358352508181019290925260409081016000208151610100810183528154815260018201546001600160a01b0316938101939093526002810154918301919091526003810154606083015260048101546080830152600581015460a0830152600681015460c08301526007015460e08201529050611e09614222565b6040808301516000908152605460209081529082902082516101808101845281546001600160a01b03168152600180830154938201939093526002820154938101939093526003810154606084015260048101546080840152600581015460a0840152600681015460c08401526007810154909160e084019160ff1690811115611e8f57fe5b6001811115611e9a57fe5b81526020016008820154815260200160098201548152602001600a8201548152602001600b820154815250509050611ed0614222565b60608084015160009081526054602090815260409182902082516101808101845281546001600160a01b031681526001808301549382019390935260028201549381019390935260038101549383019390935260048301546080830152600583015460a0830152600683015460c0830152600783015491929160e084019160ff90911690811115611f5d57fe5b6001811115611f6857fe5b81526020016008820154815260200160098201548152602001600a8201548152602001600b820154815250509050604051806101800160405280846080015181526020018460a0015181526020018460c0015181526020018460e0015181526020018460400151815260200183600001516001600160a01b031681526020018360800151815260200183610140015181526020018460600151815260200182600001516001600160a01b031681526020018260800151815260200182610140015181525085858151811061203857fe5b6020908102919091010152505050600101611d64565b612056614297565b6040805160608101909152601060036000835b828210156120f557604080516080810190915260148302850160046000835b828210156120e2578382600502016040518060a00160405290816000820154815260200160018201548152602001600282015481526020016003820154815260200160048201548152505081526020019060010190612088565b5050505081526020019060010190612069565b50505050905090565b600b5481565b60608282036001600160401b038111801561211e57600080fd5b50604051908082528060200260200182016040528015612148578160200160208202803683370190505b509050825b82811015610cb2576051818154811061216257fe5b9060005260206000200160009054906101000a90046001600160a01b0316828583038151811061218e57fe5b6001600160a01b039092166020928302919091019091015260010161214d565b60045481565b6001546000908190600160a01b900460ff16156121e35760405162461bcd60e51b8152600401610d3c90615ae9565b6121ec84611ab4565b604051633097022560e21b815273__$f91f8136ead5b3d50c91f0037df53ed68a$__9063c25c0894906122319087908790605490605590600f90601090600401615de7565b60006040518083038186803b15801561224957600080fd5b505af415801561225d573d6000803e3d6000fd5b505050507f1c3559377dd1e586346f593aa9785e8eea8298f2d2ce1c2ef50428563d8ba84c846040516122909190614d02565b60405180910390a1509192909150565b600a5481565b6059602052600090815260409020805460018201546002830154600384015460048501546005860154600687015460079097015495966001600160a01b0390951695939492939192909188565b6060816001600160401b038111801561230b57600080fd5b5060405190808252806020026020018201604052801561234557816020015b612332613ffc565b81526020019060019003908161232a5790505b50905060005b82811015610cb2576055600085858481811061236357fe5b905060200201358152602001908152602001600020604051806101800160405290816000820160009054906101000a900460ff161515151581526020016001820154815260200160028201548152602001600382015481526020016004820160009054906101000a900460ff1660028111156123db57fe5b60028111156123e657fe5b815260058201546020820152600682015460408201526007820154606082015260088201546080820152600982015460ff16151560a0820152600a82015460c0820152600b9091015460e090910152825183908390811061244357fe5b602090810291909101015260010161234b565b6060600d805480602002602001604051908101604052809291908181526020018280548015610d075760200282019190600052602060002090815481526020019060010190808311610cf3575050505050905090565b600154600090600160a01b900460ff16156124d95760405162461bcd60e51b8152600401610d3c90615ae9565b600154600160a81b900460ff16612593576040516323bfe25560e21b815273__$6b78ae7bf09e0e72535be6401663f3a543$__90638eff895490612527908890889088908890600401615269565b60206040518083038186803b15801561253f57600080fd5b505af4158015612553573d6000803e3d6000fd5b505050506040513d601f19601f8201168201806040525081019061257791906147cc565b6125935760405162461bcd60e51b8152600401610d3c90615877565b81516020830151604080850151605254600354925163c519ebff60e01b8152919273__$f91f8136ead5b3d50c91f0037df53ed68a$__9263c519ebff926125ea928892889288926056926055929190600401615e0f565b60206040518083038186803b15801561260257600080fd5b505af4158015612616573d6000803e3d6000fd5b505050506040513d601f19601f8201168201806040525081019061263a91906147cc565b61264357600080fd5b336000818152605660205260408120805460ff1916600190811790915560518054808301825592527f994a4b4eddb300691ee19901712848b1114bad8a1a4ae195e5abe0ec38021b9490910180546001600160a01b0319169092179091556126ae9084908490613ca2565b600083815260546020526040902080546001600160a01b0319163317815561c3506004909101556126dd613c0a565b7f5765df5ce7cf4175ef997923b4936159dcf3cea059434dab4643214d690a2b95338460405161270e929190614d35565b60405180910390a150909695505050505050565b6000546201000090046001600160a01b031633146127525760405162461bcd60e51b8152600401610d3c906157b6565b600154600160a01b900460ff161561277c5760405162461bcd60e51b8152600401610d3c90615c1d565b6001805460ff60a01b1916600160a01b179055565b60515490565b600154600160a81b900460ff1681565b6000546201000090046001600160a01b031633146127d75760405162461bcd60e51b8152600401610d3c906157b6565b6001600160a01b0381166127fd5760405162461bcd60e51b8152600401610d3c906154fc565b600080546001600160a01b03909216620100000262010000600160b01b0319909216919091179055565b60566020526000908152604090205460ff1681565b600154600160a01b900460ff16156128665760405162461bcd60e51b8152600401610d3c90615ae9565b61286f82611ab4565b600082815260546020908152604080832060559092529182902060015492516331a9108f60e11b81529192909133916001600160a01b031690636352211e906128bc908790600401614d02565b60206040518083038186803b1580156128d457600080fd5b505afa1580156128e8573d6000803e3d6000fd5b505050506040513d601f19601f8201168201806040525081019061290c9190614528565b6001600160a01b0316146129325760405162461bcd60e51b8152600401610d3c90615632565b81546001600160a01b0316331461295b5760405162461bcd60e51b8152600401610d3c90615a6c565b600a8101541561297d5760405162461bcd60e51b8152600401610d3c906154c5565b6000600783015460ff16600181111561299257fe5b146129af5760405162461bcd60e51b8152600401610d3c906156be565b60015460405163911617cf60e01b815273__$f91f8136ead5b3d50c91f0037df53ed68a$__9163911617cf916129fc916001600160a01b0316908790899088908890605790600401615415565b60006040518083038186803b158015612a1457600080fd5b505af4158015612a28573d6000803e3d6000fd5b505050507ff508c790301e4d7e4823721c6d7ad5d6cdfd3f3e84d27ad5c2793ec9fe4951e3843385604051610e8693929190615cd8565b600154600160a01b900460ff1615612a895760405162461bcd60e51b8152600401610d3c90615ae9565b604c544210612aaa5760405162461bcd60e51b8152600401610d3c906159f5565b80516020820151612aba82611ab4565b60008281526054602090815260408083206055909252808320600480820154600554600654945163953e393760e01b815295969395939473__$773590d194ef7af6149f5cd9ccb8db3ce0$__9463953e393794612b219460ff16938b939092909101615448565b60206040518083038186803b158015612b3957600080fd5b505af4158015612b4d573d6000803e3d6000fd5b505050506040513d601f19601f82011682018060405250810190612b7191906147e8565b600154909150600160a81b900460ff16612c2e57604051631b210ed160e31b815273__$6b78ae7bf09e0e72535be6401663f3a543$__9063d908768890612bc2908c908c908c908c90600401615232565b60206040518083038186803b158015612bda57600080fd5b505af4158015612bee573d6000803e3d6000fd5b505050506040513d601f19601f82011682018060405250810190612c1291906147cc565b612c2e5760405162461bcd60e51b8152600401610d3c90615678565b612c3c8584600b0154613ebc565b612c585760405162461bcd60e51b8152600401610d3c9061573a565b600982015460ff1615612c7d5760405162461bcd60e51b8152600401610d3c90615b84565b82546001600160a01b03163314612ca65760405162461bcd60e51b8152600401610d3c90615571565b605f8360050154846004015460640281612cbc57fe5b0411612cda5760405162461bcd60e51b8152600401610d3c906155ef565b6000600784015460ff166001811115612cef57fe5b14612d0c5760405162461bcd60e51b8152600401610d3c90615b11565b60098201805460ff19166001179055605354600090612d2d90879042613f0c565b9050600080612d3b83613f43565b91509150612d476142c4565b600154600b880154604051631401ad8960e01b81526001600160a01b0390921691631401ad8991612d8791889133918f919089908d908c90600401615cf7565b60e060405180830381600087803b158015612da157600080fd5b505af1158015612db5573d6000803e3d6000fd5b505050506040513d601f19601f82011682018060405250810190612dd99190614803565b600154815160405163911617cf60e01b815292935073__$f91f8136ead5b3d50c91f0037df53ed68a$__9263911617cf92612e2b926001600160a01b03909116918e908d908d90605790600401615415565b60006040518083038186803b158015612e4357600080fd5b505af4158015612e57573d6000803e3d6000fd5b505082516040517fb882fef472efbe5eeca4c6dd514ead8a562083960308e38711de10161c66cad49350612e8f92508c913391615cd8565b60405180910390a15050505050505050505b50505050565b60608282036001600160401b0381118015612ec157600080fd5b50604051908082528060200260200182016040528015612efb57816020015b612ee8614222565b815260200190600190039081612ee05790505b509050825b82811015610cb2576054600060508381548110612f1957fe5b90600052602060002001548152602001908152602001600020604051806101800160405290816000820160009054906101000a90046001600160a01b03166001600160a01b03166001600160a01b031681526020016001820154815260200160028201548152602001600382015481526020016004820154815260200160058201548152602001600682015481526020016007820160009054906101000a900460ff166001811115612fc757fe5b6001811115612fd257fe5b81526020016008820154815260200160098201548152602001600a8201548152602001600b82015481525050828583038151811061300c57fe5b6020908102919091010152600101612f00565b60065481565b6060816001600160401b038111801561303d57600080fd5b5060405190808252806020026020018201604052801561307757816020015b613064614222565b81526020019060019003908161305c5790505b50905060005b82811015610cb2576054600085858481811061309557fe5b905060200201358152602001908152602001600020604051806101800160405290816000820160009054906101000a90046001600160a01b03166001600160a01b03166001600160a01b031681526020016001820154815260200160028201548152602001600382015481526020016004820154815260200160058201548152602001600682015481526020016007820160009054906101000a900460ff16600181111561313f57fe5b600181111561314a57fe5b81526020016008820154815260200160098201548152602001600a8201548152602001600b8201548152505082828151811061318257fe5b602090810291909101015260010161307d565b60008181526055602052604090205460ff1615156001146131c85760405162461bcd60e51b8152600401610d3c90615783565b6131d181611ab4565b6000818152605460205260409020546001600160a01b031633146132075760405162461bcd60e51b8152600401610d3c90615836565b600081815260556020526040902060080154670de0b6b3a7640000901b348111156132445760405162461bcd60e51b8152600401610d3c90615b53565b6000828152605560205260409081902060080180546001019055517f444d0a208ac492e147b2e0e5ffeeb6e6be2c122d95f3da8f45e26868785c84eb906116c3908490614d02565b60608282036001600160401b03811180156132a657600080fd5b506040519080825280602002602001820160405280156132d0578160200160208202803683370190505b509050825b82811015610cb257605081815481106132ea57fe5b9060005260206000200154828583038151811061330357fe5b60209081029190910101526001016132d5565b6058602052816000526040600020818154811061332f57fe5b6000918252602090912060049091020180546001820154600283015460039093015491945060ff16925084565b6050818154811061144957fe5b600f818154811061337657fe5b60009182526020918290206009919091020180546040805160026001841615610100026000190190931692909204601f81018590048502830185019091528082529193509183919083018282801561340f5780601f106133e45761010080835404028352916020019161340f565b820191906000526020600020905b8154815290600101906020018083116133f257829003601f168201915b5050505050908060010154908060020154908060030154908060040154908060050154908060060154908060070154908060080154905089565b60535481565b6051818154811061345c57fe5b6000918252602090912001546001600160a01b0316905081565b60576020526000908152604090205481565b60505490565b60006007547f30644e72e131a029b85045b68181585d2833e84879b9709143e1f593f0000001816134bb57fe5b04909110919050565b601082600381106134d157fe5b6014020181600481106134e057fe5b600502018054600182015460028301546003840154600490940154929550909350919085565b605560205260009081526040902080546001820154600283015460038401546004850154600586015460068701546007880154600889015460098a0154600a8b0154600b909b015460ff9a8b169b999a9899979896871697959694959394929391909216918c565b6000546201000090046001600160a01b0316331461359e5760405162461bcd60e51b8152600401610d3c906157b6565b604c55565b60055481565b60606000805b6000848152605860205260409020548110156136135760008481526058602052604081208054839081106135df57fe5b600091825260209091206001600490920201015460ff1680156135fe57fe5b141561360b576001820191505b6001016135af565b50806001600160401b038111801561362a57600080fd5b5060405190808252806020026020018201604052801561366457816020015b6136516141d4565b8152602001906001900390816136495790505b5091506000805b60008581526058602052604090205481101561378657600085815260586020526040812080548390811061369b57fe5b600091825260209091206001600490920201015460ff1680156136ba57fe5b141561377e57600085815260586020526040812080546059929190849081106136df57fe5b600091825260208083206004928302015484528381019490945260409283019091208251610100810184528154815260018201546001600160a01b031694810194909452600281015492840192909252600382015460608401528101546080830152600581015460a0830152600681015460c08301526007015460e0820152845185908490811061376c57fe5b60209081029190910101526001909101905b60010161366b565b505050919050565b60075481565b6060816001600160401b03811180156137ac57600080fd5b506040519080825280602002602001820160405280156137e657816020015b6137d361430c565b8152602001906001900390816137cb5790505b50905060005b82811015610cb2576137fc6142c4565b6001546001600160a01b0316638465ad4486868581811061381957fe5b905060200201356040518263ffffffff1660e01b815260040161383c9190614d02565b60e06040518083038186803b15801561385457600080fd5b505afa158015613868573d6000803e3d6000fd5b505050506040513d601f19601f8201168201806040525081019061388c9190614803565b9050613896614340565b604051632e3b657160e21b815273__$773590d194ef7af6149f5cd9ccb8db3ce0$__9063b8ed95c4906138cd908590600401615c5c565b60a06040518083038186803b1580156138e557600080fd5b505af41580156138f9573d6000803e3d6000fd5b505050506040513d601f19601f8201168201806040525081019061391d91906149dd565b6040805160808101825284815260208101839052600154855183516331a9108f60e11b81529495509193928401926001600160a01b0390911691636352211e9161396a9190600401614d02565b60206040518083038186803b15801561398257600080fd5b505afa158015613996573d6000803e3d6000fd5b505050506040513d601f19601f820116820180604052508101906139ba9190614528565b6001600160a01b03168152835160009081526057602090815260409091205491015284518590859081106139ea57fe5b602090810291909101015250506001016137ec565b60025481565b613a0d61430c565b613a156142c4565b6001546040516321196b5160e21b81526001600160a01b0390911690638465ad4490613a45908690600401614d02565b60e06040518083038186803b158015613a5d57600080fd5b505afa158015613a71573d6000803e3d6000fd5b505050506040513d601f19601f82011682018060405250810190613a959190614803565b9050613a9f614340565b604051632e3b657160e21b815273__$773590d194ef7af6149f5cd9ccb8db3ce0$__9063b8ed95c490613ad6908590600401615c5c565b60a06040518083038186803b158015613aee57600080fd5b505af4158015613b02573d6000803e3d6000fd5b505050506040513d601f19601f82011682018060405250810190613b2691906149dd565b6040805160808101825284815260208101839052600154855183516331a9108f60e11b81529495509193928401926001600160a01b0390911691636352211e91613b739190600401614d02565b60206040518083038186803b158015613b8b57600080fd5b505afa158015613b9f573d6000803e3d6000fd5b505050506040513d601f19601f82011682018060405250810190613bc39190614528565b6001600160a01b0316815292516000908152605760209081526040909120549301929092525092915050565b6000546201000090046001600160a01b031681565b60035481565b605154604e5460405163044424cf60e41b815273__$773590d194ef7af6149f5cd9ccb8db3ce0$__926344424cf092613c4d92600e92600d92909160040161534f565b60206040518083038186803b158015613c6557600080fd5b505af4158015613c79573d6000803e3d6000fd5b505050506040513d601f19601f82011682018060405250810190613c9d9190614a46565b605255565b613cab8361348e565b613cc75760405162461bcd60e51b8152600401610d3c90615ab4565b60008073__$773590d194ef7af6149f5cd9ccb8db3ce0$__6339818ecc8686600354600454600854600954600a54600c600f6040518a63ffffffff1660e01b8152600401613d1d99989796959493929190615e84565b604080518083038186803b158015613d3457600080fd5b505af4158015613d48573d6000803e3d6000fd5b505050506040513d601f19601f82011682018060405250810190613d6c9190614a8d565b915091508215613d94578115613d945760405162461bcd60e51b8152600401610d3c906158f6565b60008581526054602090815260408083206055909252909120600f805473__$f91f8136ead5b3d50c91f0037df53ed68a$__93639414ee04939092909187908110613ddb57fe5b906000526020600020906009020188600254600354600454898b8f6040518b63ffffffff1660e01b8152600401613e1b9a99989796959493929190615c6a565b60006040518083038186803b158015613e3357600080fd5b505af4158015613e47573d6000803e3d6000fd5b505060508054600181810183556000929092527f5529612556959ef813dbe8d0ed29336ab75e80a9b7855030760b2917b01e568a01889055600e8054919350915084908110613e9257fe5b6000918252602090912001805490910190555050505050565b6000613eb630613fc2565b15905090565b6000606083604051602001613ed19190614d02565b60405160208183030381529060405290506000613ef082600e80613fc8565b9050601081108015613f03575060018410155b95945050505050565b6000838284604051602001613f2393929190614d0b565b60408051601f198184030181529190528051602090910120949350505050565b60008060ff80840690610100828603040660046040831015613f6757506001613f85565b6080831015613f7857506002613f85565b60c0831015613f85575060035b60006004831015613f9857506003613fb6565b6010831015613fa957506002613fb6565b6040831015613fb6575060015b90945092505050915091565b3b151590565b6000825b828111611c51578083036101000a858281518110613fe657fe5b016020015160f81c029190910190600101613fcc565b6040518061018001604052806000151581526020016000815260200160008152602001600081526020016000600281111561403357fe5b81526020016000815260200160008152602001600081526020016000815260200160001515815260200160008152602001600081525090565b6040518061012001604052806060815260200160008152602001600081526020016000815260200160008152602001600081526020016000815260200160008152602001600081525090565b6040518060a001604052806005906020820280368337509192915050565b828054828255906000526020600020908101928215614111579160200282015b828111156141115782518255916020019190600101906140f6565b5061411d92915061436f565b5090565b828054828255906000526020600020908101928215614111579160200282015b82811115614111578251829060ff16905591602001919060010190614141565b604051806101800160405280600081526020016000815260200160008152602001600081526020016000815260200160006001600160a01b0316815260200160008152602001600081526020016000815260200160006001600160a01b0316815260200160008152602001600081525090565b6040518061010001604052806000815260200160006001600160a01b031681526020016000815260200160008152602001600081526020016000815260200160008152602001600081525090565b60405180610180016040528060006001600160a01b031681526020016000815260200160008152602001600081526020016000815260200160008152602001600081526020016000600181111561427557fe5b8152602001600081526020016000815260200160008152602001600081525090565b60405180606001604052806003905b6142ae614389565b8152602001906001900390816142a65790505090565b6040518060e00160405280600081526020016000815260200160008152602001600060098111156142f157fe5b81526000602082018190526040820181905260609091015290565b604051806080016040528061431f6142c4565b815260200161432c614340565b815260006020820181905260409091015290565b6040518060a0016040528060008152602001600081526020016000815260200160008152602001600081525090565b610d0f91905b8082111561411d5760008155600101614375565b60405180608001604052806004905b6143a0614340565b8152602001906001900390816143985790505090565b80356114ed81615f12565b600082601f8301126143d1578081fd5b60406143dc81615ec3565b91508183856080860111156143f057600080fd5b60005b600281101561441a576144068783614424565b8352602090920191908301906001016143f3565b5050505092915050565b600082601f830112614434578081fd5b61443e6040615ec3565b905080828460408501111561445257600080fd5b60005b6002811015614474578135835260209283019290910190600101614455565b50505092915050565b600082601f83011261448d578081fd5b81356144a061449b82615ee9565b615ec3565b8181529150602080830190848101818402860182018710156144c157600080fd5b60005b848110156144e0578135845292820192908201906001016144c4565b505050505092915050565b80356114ed81615f27565b8051600a81106114ed57600080fd5b600060208284031215614516578081fd5b813561452181615f12565b9392505050565b600060208284031215614539578081fd5b815161452181615f12565b600080600080610140858703121561455a578283fd5b6145648686614424565b935061457386604087016143c1565b92506145828660c08701614424565b9150614592866101008701614424565b905092959194509250565b6000806000806101608086880312156145b4578283fd5b6145be8787614424565b94506145cd87604088016143c1565b93506145dc8760c08801614424565b92508661011f8701126145ed578182fd5b6145f76060615ec3565b80610100880189848a01111561460b578485fd5b8493505b600384101561462f5780358352600193909301926020928301920161460f565b509598949750929550505050565b6000806000806101e0808688031215614654578283fd5b61465e8787614424565b945061466d87604088016143c1565b935061467c8760c08801614424565b92508661011f87011261468d578182fd5b61469760e0615ec3565b80610100880189848a0111156146ab578485fd5b8493505b600784101561462f578035835260019390930192602092830192016146af565b600080602083850312156146e1578182fd5b82356001600160401b03808211156146f7578384fd5b81850186601f820112614708578485fd5b8035925081831115614718578485fd5b866020808502830101111561472b578485fd5b60200196919550909350505050565b6000602080838503121561474c578182fd5b82516001600160401b03811115614761578283fd5b80840185601f820112614772578384fd5b8051915061478261449b83615ee9565b828152838101908285018585028401860189101561479e578687fd5b8693505b848410156147c05780518352600193909301929185019185016147a2565b50979650505050505050565b6000602082840312156147dd578081fd5b815161452181615f27565b6000602082840312156147f9578081fd5b61452183836144f6565b600060e08284031215614814578081fd5b61481e60e0615ec3565b82518152602083015160208201526040830151604082015261484384606085016144f6565b60608201526080830151608082015260a083015161486081615f12565b60a082015260c083015160058110614876578283fd5b60c08201529392505050565b600060208284031215614893578081fd5b81356001600160401b03808211156148a9578283fd5b6102609184018086038313156148bd578384fd5b6148c683615ec3565b6148d087836143b6565b81526148df87602084016144eb565b60208201526148f187604084016144eb565b604082015261490387606084016144eb565b60608201526080828101359082015260a0808301359082015260c0808301359082015260e08083013590820152610100808301359082015261012080830135908201526101408083013590820152610160808301359082015261018080830135908201526101a09350838201358381111561497c578586fd5b6149888882850161447d565b948201949094526101c082810135908201526101e080830135908201526102008083013590820152610220808301359082015261024093506149cc878584016143b6565b848201528094505050505092915050565b600060a082840312156149ee578081fd5b6149f860a0615ec3565b82518152602083015160208201526040830151604082015260608301516060820152608083015160808201528091505092915050565b600060208284031215614a3f578081fd5b5035919050565b600060208284031215614a57578081fd5b5051919050565b60008060408385031215614a70578182fd5b823591506020830135614a8281615f12565b809150509250929050565b60008060408385031215614a9f578182fd5b82519150602083015160028110614a82578182fd5b60008060408385031215614ac6578182fd5b50508035926020909101359150565b6001600160a01b03169052565b8060005b6002811015612ea157614afa848351614b9c565b6040939093019260209190910190600101614ae6565b6000815180845260208085019450808401835b83811015614b9157815180518852838101516001600160a01b03168489015260408082015190890152606080820151908901526080808201519089015260a0808201519089015260c0808201519089015260e090810151908801526101009096019590820190600101614b23565b509495945050505050565b8060005b6002811015612ea1578151845260209384019390910190600101614ba0565b15159052565b600a8110614bcf57fe5b9052565b60028110614bcf57fe5b614bcf81615f08565b60008151808452815b81811015614c0b57602081850181015186830182015201614bef565b81811115614c1c5782602083870101525b50601f01601f19169290920160200192915050565b614c3c828251614c70565b6020810151614c4e60e0840182614cd2565b5060408101516001600160a01b0316610180830152606001516101a090910152565b8051825260208101516020830152604081015160408301526060810151614c9a6060840182614bc5565b506080818101519083015260a0808201516001600160a01b03169083015260c081015160058110614cc757fe5b8060c0840152505050565b80518252602081015160208301526040810151604083015260608101516060830152608081015160808301525050565b90815260200190565b9283526020830191909152604082015260600190565b6001600160a01b0391909116815260200190565b6001600160a01b03929092168252602082015260400190565b6001600160a01b038d168152602081018c9052604081018b9052606081018a90526080810189905260a0810188905260c081018790526101808101614d9660e0830188614bd3565b856101008301528461012083015283610140830152826101608301529d9c50505050505050505050505050565b6020808252825182820181905260009190848201906040850190845b81811015614e045783516001600160a01b031683529284019291840191600101614ddf565b50909695505050505050565b6000602080830181845280855180835260408601915060408482028701019250838701855b82811015614e6357603f19888603018452614e51858351614b10565b94509285019290850190600101614e35565b5092979650505050505050565b610780810181836000805b600381101561441a578251829085905b6004831015614eb557614e9f828251614cd2565b6001929092019160a09190910190602001614e8b565b505050610280939093019260209290920191600101614e7b565b6000602082526145216020830184614b10565b6020808252825182820181905260009190848201906040850190845b81811015614e0457614f11838551614c31565b928401926101c09290920191600101614efe565b602080825282518282018190526000919060409081850190868401855b82811015614fe55781518051855286810151878601528581015186860152606080820151908601526080808201519086015260a080820151614f8682880182614ad5565b505060c0818101519086015260e08082015190860152610100808201519086015261012080820151614fba82880182614ad5565b5050610140818101519086015261016090810151908501526101809093019290850190600101614f42565b5091979650505050505050565b60208082528251828201819052600091906040908185019080840286018301878501865b838110156150a057603f198984030185528151610120815181865261503d82870182614be6565b838b0151878c0152898401518a880152606080850151908801526080808501519088015260a0808501519088015260c0808501519088015260e0808501519088015261010093840151939096019290925250509386019390860190600101615016565b509098975050505050505050565b602080825282518282018190526000919060409081850190868401855b82811015614fe55781516150e0858251614bbf565b808701518588015285810151868601526060808201519086015260808082015161510c82880182614bdd565b505060a0818101519086015260c0808201519086015260e0808201519086015261010080820151908601526101208082015161514a82880182614bbf565b50506101408181015190860152610160908101519085015261018090930192908501906001016150cb565b602080825282518282018190526000919060409081850190868401855b82811015614fe55781516151a7858251614ad5565b80870151858801528581015186860152606080820151908601526080808201519086015260a0808201519086015260c0808201519086015260e0808201516151f182880182614bd3565b505061010081810151908601526101208082015190860152610140808201519086015261016090810151908501526101809093019290850190600101615192565b61014081016152418287614b9c565b61524e6040830186614ae2565b61525b60c0830185614b9c565b613f03610100830184614b9c565b61016081016152788287614b9c565b6152856040830186614ae2565b61529260c0830185614b9c565b61010082018360005b60038110156152ba57815183526020928301929091019060010161529b565b50505095945050505050565b6101a081016152d58287614b9c565b6152e26040830186614ae2565b6152ef60c0830185614b9c565b61010082018360005b60058110156152ba5781518352602092830192909101906001016152f8565b6020808252825182820181905260009190848201906040850190845b81811015614e0457835183529284019291840191600101615333565b93845260208401929092526040830152606082015260800190565b901515815260200190565b6000610180820190508d151582528c60208301528b60408301528a606083015261539e8a615f08565b608082019990995260a081019790975260c087019590955260e0860193909352610100850191909152151561012084015261014083015261016090910152949350505050565b6001600160a01b03958616815293909416602084015260408301919091526060820152608081019190915260a00190565b6001600160a01b03969096168652602086019490945260408501929092526060840152608083015260a082015260c00190565b6080810161545586615f08565b9481526020810193909352604083019190915260609091015290565b60006101208083526154858184018d614be6565b602084019b909b52505060408101979097526060870195909552608086019390935260a085019190915260c084015260e083015261010090910152919050565b6020808252601e908201527f706c616e657420616c72656164792068617320616e2061727469666163740000604082015260600190565b60208082526016908201527506e65774f776e65722063616e6e6f74206265203078360541b604082015260600190565b60208082526025908201527f706c616e6574277320617274696661637420697320696e206c6f636b75702070604082015264195c9a5bd960da1b606082015260800190565b6020808252602e908201527f796f752063616e206f6e6c792066696e6420617274696661637473206f6e207060408201526d3630b732ba39903cb7ba9037bbb760911b606082015260800190565b602080825260169082015275141b185b995d081a5cc81c985d194b5b1a5b5a5d195960521b604082015260600190565b60208082526023908201527f796f75206d757374206861766520393525206f6620746865206d617820656e6560408201526272677960e81b606082015260800190565b60208082526026908201527f796f752063616e206f6e6c79206465706f73697420617274696661637473207960408201526537ba9037bbb760d11b606082015260800190565b60208082526026908201527f62696f6d65207a6b534e41524b206661696c656420646f65736e27742063686560408201526518dac81bdd5d60d21b606082015260800190565b60208082526025908201527f63616e2774206465706f736974206172746966616374206f6e2073696c766572604082015264206d696e6560d81b606082015260800190565b6020808252601e908201527f4f6e6c79206f776e65722063616e207472616e7366657220706c616e65740000604082015260600190565b60208082526029908201527f796f752063616e27742066696e6420616e206172746966616374206f6e2074686040820152681a5cc81c1b185b995d60ba1b606082015260800190565b602080825260199082015278141b185b995d081a5cc81b9bdd081a5b9a5d1a585b1a5e9959603a1b604082015260600190565b6020808252601b908201527a29b2b73232b91034b9903737ba10309033b0b6b29036b0b9ba32b960291b604082015260600190565b6020808252602b908201527f796f752063616e206f6e6c792077697468647261772066726f6d206120706c6160408201526a3732ba103cb7ba9037bbb760a91b606082015260800190565b60208082526021908201527f4f6e6c79206f776e65722063616e206275792068617420666f7220706c616e656040820152601d60fa1b606082015260800190565b6020808252601790820152764661696c656420696e69742070726f6f6620636865636b60481b604082015260600190565b6020808252602e908201527f496e697469616c697a61626c653a20636f6e747261637420697320616c72656160408201526d191e481a5b9a5d1a585b1a5e995960921b606082015260800190565b60208082526025908201527f43616e206f6e6c7920696e697469616c697a65206f6e20706c616e6574206c65604082015264076656c20360dc1b606082015260800190565b6020808252601e908201527f43616e6e6f74207472616e7366657220706c616e657420746f2073656c660000604082015260600190565b6020808252601790820152764661696c6564206d6f76652070726f6f6620636865636b60481b604082015260600190565b60208082526032908201527f43616e206f6e6c79207472616e73666572206f776e65727368697020746f20696040820152716e697469616c697a656420706c617965727360701b606082015260800190565b6020808252601b908201527a151bdad95b881b5a5b9d081c195c9a5bd9081a185cc8195b991959602a1b604082015260600190565b60208082526022908201527f706c616e657420686173206e6f20617274696661637420746f20776974686472604082015261617760f01b606082015260800190565b60208082526028908201527f796f752063616e206f6e6c79206465706f736974206f6e206120706c616e6574604082015267103cb7ba9037bbb760c11b606082015260800190565b6020808252601b908201527a2737ba1030903b30b634b210383630b732ba103637b1b0ba34b7b760291b604082015260600190565b6020808252600e908201526d11d85b59481a5cc81c185d5cd95960921b604082015260600190565b60208082526022908201527f63616e2774206d696e74206172746966616374206f6e2073696c766572206d696040820152616e6560f01b606082015260800190565b602080825260179082015276125b9cdd59999a58da595b9d081d985b1d59481cd95b9d604a1b604082015260600190565b6020808252601890820152771c1b185b995d08185b1c9958591e481c1b1d5b99195c995960421b604082015260600190565b60208082526018908201527711d85b59481a5cc8185b1c9958591e481d5b9c185d5cd95960421b604082015260600190565b6020808252818101527f417474656d7074696e6720746f206d6f7665206f7574206f6620626f756e6473604082015260600190565b60208082526016908201527511d85b59481a5cc8185b1c9958591e481c185d5cd95960521b604082015260600190565b6101c081016114ed8284614c31565b60e081016114ed8284614c70565b6000610140820190508b82528a60208301528960408301528860608301528760808301528660a08301528560c0830152615ca760e0830186614bd3565b610100820193909352610120015298975050505050505050565b9182526001600160a01b0316602082015260400190565b9283526001600160a01b03919091166020830152604082015260600190565b8781526001600160a01b038716602082015260408101869052606081018590526080810184905260e08101615d2f60a0830185614bc5565b60058310615d3957fe5b8260c083015298975050505050505050565b9788526001600160a01b0396909616602088015260408701949094526060860192909252608085015260a084015260c083015260e08201526101000190565b8481526080810160018510615d9b57fe5b84602083015283604083015282606083015295945050505050565b948552602085019390935260408401919091526060830152608082015260a00190565b918252602082015260400190565b958652602086019490945260408501929092526060840152608083015260a082015260c00190565b968752602087019590955260408601939093526060850191909152608084015260a083015260c082015260e00190565b998a5260208a019890985260408901969096526060880194909452608087019290925260a086015260c085015260e08401526101008301526101208201526101400190565b988952602089019790975260408801959095526060870193909352608086019190915260a085015260c084015260e08301526101008201526101200190565b6040518181016001600160401b0381118282101715615ee157600080fd5b604052919050565b60006001600160401b03821115615efe578081fd5b5060209081020190565b60038110610e9257fe5b6001600160a01b0381168114610e9257600080fd5b8015158114610e9257600080fdfea26469706673582212202026946204f06e0a8705a1907560f03ae511e13a7d7b1da748e881adb703b27664736f6c63430006090033",
  "linkReferences": {
    "contracts/DarkForestInitialize.sol": {
      "DarkForestInitialize": [
        {
          "length": 20,
          "start": 6301
        },
        {
          "length": 20,
          "start": 6403
        }
      ]
    },
    "contracts/DarkForestPlanet.sol": {
      "DarkForestPlanet": [
        {
          "length": 20,
          "start": 3646
        },
        {
          "length": 20,
          "start": 5055
        },
        {
          "length": 20,
          "start": 6977
        },
        {
          "length": 20,
          "start": 8783
        },
        {
          "length": 20,
          "start": 9738
        },
        {
          "length": 20,
          "start": 10773
        },
        {
          "length": 20,
          "start": 11844
        },
        {
          "length": 20,
          "start": 15879
        }
      ]
    },
    "contracts/DarkForestUtils.sol": {
      "DarkForestUtils": [
        {
          "length": 20,
          "start": 11079
        },
        {
          "length": 20,
          "start": 14585
        },
        {
          "length": 20,
          "start": 15106
        },
        {
          "length": 20,
          "start": 15475
        },
        {
          "length": 20,
          "start": 15648
        }
      ]
    },
    "contracts/Verifier.sol": {
      "Verifier": [
        {
          "length": 20,
          "start": 4436
        },
        {
          "length": 20,
          "start": 9549
        },
        {
          "length": 20,
          "start": 11240
        }
      ]
    }
  },
  "deployedLinkReferences": {
    "contracts/DarkForestInitialize.sol": {
      "DarkForestInitialize": [
        {
          "length": 20,
          "start": 6217
        },
        {
          "length": 20,
          "start": 6319
        }
      ]
    },
    "contracts/DarkForestPlanet.sol": {
      "DarkForestPlanet": [
        {
          "length": 20,
          "start": 3562
        },
        {
          "length": 20,
          "start": 4971
        },
        {
          "length": 20,
          "start": 6893
        },
        {
          "length": 20,
          "start": 8699
        },
        {
          "length": 20,
          "start": 9654
        },
        {
          "length": 20,
          "start": 10689
        },
        {
          "length": 20,
          "start": 11760
        },
        {
          "length": 20,
          "start": 15795
        }
      ]
    },
    "contracts/DarkForestUtils.sol": {
      "DarkForestUtils": [
        {
          "length": 20,
          "start": 10995
        },
        {
          "length": 20,
          "start": 14501
        },
        {
          "length": 20,
          "start": 15022
        },
        {
          "length": 20,
          "start": 15391
        },
        {
          "length": 20,
          "start": 15564
        }
      ]
    },
    "contracts/Verifier.sol": {
      "Verifier": [
        {
          "length": 20,
          "start": 4352
        },
        {
          "length": 20,
          "start": 9465
        },
        {
          "length": 20,
          "start": 11156
        }
      ]
    }
  }
}